:020000040800F2
:1000000020040020450100084D0100084F010008B0
:1000100051010008530100085501000800000000CC
:100020000000000000000000000000005701000870
:1000300059010008000000005B0100085D01000894
:100040005F0100085F0100085F0100085F01000810
:100050005F0100085F0100085F0100085F01000800
:100060005F0100085F0100085F0100085F010008F0
:100070005F0100085F0100085F0100085F010008E0
:100080005F0100085F0100085F0100085F010008D0
:100090005F0100085F0100085F0100085F010008C0
:1000A0005F0100085F0100085F0100085F010008B0
:1000B0005F0100085F0100085F0100085F010008A0
:1000C0005F0100085F0100085F0100085F01000890
:1000D0005F0100085F0100085F0100085F01000880
:1000E0005F0100085F0100085F0100085F01000870
:1000F0005F0100085F0100085F0100085F01000860
:100100005F0100085F0100085F0100085F0100084F
:100110005F0100085F0100085F0100085F0100083F
:100120005F0100085F0100085F0100085F0100082F
:10013000DFF80CD000F018F800480047010A00086A
:10014000200400200648804706480047FEE7FEE7F7
:10015000FEE7FEE7FEE7FEE7FEE7FEE7FEE7FEE777
:100160002907000831010008064C074D06E0E06849
:1001700040F0010394E8070098471034AC42F6D3EE
:10018000FFF7DAFFC80A0008E80A000800298168BA
:1001900002D041F0010101E021F0010181607047CE
:1001A00070B592B00220ADF8400000248DF84340B5
:1001B00010A9314800F08EF90121084600F0E6F957
:1001C0000121480200F0EEF92C4E304600F0F2F822
:1001D0002B4800902B4801A9012581E8310080209F
:1001E000CDE9044040000690800007902020089050
:1001F0000002CDE909046946304600F04DF90121BD
:10020000304600F0CBF8E80300F0B6F98DF8305036
:100210000B948DF831504FF46020CDE90D04184C4B
:100220008DF83C504C3C0BA9204600F045F80523C6
:1002300001220B21204600F063F80121204600F046
:1002400023F801212046FFF7A1FF204600F092F895
:10025000204600F02AF80028FAD1204600F099F84C
:10026000204600F01BF80028FAD10121204600F0BA
:1002700086F812B070BD0000001001400800024076
:100280004C240140020000200029816802D041F482
:10029000807101E021F48071816070470146002087
:1002A0008968490700D50120704701460020896808
:1002B000090700D50120704710B542680E4B0C7934
:1002C0001A400B6842EA04221343436083680B4AD6
:1002D0001340D1E9024222434C7943EA44031A43D2
:1002E0008260C26A097C22F47002491EC9B242EAE5
:1002F0000151C16210BD0000FFFEF0FFFDF7F1FFEC
:1003000070B5072409290AD9C568A1F10A0606EBC8
:100310004606B440A543B3401D43C56007E00569E8
:1003200001EB4106B440A543B3401D4305611F23C3
:10033000072A09D2446B521E02EB820293409C436F
:1003400091400C43446370BD0D2A09D2046BD21F47
:1003500002EB820293409C4391400C43046370BDC6
:10036000C46A0D3A02EB820293409C4391400C43D5
:10037000C46270BD816841F0080181607047002946
:10038000816802D041F4A00101E021F4A001816064
:100390007047816841F0040181607047002901685D
:1003A00002D041F0010102E04FF6FE7211400160FF
:1003B0007047000001684FF6FE7211400160002195
:1003C000016041608160C1603149314A0839904221
:1003D00003D1486840F00F0006E02D4A14329042E5
:1003E00004D1486840F0F00048607047284A28323D
:1003F000904203D1486840F47060F5E7244A3C32EB
:10040000904203D1486840F47040EDE7204A5032F2
:10041000904203D1486840F47020E5E71C4A6432FA
:10042000904203D1486840F47000DDE7184A783202
:10043000904203D1486840F07060D5E7154A111F1B
:10044000904203D1086840F00F0006E0114A1432D0
:10045000904204D1086840F0F000086070470D4AEF
:100460002832904203D1086840F47060F5E7094AE9
:100470003C32904203D1086840F47040EDE7054AF1
:1004800050329042EAD1086840F47020E5E700005D
:10049000080002400804024030B5036847F6F072D5
:1004A00093430C6A8A682243D1E904452C432243D2
:1004B0008C692243CC6922434C6A22438C6A2243D2
:1004C0001A430260CA6842600A6882604968C16073
:1004D00030BD0000F0B5CA78002502F00F03D20647
:1004E00001D58A7813430A784FF00F0E12F0FF0FF0
:1004F0004FF001021CD004680F8802FA05F637405D
:10050000B74211D14FEA850C0EFA0CF724EA07071F
:1005100003FA0CF43C43CF78282F02D0482F02D0A6
:1005200002E0466100E006616D1C082DE4D3046022
:100530000C88FF2C1ED944685FF0000606F10807FE
:1005400002FA07F50F882F40AF420FD14FEA860C11
:100550000EFA0CF7BC4303FA0CF73C43CF78282F74
:1005600000D14561CF78482F00D10561761C082E57
:10057000E4D34460F0BD0000034A516821F44041D7
:10058000014351607047000000100240044A0029F6
:10059000516901D0014300E081435161704700007F
:1005A00000100240044A0029916901D0014300E093
:1005B00081439161704700000010024010B500F0C7
:1005C000B3F84FF40040FFF7D7FF01210846FFF7CB
:1005D000E9FF01210846FFF7D9FF01214802FFF793
:1005E000E1FF0121BDE810407C20FFF7DBBF0000E8
:1005F00030B51F494A6812F00C031E4A03D0042B81
:1006000001D0082B21D002604A680F231A4C03EA5C
:100610001212A35C0268DA4042604B68072505EAC3
:100620001323E35C22FA03F383604B6805EAD323C8
:10063000E35CDA40C2604968032303EA9131231F77
:10064000595CB2FBF1F1016130BD4A684B6802F4BC
:1006500070124FF0020413F4803F04EB924202D078
:100660004B689B0301D5054B00E0024B5A43CAE798
:100670000010024000127A000C00002000093D002A
:100680000CB50021264801910091026842F48032A5
:1006900002604FF4A063026802F400320092019AF3
:1006A000521C0192009A12B9019A9A42F3D102683F
:1006B000920333D5012100911A490A6842F01002D1
:1006C0000A600A6822F003020A600A6842F0020225
:1006D0000A604168416041684160416841F480615D
:1006E0004160416821F47C114160416841F4E811A6
:1006F0004160016841F08071016001688901FCD5A9
:10070000416821F003014160416841F0020141600C
:100710004168C1F381010229FAD10CBD00910CBDE1
:1007200000100240002002400F4810B5016841F05F
:100730000101016041680D4A1140416001680C4AA5
:1007400011400160016821F480210160416821F4B9
:10075000FE0141604FF41F018160FFF791FF0549E1
:100760004FF00060086010BD001002400000FFF86C
:10077000FFFFF6FE08ED00E00029818902D041F478
:10078000005101E021F400518181704702460020B0
:1007900012880A4200D001207047000030B504469C
:1007A000008A85B00D464CF6FF710840E988014388
:1007B0002182A1894EF6F3100140A8882A891043AE
:1007C0006A890A431043A081A08A4FF6FF4108407E
:1007D000A9890143A1826846FFF70AFF19488442AC
:1007E00001D1039800E00298A189090400EBC0013F
:1007F00001EB0010296801D5490000E08900B0FB39
:10080000F1F06422B0FBF2F109010B096FF0180559
:100810006B4300EB8300A3891D044FF0320306D520
:1008200003EBC000B0FBF2F000F0070005E003EBC3
:100830000010B0FBF2F000F00F000843208105B07B
:1008400030BD0000003801400FB47FB505460AAC4A
:100850000FE05C2914D002F10102252909921DD074
:10086000284600F04BF840212846FFF78FFF00286C
:10087000F9D0099A11780029EBD17FBC5DF814FBFF
:10088000521C099210786E2803D072280BD10D21CA
:1008900000E00A21284600F031F816E010786428BC
:1008A00017D0732802D0521C0992DCE740CC09E033
:1008B000284600F023F840212846FFF767FF00286C
:1008C000F9D0761C31780029F2D10998401C0990A2
:1008D000C9E701CC0A22694600F062F86E4609E0D9
:1008E000284600F00BF840212846FFF74FFF00286C
:1008F000F9D0761C31780029F2D1E6E7C1F308017E
:100900008180704710B5012186B08803FFF74AFE49
:100910004FF40070ADF8100003208DF8120018207D
:10092000154C8DF8130004A92046FFF7D3FD2015C0
:10093000ADF8100004208DF8130004A92046FFF73D
:10094000C9FD4FF4E13000900020ADF80400ADF88F
:100950000600ADF80800ADF80C000C20074CADF80F
:100960000A0069462046FFF719FF01212046FFF7DC
:1009700003FF06B010BD0000000801400038014030
:1009800002E008C8121F08C1002AFAD17047704758
:10099000002001E001C1121F002AFBD170470000B6
:1009A000F0B500260B4635460A2A02D00D701846CF
:1009B000F0BD00281FD006DA4FF02D021A7001F1A9
:1009C0000103C0F1000042F210744FF00A0700BFAB
:1009D00090FBF4F252EA060C06D002F1300603F85E
:1009E000016B02FB1400012694FBF7F4002CEFDCF2
:1009F0001D700846F0BD302018704B1CF8E7000051
:100A0000FFF7DCFDFFF77EFFFFF7CAFB1E4C10A1CE
:100A10002046FFF719FFA0461C4E01271C4C00255D
:100A20006068411C6160B04202D36560277002E0DB
:100A300020780028F4D02570608840F2393148438E
:100A40006288830A13A14046FFF7FEFEE8E7000034
:100A50000D0A20555341525431207072696E742032
:100A600041445F76616C7565202D2D2D2D2D2D2D2A
:100A70002D2D2D2D2D2D2D2D2D2D2D2D2D2D2D2DA6
:100A80002D2D2D200D0A000000380140A0BB0D00C7
:100A9000000000205468652063757272656E7420D2
:100AA00041442076616C7565203D202564202C2012
:100AB000617320766F6C74616765203D202564202A
:100AC0006D560D0A00000000E80A00080000002032
:100AD0001C00000080090008040B00081C00002016
:100AE000040400009009000800000000000000005D
:100AF00002040608000000000102030401020304CE
:040B000006070809D3
:0400000508000131BD
:00000001FF
