:020000040800F2
:1000000000040020470100085501000857010008BE
:10001000590100085B0100085D01000800000000B4
:100020000000000000000000000000005F01000868
:10003000610100080000000063010008650100087C
:1000400067010008670100086701000867010008F0
:1000500067010008670100086701000867010008E0
:1000600067010008670100086701000867010008D0
:1000700067010008670100086701000867010008C0
:1000800067010008670100086701000867010008B0
:1000900067010008670100086701000867010008A0
:1000A0006701000867010008670100086701000890
:1000B0006701000867010008670100086701000880
:1000C0006701000867010008670100086701000870
:1000D0006701000867010008670100086701000860
:1000E0006701000867010008670100086701000850
:1000F0006701000867010008670100086701000840
:10010000670100086701000867010008670100082F
:10011000670100086701000867010008670100081F
:10012000670100086701000867010008670100080F
:10013000DFF80CD000F01EF800480047050C00085E
:1001400008020020704708488047084981F3088862
:1001500007480047FEE7FEE7FEE7FEE7FEE7FEE7AB
:10016000FEE7FEE7FEE7FEE7450100080802002083
:1001700031010008064C074D06E0E06840F001033D
:1001800094E8070098471034AC42F6D3FFF7D4FF49
:100190008CED0508ACED050801B5009801E0401EA6
:1001A00000900028FBD108BD2DE9F043012197B054
:1001B000080200F025FB01217C2000F02DFB4FF40C
:1001C0000055ADF854500326DFF8BC908DF856600A
:1001D00010248DF8574015A9484600F0CBF8DFF8F9
:1001E000AC800227ADF8547015A9404600F0C2F863
:1001F0004CF23370ADF854008DF8566018208DF82D
:10020000570015A9484600F0B5F84FF68070ADF8D4
:10021000540015A9404600F0ADF88020ADF8540018
:1002200015A9484600F0A6F8E001ADF8540015A95C
:10023000484600F09FF82946484600F0EEF80020B6
:100240000521CDE90F01119021061290CDE913018E
:1002500001AA0821009082E8130004900590490249
:100260000690CDE9070109900A900B900EA80C901A
:10027000CDE90D07684600F01BF80121002000F0D1
:1002800007F817B0BDE8F0830014014000180140E2
:100290008000A0F1C0400029016802D041F00101B6
:1002A00001E0024A1140016070470000FEFF0F00AC
:1002B00010B5D0E901121143D0E903231A431143C9
:1002C0004269114382691143C2691143026A1143B1
:1002D000426A1143826A1143C26A11430268920062
:1002E000A2F1C04211608168082907D10168890024
:1002F000A1F1C0410A6842F040020A60016BD1E9F5
:10030000002342EA03128B688C891B0243EA0443F0
:100310001A430B8A42EA03520B7D896942EA03625F
:100320000A4301688900A1F1C0414A60816AB1F5C0
:10033000804F08D000686FF070418000A0F1C0408D
:10034000C0F8041110BD416BD1E9002342EA031249
:100350008B680C8A1B0243EA04531A430B7D89699C
:1003600042EA036200680A438000A0F1C040C0F87E
:10037000042110BDF0B5CA78002502F00F03D206A3
:1003800001D58A7813430A784FF00F0E12F0FF0F51
:100390004FF001021CD004680F8802FA05F63740BE
:1003A000B74211D14FEA850C0EFA0CF724EA070781
:1003B00003FA0CF43C43CF78282F02D0482F02D008
:1003C00002E0466100E006616D1C082DE4D3046084
:1003D0000C88FF2C1ED944685FF0000606F1080760
:1003E00002FA07F50F882F40AF420FD14FEA860C73
:1003F0000EFA0CF7BC4303FA0CF73C43CF78282FD6
:1004000000D14561CF78482F00D10561761C082EB8
:10041000E4D34460F0BD4161704701617047000062
:100420002DE9F041924C02212046FFF7F4FF914D57
:100430002846FFF7B1FE02212046FFF7EEFF2846CF
:10044000FFF7AAFE43F2080140F2027000F022F921
:10045000362140F2057000F01DF941F2132140F2FF
:100460000B7000F017F9A3151946012000F012F9DE
:100470001946022000F00EF941F23001032000F08D
:1004800009F940F202252946082000F003F900216D
:10049000092000F0FFF800210A2000F0FBF80021FD
:1004A0000C2000F0F7F800210D2000F0F3F80021F7
:1004B0000F2000F0EFF80021184600F0EBF84FF4A1
:1004C00081740021204600F0E5F8671C00213846C1
:1004D00000F0E0F840F25720401EFDD141F29011AB
:1004E000184600F0D7F840F201160521304600F01A
:1004F000D1F840F256231846401EFDD14FF4DC716E
:10050000204600F0C7F81846401EFDD14FF4585160
:10051000384600F0BFF8012140F2812000F0BAF81F
:100520005B1EFDD100214FF4007000F0B3F80021F4
:1005300040F2012000F0AEF831464FF4407000F078
:10054000A9F840F2065140F2013000F0A3F840F261
:10055000054140F2023000F09DF8072140F20530DD
:1005600000F098F8082140F2063000F093F840F2CD
:10057000032140F2073000F08DF821464FF442701D
:1005800000F088F840F2067140F2093000F082F87D
:100590004FF4E0614FF4437000F07CF8082140F222
:1005A0000D3000F077F800214FF4047000F072F87D
:1005B000EF2140F2112000F06DF8002140F21220EE
:1005C00000F068F840F28F1140F2132000F062F85A
:1005D0004FF444514FF4806000F05CF8012140F288
:1005E000014000F057F8002140F2044000F052F8BA
:1005F00000214FF4A06000F04DF8002140F20150BE
:1006000000F048F8002140F2025000F043F80021C9
:1006100040F2035000F03EF8002140F2045000F098
:1006200039F8002140F2055000F034F81021084656
:1006300000F030F84FF4C061112000F02BF80221D7
:10064000202000F027F840F27311072000F022F874
:100650004FF0C0400580084A08494FF6FF701080EF
:100660005B1C8B42FBD3064900200860BDE8F0818B
:1006700000180140FFAF0100000002600077010098
:100680000000002002480188008800F054B90000F2
:10069000000002604FF0C0421080014801807047A6
:1006A000000002602DE9FE4300224F4B1146104628
:1006B00000F04AF94D4C2046FFF76EFD00214C4BEF
:1006C0000122084600F040F92046FFF765FD4A4C3C
:1006D000012248492088029180B2CDE90002002120
:1006E00020234FF48C72084600F0B0F9206842F2E3
:1006F0001076B0FBF6F000F08FFA2188002589B261
:10070000CDE900150290202318221E21322000F08E
:100710009DF920684FF47A77B0FBF6F106FB1100E3
:10072000B0FBF7F000F078FA2188029089B2CDE9A9
:100730000015202318221E214A2000F087F9206886
:100740004FF06408B0FBF6F106FB1100B0FBF7F1C7
:1007500007FB1101B1FBF8F000F05EFA218802906E
:1007600089B2CDE90015202318221E21622000F055
:100770006DF92068B0FBF6F106FB1100B0FBF7F154
:1007800007FB1101B1FBF8F208FB12100A26B0FBBF
:10079000F6F000F041FA2188029089B2CDE9001507
:1007A000202318221E217A2000F050F92068B0FB87
:1007B000F6F106FB110000F02FFA2188029089B2B1
:1007C000CDE90015202318221E21922000F03EF9C9
:1007D0002068401C2060B0F5803F00D32560BDE854
:1007E000FE430648FFF7D8BC7C0C0008FFFFAF01B2
:1007F000A402030844FE020800000020FFFFAF002F
:10080000044A0029516901D0014300E0814351614C
:100810007047000000100240044A0029916901D08D
:10082000014300E0814391617047000000100240E5
:100830000CB50021264801910091026842F48032F3
:1008400002604FF4A063026802F400320092019A41
:10085000521C0192009A12B9019A9A42F3D102688D
:10086000920333D5012100911A490A6842F010021F
:100870000A600A6822F003020A600A6842F0020273
:100880000A604168416041684160416841F48061AB
:100890004160416821F47C114160416841F4E811F4
:1008A0004160016841F08071016001688901FCD5F7
:1008B000416821F003014160416841F0020141605B
:1008C0004168C1F381010229FAD10CBD00910CBD30
:1008D00000100240002002400C48016841F0010174
:1008E000016041680A4A114041600168094A1140AB
:1008F0000160016821F480210160416821F4FE015A
:1009000041604FF41F018160FFF792BF0010024069
:100910000000FFF8FFFFF6FE02E008C8121F08C142
:10092000002AFAD170477047002001E001C1121F70
:10093000002AFBD17047C0F34511C20AC00200EB88
:100940004110104480B270472DE9F04F88460546AB
:100950009E78D9784FF0FF3000EB062631448FB2F5
:100960001E79597900EB06200844082486B24FF41A
:10097000047940F2112A40F2122B12B1012A1ED042
:1009800044E041F230010320FFF784FE2946484647
:10099000FFF780FEE9195046FFF77CFE41465846B6
:1009A000FFF778FE08EB060140F21320FFF772FE16
:1009B00029464FF40070FFF76DFE414622E041F2F8
:1009C00018010320FFF766FE41464846FFF762FE26
:1009D00008EB06015046FFF75DFE7819A0F28F1074
:1009E00041425846FFF756FEA5F28F1569420D4663
:1009F00040F21320FFF74EFE41464FF40070FFF720
:100A000049FE294640F20120FFF744FE4FF0C04165
:100A100040F202200880D87899781A7900EB0120FA
:100A20005979400001EB02214843074A083006E0AB
:100A300019191D5D497801EB05211180A41C844220
:100A4000F6D3BDE8F08F0000000002602DE9FF4FF3
:100A500082B08346DDE90F100024DDF844A0914602
:100A60002746254602283CD003283DD00BEB09023F
:100A70000192039A89B2D61809FB03F8009178B362
:100A800001287CD141F218010320FFF703FE4FF447
:100A900004700399FFF7FEFD711E40F21120FFF76D
:100AA000F9FD0198C0F5C87140F21220FFF7F2FD80
:100AB000ABF28F1041420B4640F21320FFF7EAFDE4
:100AC0004FF400700399FFF7E5FD194640F201204D
:100AD000FFF7E0FD4FF0C04140F2022008808CE0BB
:100AE0000AE041F2100101E041F2280106B00320C2
:100AF000BDE8F04FFFF7CEBD41F230010320FFF714
:100B0000C9FD59464FF40470FFF7C4FD019940F246
:100B10001120491EFFF7BEFD40F212200399FFF796
:100B2000B9FD711E40F21320FFF7B4FD59464FF492
:100B30000070FFF7AFFD40F201200399FFF7AAFD17
:100B40004FF0C04140F20220088027E01AF8013B34
:100B50000026180601D5009814E00BEB04014FF4B1
:100B60000070FFF797FD0398C11940F20120FFF7CD
:100B700091FD4FF0C04140F20220088000E00FE0FC
:100B8000FFF780FD1E4908805B00641C4C4501D3C3
:100B900000247F1C6D1C761C082EDAD34545D5D366
:100BA00006B0BDE8F08F00BF1AF8013B002618061A
:100BB00001D5009815E00398C1194FF40070FFF7B4
:100BC00069FD0BEB0400A0F28F10414240F20120BE
:100BD000FFF760FD4FF0C04140F202200880FFF7B0
:100BE00051FD074908805B00641C4C4501D300247B
:100BF0007F1C6D1C761C082ED9D34545D4D3CFE776
:100C000000000260FFF768FEFFF7CEFAFFF708FC6E
:100C1000FFF748FDFCE700000A2818D2DFE800F0E3
:100C2000170507090B0D0F1113150A4870470A48DD
:100C300070470A4870470A4870470A4870470A4890
:100C400070470A4870470A4870470A4870470A4880
:100C500070470000E4FA020844FB0208A4FB020803
:100C600004FC020864FC0208C4FC020824FD02081B
:100C700084FD0208E4FD020884FA0208101000F066
:100C80000190011B112B092A092A112B112B112B61
:100C9000092A112B114B114B112B112B112B112B3D
:100CA000112B114B114B112B112B112B114B112B04
:100CB000092A112B112B112B112A112B112B112A5F
:100CC000112A114B112A114A110A112B114B196BC0
:100CD000112A112A114B112B114A1949196A218A1B
:100CE000194A114A112B092A112A194A19491108BE
:100CF0001128194919491149114B114B114B114B2D
:100D0000114B114B114B114B114B114B114B114B03
:100D1000112B114B194A218B1969114921CB21CC77
:100D2000198B196B21CC29CC2A0D320D29ED29ED17
:100D30002A0D3A8F3A6E4AF053105B5163926BF36F
:100D40006BF363F36BD36BD363D36BF363D3535105
:100D50004B103AAF3A6F2A2E2A0D21CC21ED29EE05
:100D60002A2E2A0D21CD19AC196C19AC21CC198B66
:100D7000198C19AC19AC19AC19AD21AD21CD19AC38
:100D8000196C198C19AC198C19AC198C198C114B64
:100D9000114B114B094B094B114B092B114B114BAB
:100DA000112B112B092A092A112B092A114B092A67
:100DB000094B094B112B112A114B114A112A092AEF
:100DC000094B112B112B112B112B112B092B112B33
:100DD000114B092A114B092A092A092A112B112B17
:100DE000112B092B114B092B092B092B092B092B33
:100DF000092B092B094B094B092B094B092B092BF3
:100E0000094B092B094B094B094B094B092B092BA2
:100E1000094B092B094B094B094B092B092B092BB2
:100E2000092B092B092B092B092B092B094B094BE2
:100E3000094B092B094B092B092B092B092B092BD2
:100E4000092B092B092B092B094B092B092B094BC2
:100E5000092B092B092B092B092B092B092B092BF2
:100E6000092B094B112B092B092B092B114B114B6A
:100E7000112B114B114B112B112B112B112B112B52
:100E8000092A092A092B092B092B092B112B112BB4
:100E9000112B112B114B092A112B092A112B112A65
:100EA000114B114B114B092A112B114B112A114ACD
:100EB000112A114A112B112B196A1129196A218B38
:100EC000114A112A112A114B112A196B1949192992
:100ED000218A1949196A1129114A114B114B114BD9
:100EE000116B114B114B114B114B114B116B116BC2
:100EF000114B194A194A29CB218A21AA29EC198BAD
:100F0000196B196B29ED2A0D320D320D21AB21AC75
:100F100029ED428F4AF0531153105B716BF3743417
:100F2000745574346BF363D363D363B35BB24B31E7
:100F3000326E2A2D324E324E2A2E2A2E2A2E322E52
:100F40002A2E21ED21CD21AC19AC21CD19AC198C63
:100F500019AC19AC21CD19AD198C198C21AD19AC76
:100F6000198C198C198C198C21AD196C116C114BC1
:100F7000114B114B114B094B114B112B114B114BB9
:100F8000114B114B112B112B114B112B114B092B09
:100F9000092B092B092B114B112A114A112A114B2C
:100FA000092B094B114B112B114B114B112B112BF1
:100FB000112B092A112B092A092B112B114B092B53
:100FC000092B114B092B092B114B112B092B094B09
:100FD000092B092B094B094B092B094B094B092BF1
:100FE000094B094B094B094B094B094B094B094B61
:100FF000094B114B094B092B094B094B092B094B89
:10100000094B092B092B092B094B094B094B092BC0
:10101000092B094B094B094B094B092B092B094B90
:10102000092B094B094B092B092B094B094B094B80
:10103000094B092B094B094B092B092B094B092B90
:10104000092B092B092B112B092B092B092B112BF0
:10105000114B112B114B112B112B114B112B112B50
:10106000112B112B112B112B114B112B112B112B80
:10107000114B112B112B114B112B112B114B112B30
:10108000114B114B112B092A112B114A112A116AEC
:101090001129114A114B112B196A114A114A114A8F
:1010A0001109112A114B114B114A196A1128216992
:1010B00019481949194A114A114A114B114B114B40
:1010C000112B114B114B114B114B114B114A114A62
:1010D000196A194A1929192921AA29CB29AB194AB0
:1010E000196B218B21CC322E320D320D21AB21AC6C
:1010F00029CC3A6F4B1153525B7263B26C14743447
:1011000074557C5574146BF363B35B724B1042D00F
:10111000324E2A2E324E322E2A2D324E3A903A8FAD
:101120002A0D21ED2A0D21ED21ED19AC198C196C38
:10113000196C116B198C19AC196C116B116C198C21
:10114000198C198C196C198C19AC196C116C114B08
:10115000114B114B114B114B114B114B112B114BCF
:10116000092A092A114B114B092B112B112B112B79
:10117000112B092A092B114B112A114A112A114B43
:10118000094B094B094B094B112B112B112B114BFF
:10119000114B092B114B092B112B112B114B112B1F
:1011A000112B094B112B112B114B112B092B094B17
:1011B000094B094B094B094B094B094B094B092BAF
:1011C000114B092B094B092B092B094B094B094BD7
:1011D000094B094B092B092B094B094B094B094BAF
:1011E000094B094B094B092B092B092B094B092BDF
:1011F000092B094B092B092B094B094B092B092BEF
:10120000092B094B094B092B094B094B092B094B9E
:10121000094B092B094B094B092B092B092B094BAE
:10122000094B092B112B114B112B112B112B092BB6
:10123000112B114B114B114B112B112B112B114B4E
:10124000114B112B114B114B114B114B112B112B1E
:10125000114B114B112B112B114B114B114B112B0E
:10126000114B114B092B114B092A092A114A196AF2
:101270001129112A114B114B112A114A194A114AED
:10128000112A114B112B114B092A196A19281948D7
:1012900019071949192A114B114B114B114B114BBD
:1012A000114B114B114B114A112A112A198B196A32
:1012B000114A194A19091929298A218A320C196AED
:1012C000196A218B218B320C29CC29EC320C29CCC8
:1012D00029EC2A0D42D05351535263B27434743402
:1012E00074357C5574346BF463B34B104AD042AF01
:1012F000322E322E3A6F324E2A0D324E3A8F42B093
:10130000324E322E2A0D21ED19AC198C116C116B55
:10131000196C116B116B116B114B114B114B116B44
:10132000196C114B114B116C116B114B116C114B52
:10133000114B114B112B114B112B114B114B114B0D
:10134000112B114B094B094B112B112B112B114B4D
:10135000114B112A114B114B110A112A112A112A72
:10136000114B092B094B094B114B114B114B112BF5
:10137000112B114B112B092B114B094B092B114B25
:10138000094B092B114B114B114B114B092B094BDD
:10139000094B094B094B092B092B094B094B092B0D
:1013A000094B092B094B094B092B092B114B094BF5
:1013B000094B092B092B092B094B094B114B094BE5
:1013C000094B092B092B094B092B094B092B094BFD
:1013D000094B092B092B092B092B094B094B092B0D
:1013E000092B092B092B092B092B094B092B092B3D
:1013F000094B094B092B092B092B094B092B092BED
:10140000094B092B092B114B114B112B092B114B9C
:10141000114B114B114B114B114B112B114B114B0C
:10142000112B114B114B114B114B114B112B112B3C
:10143000114B114B114B092B114B112B114B112B34
:10144000112B114B112B114B112A114A1129196A19
:10145000196A194A114B114B112B114A11491129C3
:10146000112A114B114B092A196B114A19491107FD
:1014700021891949192A114A114B114B114B114B52
:10148000114B114B198B194A192929EB216A19495A
:1014900011291949192919492189216929CB216A59
:1014A00029EC194A1949426D31EB3A4C3A0C29CBD7
:1014B00029EC3A4E42D0535253525B7263D36C14B0
:1014C0006C1474346BF363B35B7253514B1142B0C1
:1014D000324E322E3A6F3A8F322E29ED324F42B0D1
:1014E00042B03A6F2A0E21CD198B19AC19AC198C68
:1014F00019AC198C198C198C114C114B116B118B67
:10150000116C114B114B114B112B114B116B114BDA
:10151000114B114B114B114B092B114B094B094B23
:10152000094B094B094B094B094B112B112B114B43
:10153000114B112A112B114A194A196B112A112A20
:10154000114B112B112A112A092B092B112B112BAD
:10155000114B114B112B112B114B112B114B114B0B
:10156000092B094B094B094B094B114B114B114BE3
:10157000114B094B114B094B094B114B114B094BAB
:10158000094B114B094B094B094B094B094B094BB3
:10159000094B094B114B094B094B094B092B094BC3
:1015A000094B114B094B092B094B094B094B094BB3
:1015B000094B094B094B094B092B094B094B092BCB
:1015C000094B094B094B094B094B094B094B094B7B
:1015D000094B094B094B094B094B114B114B094B5B
:1015E000092B092B112B114B114B114B112B114BAB
:1015F000114B112B112B114B112B112B114B114B8B
:10160000112B114B112B114B114B112B114B112B7A
:10161000112B114B114B114B112B112B114B114B4A
:10162000092B112B114B114B112A196A194A110957
:1016300019291929114A114B114B114B112908E88D
:10164000194A1109112A114B114B196B194921899A
:10165000192719081129196A114A114A114B114BFE
:10166000116B114B194A19291929216A216A196A22
:10167000194A11082169298A218921682169218A49
:10168000322C29CB31EB3A2C31CA31CA31CB31EB78
:10169000320D326E42B05332533153115B726BF3E1
:1016A0006BD36BF363D35B925B725B5253524B1100
:1016B0003A8F2A0D324E3A8F324E29ED2A2E3A6F4A
:1016C0003A90324F2A0E21CC198C19AC19AC19ACB6
:1016D000198C198C116B114B114B114B116B116B38
:1016E000116C114B114B114B114B114B114B114BF9
:1016F000114B114B114B114B112B114B114B114B2A
:10170000094B094B094B094B094B114B112A114B42
:10171000114B112A112B112A194A196A114A114A1F
:10172000112B092A21AC116B112B114B112B114BD1
:10173000112A114B112B114B092B114B114B114B32
:10174000092B094B092B114B094B114B094B094B29
:10175000094B094B114B114B094B094B094B094BD9
:10176000094B114B094B092B094B114B092B094B09
:10177000094B114B094B094B114B114B094B094BB1
:10178000094B094B094B092B092B094B094B094BF9
:10179000114B094B094B092B094B094B094B092BE1
:1017A000092B094B094B092B094B094B094B094BD9
:1017B000092B094B094B092B094B094B094B094BC9
:1017C000092B094B112B114B114B112B114B114BA9
:1017D000112B112B112B112B092B112B114B114BF1
:1017E000112B112B112B114B112B114B114B114B99
:1017F000114B114B112B114B114B114B114B114B29
:10180000114B114B114B092A116B112A218B110815
:1018100010E81929114A114A114B114A194A08E8CE
:10182000194921AB1149116A112A114A194919287C
:1018300018E719071108216A1129114A114A196B71
:10184000114B114B218B11081908192929AB194A81
:10185000216A1949110831EB2169218921692189FE
:101860003A2C320C322C218929AA190829AB320DC5
:10187000322E322E3A8F3A8F3AAF4B1053525B7260
:1018800063B353315B925B725B725B925B725351D9
:101890004AD03A6E428F3A8F326E29ED324E324F35
:1018A000324E324E21CD21AC196B196B198C196C4B
:1018B000116B114B114B114B114B114B114B116B08
:1018C000116B114B112B114B116B114B114B114B18
:1018D000114B114B114B114B114B114B114B094B30
:1018E000094B092B114B094B114B114B114B114B50
:1018F000114B112A114B114B112A114A114A114B4C
:10190000114B092A21AC196B114B112B114B090AF0
:10191000116B114B112B114B094B114B094B114BF7
:10192000094B094B094B094B094B094B092B114B2F
:10193000094B094B114B114B114B094B092B094B0F
:10194000094B094B094B092B094B092B114B094B2F
:10195000094B114B094B092B114B094B094B094BF7
:10196000094B094B094B094B094B114B094B094BCF
:10197000094B094B094B094B094B094B094B094BC7
:10198000094B094B094B094B094B094B092B094BD7
:10199000094B094B094B094B094B092B094B094BC7
:1019A000094B094B112B114B114B114B114B092AB0
:1019B000114B114B114B114B114B114B114B114B47
:1019C000114B114B114B114B112B114B112B112B97
:1019D000114B114B114B114B114B114B114B114B27
:1019E000114B114B112B114B114A112A196A19294C
:1019F0001108194919491129114A194A196919482F
:101A00001949110819491149114A194A194919085E
:101A100010C6214819281108194A114A194A194BA8
:101A2000112A114A194A194910E81949196A218BD2
:101A3000216A194921692149194929AA31EA39EA52
:101A40004A6D31CA322B21691948218A29CB218B51
:101A500029CC21CC322E322E2A2D3A8F4AF14B310D
:101A600053524AF05351531153315B725B725B72A4
:101A700053314AF0533242AF324E2A0D324E322E9B
:101A8000322E322E21CC198C116B114B116B196B2C
:101A9000116B114B114B116B114B114B114B116B06
:101AA000114B114B114B112B196B196B114B114B26
:101AB000114B112B114B114B114B114B094B094B76
:101AC000114B114B114B114B114B114B114B114B36
:101AD000114A112A112B112B112A114A116B114B8A
:101AE000092B114B112A0909112A114B112A112B0B
:101AF000116B114B114B114B094B094B116B114BD6
:101B0000092B094B094B094B094B094B094B094B55
:101B1000114B114B114B094B114B094B094B114BFD
:101B2000114B094B094B094B094B094B092B094B2D
:101B3000114B114B114B114B094B094B114B114BD5
:101B4000094B094B114B114B094B092B114B094BFD
:101B5000094B094B114B114B092B094B094B094BF5
:101B6000114B094B094B094B094B114B092B094BE5
:101B7000114B114B094B114B094B094B094B092BCD
:101B8000092B094B114B114B114B114B114B114BA5
:101B9000114B114B114B114B114B114B114B114B65
:101BA000114B114B114B114B114B114B114B114B55
:101BB000114B114B114B114B114B114B114B114B45
:101BC000112B114B112B114B112A194B19491928A3
:101BD00010E7214919491949216A1129218A2169E6
:101BE00010C719291949196A112A110929AB218924
:101BF0001907192719281109196B198B196B112A43
:101C0000194B196B114A29CB08E719281129194AD0
:101C1000216A216A21691928196929AA39EA420A1F
:101C2000424C29AA29EB29CB190829CB21AB114A0F
:101C3000218B198B29CC21AC21CC324E324E326E05
:101C400042D042D04B1142F04AF0533153515B72B3
:101C50005B725351535242D0324E2A0D2A0D29ED58
:101C60002A0E21CD21AC198C116B114B196B116B04
:101C7000116C114B114B116B114B114B114B116B23
:101C8000114B114B114B114B114B114B114B114B74
:101C9000114B114B114B114B114B114B114B094B6C
:101CA000116B116B094B114B114B114B116B114BFC
:101CB000114B112A114B196B1129194A112A114B79
:101CC000114B114B112A196B198C092A114B114B0D
:101CD000112A114B114B114B094B114C094B114B54
:101CE000092B094B094B114B114B094B116B114B34
:101CF000114B114B114B094B114B114B114B114B0C
:101D0000114B114B114B114B114B094B114B094B03
:101D1000094B094B094B114B094B094B094B094B1B
:101D2000094B094B114B114B094B114B114B094BF3
:101D3000094B094B094B094B114B114B114B094BEB
:101D4000094B114B114B114B094B094B094B114BD3
:101D5000094B094B094B094B094B094B114B094BDB
:101D6000094B094B114B114B114B114B114B114BA3
:101D7000114B114B114B114B114B114B114B114B83
:101D8000114B114B114B114B114B114B114B114B73
:101D9000114B114B114B114B114B114B114B114B63
:101DA000114B112B112B114B114B196A1929196960
:101DB000214910E719281949194A19492169214867
:101DC00019081928216A196A112A192A218A214811
:101DD00029A910E71108196B114B114B114A194A27
:101DE000112A194A196A196A1949218A1129194AA5
:101DF000194A216A1929190829EB29AA29682947AA
:101E00004A8D29A9320B19482149216921AB216A40
:101E1000194A196A218B218C21CD2A2E2A0D2A0DCF
:101E20003A8F42B042B03AAF42D04AF04AF0533112
:101E300053314B114AF042AF3A8F2A0D2A0D21CC73
:101E400021ED21CD198C198C196B114A116B116B75
:101E5000198C116B114B198C114B114B114B116BD0
:101E6000114B196B196B194B114A114B116B114B1B
:101E7000114B114B114B114B116B116B116B116B02
:101E8000094B114B114B114B114B114B094B094B8A
:101E9000114B112B11093A4E11291109114A112B1D
:101EA000112B114B196B112A114A114B114A194B65
:101EB000112A114A112A114A114B092B114B114BAE
:101EC000114C114C114B094B114B114B114B094B40
:101ED000094B094B114B094B114B114B114B114B3A
:101EE000094B094B114B114B094B114B114B094B32
:101EF000094B094B094B094B114B114B114B114B22
:101F0000114B114B114B094B114B114B114B114BF9
:101F1000116B094B094B094B094B114B114B094BE9
:101F2000094B094B114B094B094B094B094B094B09
:101F3000094B094B094B114B114B094B094B094BF1
:101F4000094B094B114B114B114B114B114B114BC1
:101F5000114B114B114B114B114B114B114B114BA1
:101F6000114B114B112B114B114B114B114B114BB1
:101F7000114B114B114B114B114B114B114B114B81
:101F8000114B114B114B114B114A112911291949B0
:101F9000110710C7194919491108196A218A1948E6
:101FA00010E71948194929EC194A192921692147CB
:101FB0003A0A11071129194B116B116A1109194AB3
:101FC000192A194A194A1949218A21AA1108196A94
:101FD00010E8194929AA10C6298929AA2988296837
:101FE0003A0B218931EA21892168214831EC29AB5A
:101FF00029AB21AA21AB218B21CC2A0D21CC21CDCB
:10200000322E3A6F324E324E3A8F3A8F3AAF4AF111
:1020100042F042F03A8F3A6E3A8F324F2A0E19ACA4
:102020002A0D21CD21AC114A198B194A196B114A7D
:10203000116B114B114B198B198C114B116B114BEF
:10204000114B198B196B196B114A112B114B114B39
:10205000114B114B114C094B114C094B114B114BAE
:10206000114B116B094B114B114B114B114B114B78
:10207000094B112B112929AB194A1109112A112BCE
:10208000114B112B198B194A112A112A218B194A2C
:10209000112A114A21AB1149112B114B114B116B14
:1020A000094B116B114B114B114B114B114B114B38
:1020B000114B114B094B114B094B114B094B114B58
:1020C000094B114B094B114B094B114B114B114B48
:1020D000094B094B114B094B114B114B094B114B40
:1020E000094B094B094B094B094B114B094B094B48
:1020F000116B094B094B094B094B094B114B094B10
:10210000094B114B094B094B094B114B114B114B0F
:10211000094B094B094B114B094B092B092B094B57
:10212000094B092B114B114B114B114B114B114BFF
:10213000114B114B114B114B114B114B114B114BBF
:10214000114B114B114B114B114B114B114B114BAF
:10215000114B114B114B114B114B114B114B114B9F
:10216000114B114B114B112B114B112A11081969ED
:10217000194911081128194919291108218A11072B
:1021800011071948192911291149194931CA3A0A5F
:102190003A2B10E7194A114B114A116A1109218B88
:1021A00008E819291949194919491128218A196971
:1021B000192919692169216921483A0B31CA216815
:1021C000298929A929CA216821272148296A3A0C85
:1021D00029AA196929AB21AC19AB198B21AC21EDC6
:1021E0002A0E324F322E324F324E324E3A8F42B09A
:1021F0003A8F3A6F3A8F322D2A0D322E322E21AC81
:10220000218C218C196B114A196A1129114B196BF8
:10221000114B196B116B114A194A114A114A116B72
:10222000196B114A218A196A112A116B112B114B52
:10223000114B114B114B094B114C094B114B114BCD
:10224000116B116B094B114B114B114B114B094B7E
:10225000114B114B194A1929218A0909112A114BCD
:10226000114B114B198B218B194A194A196A1129E3
:10227000114B196B322C1128114B094B116B116B3F
:10228000094B094B094B114B094B094B094B114B9E
:10229000114B114B114B114B114B114B114B094B66
:1022A000094B114B114B114B114B094B094B114B66
:1022B000114B114B114B094B114B094B094B114B56
:1022C000094B094B114B114B114B116B094B116B06
:1022D000116B116B094B116B116B116B114B094B8E
:1022E000094B114B116B114B114B114B114B114BF6
:1022F000094B094B094B094B094B094B092B114B56
:10230000092B092B114B114B114B114B114B114B3D
:10231000114B114B114B114B114B114B114B114BDD
:10232000114B114B114B114B114B114B114B114BCD
:10233000114B114B114B114B114B114B114B114BBD
:10234000116B114B114B114B114B114A09091149DA
:102350001949112908C721491928110810E72148EE
:102360001107192829AA29AB19292169190829CA8D
:102370002148218A192A194B110A198B112911296F
:10238000196A196A1949196A19491929218A216989
:10239000194921692989216931EB2189320B3A4C8C
:1023A00029A9298929A929A9216729882989216990
:1023B00029AA21AA29AB21AB29EC198B21AC19AC94
:1023C00021CD322E324F324F2A0D2A0D326F324F2D
:1023D000324F322F320E3A6E21CC2A0D29CD29ED03
:1023E000196B198B194B116B114A114A116B114C56
:1023F000114B114B196B196B1129194A196B196A79
:10240000196A216A218A31EC194A112A116B114B80
:10241000112B114B114B114C114C114C114B114CF8
:10242000114B094B116B114B114B114B114B114BB4
:10243000114B114B114A1929216A196A114A114B82
:10244000092B114B194A218A1929216A1129112AAC
:10245000194B114A21AB1129112B116C116B094B2E
:10246000116B116B114B114B114B116B114B114B2C
:10247000116B114B094B094B114B114B114B114B6C
:10248000116B094B114C114C114B114B114C094B59
:10249000114B114C092B114B114B094B114B114B8B
:1024A000092B094B094B114B094B092B114C094BBB
:1024B000092B114B094B094B094B094B094B114B8C
:1024C000114B114C114B094B094B094B094B116B2B
:1024D000114C114B114C114B094B114B092B114B4A
:1024E000094B114B114B114B114B114B114B114B14
:1024F000114B114B114B114B114B114B114B114BFC
:10250000114B114B114B114B114B114B114B114BEB
:10251000114B114B114B114B114B114B114B114BDB
:10252000114B114B114B114B114B196B090911092F
:1025300011291929216921691928214819072168B8
:1025400010E6194829AA29AB21692149192810E761
:1025500010C6298A194A194B194A196B194A1129A7
:10256000196A11291108196A218A1128218A29AAB0
:10257000298931CA31A931CA29EB29EB29EB29A9CB
:102580002968298821472147214729A8214829AAC4
:102590001969218A218B29EC31ED198B196B198C62
:1025A00021CC2A0E21ED2A0E21ED2A0E2A2E2A2ECA
:1025B0002A2E21CD2A0D2A0D29EC2A0D21CC29ED18
:1025C000194A21AC218C194B194A112A114B114B74
:1025D000116B114B196B194919491949194A196A93
:1025E000194A110829AB1929192A196B196B114BB2
:1025F000114B114B114B114C094B114C114B114B01
:10260000114C114B114B114B114B114B114B092B11
:10261000094B114B194B194A11281969194A112AEA
:10262000114B114B194A29CB192919291949112A7A
:10263000114B114A29AB194A112B114C116B094B43
:10264000116B116B114B114B114B114B114B114B6A
:10265000114B114B114B114B094B116C114B114B81
:10266000114B114B114B114B114B114B114B114B8A
:10267000114B114C114C114C114B092B094B114BA7
:10268000094B114C114C114B114C114B114C114B6E
:10269000114B094B114C114B114C114C114C114C5D
:1026A000092B094B114B114B114B114B094B094B8A
:1026B000094B094B114B094B094B094B092B114B8A
:1026C000094B114B114B114B114B114B114B114B32
:1026D000114B114B114B114B114B114B114B114B1A
:1026E000114B114B114B114B114B114B114B114B0A
:1026F000114B114B114B114B114B114B114B114BFA
:10270000112B114B092A114A114A114B114A09097F
:10271000110819281928296831C9190629881907A3
:1027200010E619271108190821493A0C08A619487A
:10273000298810C61928196A194A114A194A192AEA
:102740001949194919691969218A1949192831EA58
:1027500029A9214739EA214829AA21AA320C298925
:1027600039EA318831E92168212718E7216929AB45
:1027700021AA218A196A21CC29CC196A198B198CB2
:1027800021AC29ED21CD19AC19AC21ED21ED21CDE4
:1027900021EE29ED21ED29ED218B324E198B21AC53
:1027A000114A194A218B218B194A1129196B116B76
:1027B000114B196B196A1929192929AA1929110804
:1027C00021492149192931CB19291149196B114B7B
:1027D000114B114B114B114B114B116B116B114BD9
:1027E000114C114C116C114B114B114B114B114BE6
:1027F000114B114B114B196A08C610E71929216BAF
:10280000114A114A1129218A298A1908192A194BB2
:10281000114A112A21AB196A114B112B114B116B63
:10282000094B114C114B116B114B114B114B114BAF
:10283000114B114B114B114B114B094B114B114BC0
:10284000114C114B114B114B114B094B094B114CB6
:10285000094B114B094B114B114C114B114B114CA6
:10286000094B094B114C114B114C114C114B114C94
:10287000114B094B114B114B114B114B114B094B88
:10288000092B094B114C114B114C114C094B094BA5
:10289000094B094B114B094B094B092B094B094BB0
:1028A000094B094B114B114B114B114B114B114B58
:1028B000114B114B114B114B114B114B114B114B38
:1028C000114B114B114B116B116B114B114B114BE8
:1028D000114B114B114B114B114B114B114B114B18
:1028E000196B114B114A0929114A112A196A114A07
:1028F000112908E719281927422A21262988214861
:1029000010E61907192810E7298A298A10E7110704
:1029100031C921481107194929CC196B216B196A52
:10292000192919491928218A218A29AA21691948AE
:10293000192719271906214831EC29AB322C320B03
:10294000422B29872967298831A92969216929CB3F
:1029500031EC218A196A21AB29AB1929196A198B23
:1029600029EC21CD198C21ED21ED2A2E2A0E198C6E
:1029700021CD21ED29ED21AC218B21AB218B198BB0
:10298000196A114A1109112911290909196B114BE9
:10299000196B112A218A1928190721491928218A16
:1029A00010E819291929216929CA1949114A114B15
:1029B000114B114B114B114B116B114B114B114B17
:1029C000114B114C114C094B114B114B114B114B2D
:1029D000114B114B114B194A194821681908194A12
:1029E000112A114A112921AB216A10E810E9194B6B
:1029F000194A196A218A194A194B112B112B114BAB
:102A0000094B094B114B114B094B114B114B114BFE
:102A1000114B114B114B114B114C114C114C114CD2
:102A2000114C114C114B114C114B114B114C114CC1
:102A3000114C114C094B094B114C114B094B114CCA
:102A4000114B094B114B114B114B114B114C114CAC
:102A5000114B114C114B114B114B114B114C094B9C
:102A6000094B114B114C094B094B094B094B114CAC
:102A7000114C094B114C114B114B094B114C114C82
:102A8000114C094B116C116C114B114B114B116B0B
:102A9000114B116B114B114B114B114B114B114B36
:102AA000114B114B114B116B116B114B114B114C05
:102AB000116B114B114B114B114B114B114B114B16
:102AC000114B112A112A114A218B194A194A198BC3
:102AD000196A1949218A10C610E6426C18E6216865
:102AE00021680064214821691929194919681107C9
:102AF0002169190710C731EC218B196A29CC1949B2
:102B000021491928194929AA29AA31EB218A29CA58
:102B1000214810C5212731CA298A218A3A4C320B13
:102B2000634F422B31A8212639C929682989218977
:102B300029AA2969218A1949216A216A196A29EC75
:102B400029EC29EC21CC324E3A6F3AB0326F19ACF5
:102B500019AC21EE322E218B196A21AB29EC114AD6
:102B6000196B114B114B196B112A1109114A196B71
:102B7000114B114A196A194921891948216929CB30
:102B80001949216A214931AA2148216921AA194AF2
:102B9000194A218C114B114B114B114B112B114B1D
:102BA000112B114B114B114B116B094B114B114B4D
:102BB000114B194B194B216B1968110719691949E8
:102BC000194A196B090929CB194911081109196BFF
:102BD000194A194A1129194A112A196B196B114AF4
:102BE000114B094B114C114C114B114B114B114C0A
:102BF000114B114B114B116B114C114C114B094BDB
:102C0000114B114C114B094B114B114B114C114CE9
:102C1000114C114C114C114C114C114C114C114CCC
:102C2000114C114C114C114C114C114B114B114CBE
:102C3000114B114C114C114B114C114C114C114CAE
:102C4000114C094B116C094B094B094B114C114CA0
:102C5000114C116C114C094B094B094B114C094B90
:102C6000116C094B114B116C116B116B114B114B0A
:102C7000114B114B114B114B114B114B114B114B74
:102C8000114C114C116B116B116B116B116C116BA1
:102C9000116C116B114B114B116B114B114B196BCB
:102CA000114B196B112A112A216B112A194A11296A
:102CB000194A1949218A216908C62148216810E664
:102CC000190610C6088519071928110808A6192819
:102CD000110710E7194919291129194A112908E77B
:102CE0001969218A110819493A4D31EB29CA29CAB3
:102CF0002989296821272147214929AA21693A2BB5
:102D000052EE298839C8294618A429681927192894
:102D1000216829A9218A21691929216A29AA218AD8
:102D20003A2D29CB2A0D324E322E2A0E21CD19AC46
:102D300019AC21AC29CC218B194929CB428E114ADF
:102D4000194B196B112A194A194A11291129196BA2
:102D5000112A194A21AB218A1928214831EB11087F
:102D6000216A298A2148192729892149216911289D
:102D7000194A29AC114B114B114B196C196C114BA1
:102D8000114B114B114B114B114B114B114B114B63
:102D9000196B194B112A10E821AA19681949196AE7
:102DA000192A194B114A110829AA21690908110980
:102DB000194A114A196A112A196B110921CC116B90
:102DC000114B114B114B114B116C114B114C116CE0
:102DD000116C114B114B116B114C114C114C114BCF
:102DE000114C114C114C114C114C114B094B114C05
:102DF000114C114C114C114C114C114C114C114CEB
:102E0000114C114C114C114C114C114C114C114BDB
:102E1000114B114C114B114C114C114C114B114CCD
:102E2000114B114C094B114C114C114C116C114CA4
:102E3000116C094B094B116C114C094B114C094B8E
:102E4000114C114C116B116C116C116C116B114BFD
:102E5000114B116C114B114B114B094B116B114B59
:102E6000116B114B116B114B116B114B116B116BE2
:102E7000116B116B114B114B116B114B116B116BD2
:102E8000114B114B194B194B114B112B194B11298C
:102E9000194A194921691928216929AA08A629A9C5
:102EA00029A91906086321471107112810E710E71F
:102EB0001928192829CB21AB114A196B114A11295C
:102EC0001129196A1129218A218A3A0C320B2168A9
:102ED0002168298819051905296829A929684A8DB1
:102EE0004ACD3A0A39C818E529891949196A196970
:102EF000216929A929CA21692989214931EB216937
:102F0000426D322C428E428F3A8F2A0D21AC21AC79
:102F100021AC21AC29AC196A218A29AA29EC29CC37
:102F2000192A216A218B192A216A1108192819499D
:102F300029AB216A216A2169190829CB214919087D
:102F400010E8296A31A931A92148298A1949194962
:102F50001929196B194A196B114B114B114B114B54
:102F6000114B114B116B196B196B114B114B114B11
:102F7000116B114B114A112A192911081128196ACC
:102F8000112B194B112911082168216911081129E8
:102F9000194A196B194A194A112A196B196B114BE5
:102FA000114B116C114B114B116B114B116B114BE0
:102FB000114B114B114B114B114B114C114C114C2E
:102FC000114C114C116C114C114C114C114B114CFA
:102FD000114C114C114C114C114C114C114C114C09
:102FE000116C114C114C114C114C114C114C114CD9
:102FF000114C114C114C114C114C114C114C114CE9
:10300000114C114C094B116C114C116C116C094B8A
:10301000114C094B094B116C114C094B094B094BD5
:10302000114C114C116B116B114B116B116C116B1D
:10303000116B116B116B116C116C114B116C114BED
:10304000116C116B116C116B114B116B116B116BBE
:10305000116C116C114B114B114B114B21AC198C94
:10306000114B194B194A218C112B114B114B194A39
:1030700029AB1908216919481948194831EB10E69C
:103080001107216739E931A719272169192808860D
:10309000192811281129114A196B196B196B21ABC9
:1030A00008E8218A320C21AA29CB08A621682988A0
:1030B0002968190608A43A09214731A93A0B31C9F0
:1030C0004A8C31E939E91906320B21AB21AC216A6E
:1030D00029AA2989214829A929AA29893A0B31EB4A
:1030E00029AA426D4AEF53304AD0320D322D320DAB
:1030F00029CC218B216A216A218A218A196A3A4DB9
:103100001929192929AB194929CB1928110708A60A
:10311000192821491928216929AA1908298A192950
:1031200010E818E721683A0A31CA214821491949AB
:103130001929114A196A196B196B114B112B116B53
:10314000116C116B114B194B194A196A21CC114A98
:10315000114B114B116A198A194A08C71108112914
:10316000112A194B11291107192721881127112814
:10317000196A112A114A114A112A114A198B198BFD
:10318000114B114B114B114B114B114B116B094B47
:10319000114B114B114B114B114C114C114C116C2B
:1031A000114C114C114C114B114C114C114C114C38
:1031B000114C114C114C114C114C114C114C114C27
:1031C000114C114C114C114C114C114C114C114C17
:1031D000114C114C114C114C114C114C114C114C07
:1031E000114C114C114C094B094B114C094B094B1B
:1031F000114C116C116C094B114C094B094B114CC2
:10320000114C094B116C116C114B116B116C116B42
:10321000116C116C116B116C116C114B116C114B09
:10322000116B116B116B116B114B114B116B116BFE
:10323000116C116C116C114B114B114B116B196B03
:10324000196A194A196A198B21AC112A112A194ACB
:1032500029AB10C729AA194821492148298A21697F
:1032600010C6088410A410A419062148190710E7F5
:10327000190719491108196A21AB29CC21AC218BF6
:10328000218A192931EC21491928298931C910A429
:103290002147296810E529882127296839EA31A8BA
:1032A00031E931A8214731CA2169196921AB218B44
:1032B000218A216929A93A0A39EB424C31C94AAD20
:1032C0003A0B4AAE5B3053104AAF53104AAF3A4DF7
:1032D00029AB1128218A320C1949110819693A2C95
:1032E00029892149298A216A29CB11072169214885
:1032F000110821AA21681107298A1908216A1108D1
:10330000192810E7192631C929A921681948216906
:103310001949194A216B196B194B114A112A116B62
:10332000114B116B114B114B194A114921AC114A28
:10333000114B196B112A196A29AA29891107112819
:10334000194A1949194808A529882167320B11071C
:103350001969194929EB1949112A194B114A114BBD
:10336000114B114B112B114B116B112B116C114B7C
:10337000114B114B114B116C114C114C094C114C50
:10338000114C116C114C114B116C114C114C114C16
:10339000114C114C114C114C116C116C114C116CE5
:1033A000116C114C114C114C114C114C114C114C15
:1033B000114C114C114C114C114C114C114C114C25
:1033C000114C114C114C116C116C114C114C116CB5
:1033D000116C116C114C094C094C114C116C116C95
:1033E000116C114C116C116C116C116C116C116C15
:1033F000116C116C116B116B116C116B116B116BEA
:10340000116B116B114B116B114B114B116B114B5C
:10341000116C114C114C114C116B114B196B196B38
:10342000114A196A114A112929CC112A114A114A43
:1034300011291108110719271928192819073A2CD9
:103440001928298818C4088318E61907192710C6EF
:1034500029892169194929CB21AB3A2E29CC216A26
:10346000216A216919081928190729A929882146DB
:1034700010C518E621472168422B3A2B39EA2988E2
:1034800052AB216729A93A4D218A21CB198A196AA1
:10349000218A29CB29A931CA4A6D3A2C31EA3A2B23
:1034A0003A2C424C5B5063714ACF5B304ACF3A2C86
:1034B00031CB216A29AB21AB196A198A1949110844
:1034C00021481928216929AA2148218910E7214981
:1034D000194A21AB31EB19271928192929AB298958
:1034E0002148190629672126296819063A0B2169FE
:1034F0001929194A194A196B194A196B114A196B7A
:10350000116B114B114B196B11291949194A114AA9
:10351000116B114B114A196A218A214810E71107D2
:103520001949194910E610E531C919271927110859
:10353000194911081969196A112A114B114B114BBC
:10354000116B114B114B114B114B198C114B116B12
:10355000114B114C114C116C114C114C114C116C44
:10356000114C116C114C114C116C116C114C114C13
:10357000114C114C114C116C116C116C116C116CC3
:10358000116C114C114C114C116C116C114C114CF3
:10359000114C114C114C114C114C114C114C114C43
:1035A000114C114C116C116C114C116C116C114CB3
:1035B000116C114C114C114C094C116C116C114CCB
:1035C000116C116C116C116C116B116C116C116B15
:1035D000116C116C116C116B116B116C116B116C06
:1035E000116C116B116C116C116C116B116B116BF7
:1035F000116C116B116C116C116C114B198C114AFF
:10360000112A198B112A198B194A198B196B194B0D
:10361000218B196A196A00A629892989214818E687
:103620002168218810C508632127212710C521277B
:1036300029892168216A3A4D324E3A8F428F3A4D9C
:1036400029AB31EB1107214831C910C531C939EA1D
:1036500021272968212718E5214839EA29A8214787
:103660002987190629CA218A21AB29EB21CB29EC0C
:10367000322C31CB3A0B29895B0F424C4AAE21697F
:1036800052CE426C6BB25B514AAE5310530F320BA9
:10369000216929AA29CB198B196B196B29CC216AAD
:1036A0001928192810E729A921481928110729EBF9
:1036B000196B112A29CB1949214929AA214831A975
:1036C0002988214739C92946212718E62169110887
:1036D0001949216A218B194A196B218B112A196BFF
:1036E000114B196B194B112A1929216A194A114AD0
:1036F000114B114B114B114A196A1949192811071D
:10370000192919491107218921481908216A110825
:103710002149218A19291129196B114B116B114B60
:10372000114B114A194A218B320D112A198B114B59
:10373000114C116C114C114C116C116C114C114C41
:10374000114C116C114C116C116C114C114C114C31
:10375000114C116C116C116C114C114C116C114C01
:10376000116C114C114C114C116C116C114C114C11
:10377000114C114C116C114C116C116C116C116CC1
:10378000116C116C116C116C094C116C116C114C99
:10379000116C114C116C116C114C116C114C114CC1
:1037A000116C116C116C116C116C116C116C116B32
:1037B000116C116C116C116B116B116C116B116C24
:1037C000116B116B116B116C116C116C116B116C15
:1037D000116C114B116C114B116B116B198B116B1F
:1037E000112A110A114A114A114A196B194B114B2E
:1037F000116B196B114A1108192819282989298870
:1038000019482188212618E510A62148108410A403
:1038100029472127218942AF53313A4E29EC322CD6
:10382000320B2989298919062127212629473A0A95
:103830002106212721262126190631A9424A31A82D
:10384000212618E6194829EB218A218A218A21AAF2
:10385000322C218A31EB320B4AAE31EB3A2C29CB98
:10386000320B3A2B5B2F52EF52EF52CF4AAE4AAE99
:103870001929194921AB196A196A196B196A216A40
:10388000298A31CA298819271948214910E610E7E1
:10389000194A216B194A1929194921482988296788
:1038A000296839C9210639C8318821482128214988
:1038B0001949194A218B196A218B198B114B196BE4
:1038C000196B114A194A194A1128194921AB194A89
:1038D000116B114B116B114A216A214919481908C2
:1038E0001908216919271907216921491109112886
:1038F000190819081908194A114A114B194B112AAC
:10390000194A194A1949322D29CC114A114A114B29
:10391000114C114C114C114C116C116C114C114C7F
:10392000116C116C114C116C116C116C114C116CEF
:10393000114C116C116C116C114C114C116C114C1F
:10394000116C114C116C116C114C114C114C114C2F
:10395000116C114C114C114C116C116C114C116CFF
:10396000116C116C116C116C114C114C116C114CCF
:10397000116C116C116C116C116C094C116C116C87
:10398000094C116C116C116C116C116C116C116C77
:10399000116C116B116B116B116C116C114B116C63
:1039A000116C116C116C116C116B114B116B114B73
:1039B000114B114B114B116C116B116B114B112AE7
:1039C000198B196B114A114B196B196B114B114B58
:1039D000116B196B196B112919281107110721682F
:1039E0001127218818E508630884214829670843BE
:1039F0002967212631CA4A8D428E320C218A3A2CFF
:103A000031A9318829892127214718C539C8422A77
:103A1000210631873186318710C4298821463187B4
:103A2000210520E529A921AA2149298A218921AA3C
:103A3000218A1949298931EA216831EA29EB322C96
:103A40001928426C4ACE4AAE4AAE4ACE4ACE426DA0
:103A50001929112829CB29EC218A320D29EC29AB0F
:103A600029AB110739EA29881907298929CA10E7DA
:103A7000192821AA194919692189192721472126BD
:103A80002947318821052126214729891929192902
:103A90001908190829AA2169218A196A194B114B99
:103AA000114A114A11291108216A192829CB1949EB
:103AB000196A196B194A216A3A2C110729A9212878
:103AC00010A62127214719061907218A218A196979
:103AD00010E71928216A216A192A196B192A112A53
:103AE0001949194921691949194A196B114B092AB0
:103AF000116C114C116C114C196C116B116C116C17
:103B0000114C114C116C114C116C116C116C114C4D
:103B1000114C116C116C116C116C116C116C116CDD
:103B2000116C116C116C116C116C114C114C116CED
:103B3000116C116C116C116C116C116C116C116C9D
:103B4000116C116C116C116C114C116C094C116CD5
:103B5000116C116C116C116C116C116C116C116C7D
:103B6000116C116C116C116C116C116C116C116C6D
:103B7000116C116C116C116C116C116C116C116C5D
:103B8000116C116C116C116C116B116B114B116B71
:103B9000116B116C116C114B114B114B112A112926
:103BA000114A196B114A114B116B196C114B116BA6
:103BB000114B092A114A218B112810E711271128CE
:103BC00019282168214710C50043192610A418C5DB
:103BD00029672968190731CA31CA31CA216831C930
:103BE00021054A4A296731A92967212639E94A4A24
:103BF0005AAB18E4294531A731A831A831C721258E
:103C000041E92106298831EB31AB298A29892168CC
:103C100019682168190731A910C5216829AB29CB7A
:103C2000320B1127218921892189530F426D3A2CAA
:103C3000320C29AB196A29CB29AB29AA426E4ACF8B
:103C40003A0C29A9190629674A8C21682989214833
:103C5000192808C61949196A216929A931A92947CA
:103C6000296718C539C818E5422B29891949216ADD
:103C7000298A21492169192829AA218A194B114B1E
:103C8000196A11082169218A1929194910E7192887
:103C9000196A196A192A1929216910E62988214700
:103CA00021271906424B10C519481928194921899D
:103CB00010E7298910E7192919491109194A194AE0
:103CC000218A194919281908112A112A198C196BE6
:103CD000114C114C114C114B196C114B116C116C96
:103CE000114C116C114C116C114C114C116C116C6C
:103CF000114C116C116C114C116C116C114C116C3C
:103D0000116C116C116C116C116C116C114C116CEB
:103D1000116C116C116C116C116C116C116C114CDB
:103D2000116C116C116C116C116C116C114C094CF3
:103D3000114C116C114C116C116C114C114C114C3B
:103D4000094C114C116C116C116C116C116C116CD3
:103D5000116C116C116C116C116C116C116C116C7B
:103D6000116C116C116C116C116B116C116C116C6C
:103D7000116C116C116C116C114C196B112A194AD0
:103D8000194A196A116A116B114B196C114B114BBD
:103D9000112A198B112A196A110819691929192868
:103DA0001928214729682127004221462146214719
:103DB000424B3A2B214831CA2947318739E85249C9
:103DC00049E74A07318731A839A839E94A8B2146A2
:103DD000316618C42966318639E829465AEC2966C5
:103DE00021262106294731A929AA29693A0B18E673
:103DF000216729A821063188216710E6216A19491F
:103E000029CA216929AA3A0B3A2C424D52CF29EBF3
:103E100042AF428F322D3A6E3A2C4A8E31CB31AAC4
:103E200021483188294710832106528C420A29678C
:103E300031EA2128196A196A218A2168190631880C
:103E4000294720E520E52125422A2968214829AA79
:103E500039EB298A214921691928216A196B194AE4
:103E6000218A31CA21493A2C1969218A10C7298926
:103E700021692149194931EB21492148210631871E
:103E8000214610E531EA19491969196A194A1929AF
:103E9000192721681907192811081929216A194AAF
:103EA000114A216A216921AA112A112A194B194B99
:103EB000114C116C116C114B198B196B116C114C4D
:103EC000114C116C116C116C116C116C116C116C2A
:103ED000116C116C114C116C116C116C116C118CFA
:103EE000118C116C116C116C116C116C116C116CCA
:103EF000116C116C116C116C114C116C116C116CFA
:103F0000116C116C116C116C116C116C116C116CC9
:103F1000116C116C116C116C116C116C116C114CD9
:103F2000116C116C116C116C116C116C116C116CA9
:103F3000116C116C116C116C116C116C116C116C99
:103F4000116C116C116C116C116C116C116C116C89
:103F5000116C116C116C114C116C196B114A110917
:103F6000194A216A114A114A198B196B114B114BCD
:103F7000114A092A19AB196A194A194921691928DC
:103F800031CA2148214931A910C4108318E518E528
:103F90003A2B2148214831A9422A42090000736E78
:103FA00041C6290439A74A6B422A31C8632D21250D
:103FB00041E841E839A739A74229632E4A8B2146B7
:103FC00019062947212639C8298829AA420A10C575
:103FD0002967190618E6212729882147190829CBBE
:103FE00029EA320B2189320B218A4ACF42AE533063
:103FF00063925B725B7253305B10424C4A8D4A6C29
:104000003A0A31A9294618C4210520E54209296741
:1040100031A921481969196A2189214818E52967B8
:1040200039C9318718C429462926296731C9298801
:10403000422C19081928214819081908194A192960
:10404000426D29A929893A2C194919692148214821
:1040500029892148214819282148296831A839E8A7
:1040600010A4214729AA11081949196911091949E8
:1040700021481907214810C7298A29CB194A192A2A
:10408000218A112919481949194A090A196B196C09
:10409000198D116C114B196B218B198B114C116CF3
:1040A000116C114C116C116C116C116C116C116C48
:1040B000116C116C116C116C116C116C116C116C18
:1040C000116C116C116C116C116C116C116C116C08
:1040D000116C116C116C118C116C116C116C116CD8
:1040E000116C116C116C116C116C116C116C116CE8
:1040F000116C116C116C116C116C116C116C116CD8
:10410000116C116C116C116C116C116C116C116CC7
:10411000116C116C116C116C116C116C116C114CD7
:10412000116C116C116C116C116C114C114C116CE7
:10413000116C116C116C116C114C114B194B112A33
:10414000196A196919491129116A114A116B112B40
:10415000116B092911491149218A1108194831EABD
:10416000216921491908298A31A8108318E410848B
:10417000190721482147214739A8318710A439E977
:10418000422A4A6B422A39E94A2A29665AEC31A660
:1041900031864A4941E820E4420939C8318821265C
:1041A00031CA21682146420A2988192729882126EF
:1041B00018E610C619282189214831CA192829CAA8
:1041C0003A6C320B3A4D426E4B104AF04AF04ACEEE
:1041D0005B716BF3637252EF635039EA39EA52ADA7
:1041E000424B422B39C92106212618E52125296792
:1041F000296718E62989216839EA298819052125BE
:10420000294731672966212518E529462967296745
:10421000212729682168298921682147214829897E
:104220002969298931CA2169216A19492989190706
:10423000422C296810E6298831CA18E631872946B8
:104240001906212829AB11082148192831AA2189EA
:104250001107196819281107214829AA218B194A21
:10426000194919272989424C196A112A112A092A40
:10427000116C116B116B114A196B112A114C116CD5
:10428000114C116C116C116C114C116C116C116C86
:10429000116C116C116C116C116C116C116C116C36
:1042A000116C116C116C116C116C116C116C116C26
:1042B000116C116C116C116C116C116C118C116CF6
:1042C000116C116C116C116C116C116C116C116C06
:1042D000116C116C116C116C116C116C116C116CF6
:1042E000116C116C116C116C116C116C116C116CE6
:1042F000116C116C116C116C116C116C116C116CD6
:10430000116C116C116C116C116C116C114C116CE5
:10431000116C116C116C116C116C116B194A216BC1
:104320001949218A218911081129112A194B114A89
:10433000196B196A1129196A196A196929CA194860
:1043400029AA1929216A192839EA10C4210510A4BB
:10435000214829892988214718C5294739C931C9E0
:1043600031A94A4B424A5AAC630D31864A695269B7
:1043700021044A4939A739C839C82946210518E511
:104380001907216818E52125212639C9212621068A
:10439000296821482169218A31EB2969298A19284C
:1043A0004AAD320B4AAE4ACF3A6E42AF42CF4AEFE5
:1043B000530F5B50320C63305AEF52CD422B31EA2F
:1043C00052CD52CD4A4B39E918C52967214631A84B
:1043D000212710A539EA214718C5210618E431A77D
:1043E00021054209210518E420E4292520E4294675
:1043F00031881927192731C921681906214739EA57
:104400002969212829AA19491949192910C72148B8
:104410002148422B214718E6424B39E929672946B2
:1044200018E621282189216918E618C6424C21681E
:10443000194919481968192819281929194B112AD5
:10444000320B29893A0B1928194A196B196B114B30
:10445000114B196B092A19AC198B196B116C116C62
:10446000116C114C116C116C116C116C116C116C84
:10447000116C116C116C116C116C116C116C116C54
:10448000118C116C116C116C116C116C116C116C24
:10449000116C116C116C116C116C116C116C116C34
:1044A000116C116C116C116C116C116C116C116C24
:1044B000116C116C116C116C116C116C116C116C14
:1044C000116C116C116C116C116C116C116C116C04
:1044D000116C116C116C116C116C116C116C116CF4
:1044E000116C116C116C116C116C116C116C116CE4
:1044F000116C116C116C116C116B198C218B1129C1
:1045000019491948298A31CB110829AB192A194AA6
:10451000194A218B194A196A194A19693A4C1927FB
:1045200021492169218A31EB21482147002208A431
:10453000192721891927214721473189298839E9F4
:104540003A0939A818A331864A0841E7106139A60B
:1045500018A3524939A718A3526A62EC630C31863A
:104560002987210520E539A73986316621052106ED
:1045700052AD298929AA31EB3A2C39EB31AB3A2CCF
:10458000298931EA2169426E3A2E3A6E3A2C3A6C08
:104590004A8D3A2C4A8E4AAE4AAD4ACE530F4A8CC7
:1045A00052CD7BD14A4A526B39E9292721262988E5
:1045B000212718E63A0A31A8318818C520E52105D7
:1045C0003166398639A6314518C320E3294531873C
:1045D000526B18E62168192731CA2148216818E66C
:1045E000214831AA216931CB214A11091108190842
:1045F00019283A0C2968212718E6294718C54A4A7C
:10460000296721472148192731A82947298829A93D
:10461000218A11082189110719071928114B198CB2
:1046200008E8008610E8216A194A114B116B114BFA
:10463000112A194A2A2D114A116B116C116C116C37
:10464000116C116C114C116C116C116C118D116C81
:10465000116C116C116C116C116C116C118C116C52
:10466000116C116C118C118C116C116C116C116C22
:10467000116C116C116C116C116C116C116C118C32
:10468000116C118C116C116C116C116C116C116C22
:10469000116C116C116C116C118C116C116C116C12
:1046A000116C116C116C116C116C116C116C116C22
:1046B000196C116C116C116C116C116C116C116C0A
:1046C000116C116C116C116C116C116C116C116C02
:1046D000116C116C114C196C116B196B218C196ACE
:1046E000190810E71928298A2169218A29CC192952
:1046F000216A08E81129218B196A216A1948216960
:1047000029892169194829AA424C2147088310C5E3
:1047100031C92148216831A9214721272967296703
:104720004209526A314541E739A641E718A22924D6
:1047300039A63166294518C4526A39A7106129453E
:1047400039C7316620C45229394420A241E85AAC05
:104750005B0E296839EA39EB424C4A8D29693A0CDB
:1047600018E610A5296929AB29AB31EC320B426C54
:1047700039EB2989426D3A4C29EA530F5B504A8D37
:10478000298852AC5ACC52AB3188318818C51926C9
:104790002148190718E62988210618C418A44A498F
:1047A0003145210339C7398718A3314520C341E872
:1047B00041E9296721681928212739EA31CA18E710
:1047C00021493A0C2169216A216A19691949192874
:1047D0001108190831CA29682148212718C52967F5
:1047E00031A810C521671927190521472127190765
:1047F000194819082189194818E71908196B116B0C
:10480000194911081929196A196B114B112A196BC9
:10481000196B29EC320D116B114B116C116C116C71
:10482000116C116C116C116C116C116C116C116CA0
:10483000116C116C118C118C116C116C118C116C30
:10484000116C116C118C116C116C118C116C118C20
:10485000118D118C116C116C116C116C116C116C2F
:10486000116C116C116C116C116C116C116C116C60
:10487000116C116C116C116C118C116C116C116C30
:10488000116C116C118C116C118C118C116C116CE0
:10489000196C116C116C116C116C118C116C116C08
:1048A000118C116C116C118C116C116C116C116CE0
:1048B000116C116C116C116C116B198B218C196AB4
:1048C000192829CB1928424D19481108320C218A80
:1048D000196A1129194A1109218B218A11081928ED
:1048E0002149192821691948296831A839A818C40B
:1048F000296810A529683A0931A831676B4D6B4DBD
:10490000316562CB5248524931652945292418C383
:104910004A49294539A720E4314520E420C3210430
:10492000314520C352485228398520E331664A294F
:104930005ACC4A8C298839EA52AD424C422B52CE8D
:1049400018E618E6190729AA218A218A3A4C3A0A58
:10495000108400235AEF4A8E426D53305B51530F3F
:10496000298839C84229420931873A0910C42147A8
:10497000214710C51927212721462966318721257E
:1049800039C718E4210531A831A8210518A33165DC
:1049900020C431872188216831A939C921282149BA
:1049A000296929AA31CB2169194821492169298A14
:1049B000216A19492148192721271927216831C956
:1049C00021471906192710C529882968212810E7C9
:1049D0001928214819282148192710A6216A196980
:1049E000216921481108218B196B198B1109196A4A
:1049F000218A320C1129196B116C116C116C116C1C
:104A0000196C114C116C116C116C116C116C118CB6
:104A1000116C116C118C118D116C116C116C116C6D
:104A2000118C116C116C116C116C118C116C116C5E
:104A3000116C116C116C118C116C116C116C116C6E
:104A4000116C118D118C118C116C116C116C116C1D
:104A5000116C118C116C116C116C116C116C116C4E
:104A6000116C116C116C118C118C118C116C116CFE
:104A7000116C116C116C118C116C116C116C116C2E
:104A8000116C116C116C116C116C118C116C116C1E
:104A9000116C116C116C196C196B196B194B196B2A
:104AA000194931EB10C731EB21AA11081949216AC4
:104AB000196A1109218B11291949216A192910E74D
:104AC000192819082169216829882105318718A327
:104AD00018E52147296731A8420939C839A739C7DC
:104AE0004A0839854A0841C7398620C331664A6970
:104AF0003165212529662925292420C3318641C70E
:104B00002904398531644A2728E241A65A8A39C7DF
:104B100052AB41E9420A3A0A5AEE6B70632F4A8C53
:104B200039E9212719062989218929CA31CA39EA8F
:104B3000212731884A8D5B0F4AAE4ACE4AEF426D3B
:104B400029A852AC42294229296739C818E52967A2
:104B5000190510C439EA31A8424A210531A84A6B27
:104B6000298621452105210631A8084220E4312566
:104B70003966292619261927212721272148216945
:104B80002148216919492149298A21892149218AF4
:104B900029AB424D31CA2127212721481907214835
:104BA00018E7214821471927214821682989190830
:104BB0002149216910E710C72148190710E7192872
:104BC000190729AA1928196A196B196A194A29CCCF
:104BD00021AA1129198B116B116C116C116C116CBC
:104BE000196C116C116C116C116C116C118C116CB5
:104BF000116C116C116C116C118C116C116C118C8D
:104C0000116C116C118C118C116C116C118C118C3C
:104C1000118C118D116C116C116C116C116C116C6B
:104C2000116C116C118C118C118C118C116C116C1C
:104C3000116C118C118C116C118C116C116C116C2C
:104C4000116C116C116C116C116C116C116C116C7C
:104C5000116C116C116C116C116C116C116C116C6C
:104C6000116C116C116C116C116C116B116B116C5E
:104C7000116C196C116C114B114A116A196B194B9B
:104C8000194A320C110829AA298A194808C721692A
:104C900019491109196A196A218929AA194911287A
:104CA00008C61907212731C94A4B39C9190410C34D
:104CB0002106420A2946422A52AC4A8C29662966B4
:104CC00041E85AAA28E441E8526A526A18C3528A53
:104CD000420839C720C4316639A639A65AAA39C74D
:104CE00062CB2924398541A6396420C24A2841A6CD
:104CF0006B2C528A424A52AC4A8D73D2636F52CDAA
:104D00004A8C192618C4212631EA2148424B420A0E
:104D10003A0B52CE4A6D52CE4A8D320B4ACE5B30A0
:104D200031CA73B1212539C7210529262946318782
:104D3000294520C339C829662125210529464A4A23
:104D4000210521052946292620E518C420E43986B5
:104D5000292518C421472168296829482168218903
:104D6000194829891949192829CA194811081929DE
:104D700029AA29892128296819062147192710E617
:104D800018E729892168212718E621272989110791
:104D900019482189194910E831CB10C71908192879
:104DA000190719271928194929AB194A196A194AE3
:104DB000114A218B116B114B196C116C116C116C18
:104DC000196D116C196C116C114C116C116C116C0A
:104DD000116C118C116C118C116C116C116C118C8B
:104DE000116C116C118D118C116C116C118C116C7A
:104DF000116C116C118C116C116C118C118C116C6B
:104E0000116C118C118C118C116C118C118C118CFA
:104E1000116C118C118C118C118C116C116C116C2A
:104E2000116C116C118C118C116C196C116C116C52
:104E3000116C116C118C118C116C116C116C116C4A
:104E4000116C116C116C116C196C116C116C116C72
:104E5000116C198C196C196C194A194A114A196B81
:104E6000198B218A110819081928194929AA10E74C
:104E70001929192911081969216910E7216A21895D
:104E800010E6192621262126296739E921450862DD
:104E9000420918C4296610A339C931C93A2A2167C1
:104EA0003A094A2929252925526A4A2918C318C3CB
:104EB000422941E85A8B39C729455ACA4A494A28E2
:104EC00039854A08188162CA39854A0731443984CC
:104ED0007B6D62EB4A8B4A8B632F5AEE636F424BBA
:104EE0003A0A3A0939E82105190629A94A6B31C954
:104EF000424C4A6D52EE4AAD4AAC424B52AD4A6CFE
:104F000031C9420A39A731862926296720E5316649
:104F1000316518816B4D4A6A294618C5316731A839
:104F2000212620E5420A2946210520E421044208E1
:104F3000292521053167296718E5210629A829A90E
:104F400031CA10E729CA29AA2989216919291929E9
:104F500021692148210731A929682126214729688B
:104F600019071907190618E518E539EA212719481C
:104F7000198908E71949192829891907214810C6EC
:104F800010C721692149218A1929216A196B196BD6
:104F9000196B116B196B092A196C198D114C196C4D
:104FA000114C196C196C116C198D116C116C116C00
:104FB000116C118D116C118C118C118C118D118D46
:104FC000116C116C118C118C118C118D118C116C58
:104FD000118C118C118C118C118C118C116C116C29
:104FE000118C118C116C118C118C118C118C116C19
:104FF000116C118C118C118C116C118C116C116C49
:10500000116C116C118C118C116C116C116C116C78
:10501000116C118C118C116C118C118C116C116C28
:10502000116C116C118C118C116C116C116C116C58
:10503000116C114C196C198C218A19691149196A62
:10504000114A21AB1929112819692169110810E7A2
:1050500008A52148216921482969192731CA2168F1
:105060002167190510A4210539A831872946212473
:105070002945318618C318C3420931A8428C29A892
:1050800052CD3A2A31A818E5528B4229420818C459
:10509000526A6B4D6B6E630C39A6294439A62924DC
:1050A00052294A084A087BCE4A2841C65A8839857F
:1050B0003165738F2986424A7BF273B1634F5AEC94
:1050C000424A4A4A5ACB4A4919052967296731A9F0
:1050D000298829883A2A422A31874209528C422A51
:1050E000296739E8318639C739A739C7294529459C
:1050F000186218825AAA420818E5420A31A829669D
:1051000031872926292541E8420818C3316739C863
:1051100018A441E841C720C320E3528A39C7212699
:1051200021272168218A1948212831AA2169194992
:10513000216921492988190631C9296710C531A972
:1051400010C5296718C518C418E43187294729AA4A
:10515000218A194919282147212718E62988192762
:1051600029AA2149192921AA110829EC116B116CCE
:10517000116C116C198C114B19AC198C116C116CD0
:10518000198D116C198C198C21AD116C196C116C65
:10519000116C116C116C116C118C118C118C118CA7
:1051A000118C118D116C116C118C118C118C118C56
:1051B000118C116C118D118C116C118C118C116C66
:1051C000116C116C118C118C118C116C118C118C57
:1051D000118C118C118C118C116C116C116C116C67
:1051E000118D116C118C118C116C118C118C198C0E
:1051F000118C118C118C118C118C116C118C118CE7
:10520000116C118C116C116C116C118C116C116C76
:10521000116C198C196C196B218A19491109194AD9
:10522000198A29CB218A1929218A19491969110753
:1052300029A8004310C5216819072148212710E635
:105240002988296721052125212610832966298699
:1052500008412125210418C339E839E92988320A8F
:105260004A8C428C4A6B214621252125292520E4A0
:10527000630C7BCF5AAA20E318A131645ACA2903D0
:105280004A285AAA31655AAA630C528A316441E607
:105290005AAA6B4D52AB31A773B16B9073B05AECF5
:1052A0006B4E39E841C8528B31C831C8318831A9B9
:1052B000424B298821464A6B4A4A39A84209296744
:1052C0002105212529453186292420E44A2829451C
:1052D00020C4104118C318C318C44A6B3A092145A9
:1052E0002105318718A339C7210420E4316721063D
:1052F00010A442292924292439A6318620E539C958
:1053000031A9214821691948296821482148216982
:1053100010E8216929A9190629263167296721265C
:1053200021062127190518E5294618E518C6192868
:1053300019491949214839EA4A2A2926212621688A
:10534000296A216A19291929196921AB196B116C6C
:10535000196C114B114B198B114B116B116C116C9A
:10536000116C116C196C19AD198C118C116C116CBC
:10537000116C116C116C116C118C118C118C116CE5
:10538000116C118D118D118D118D118C118D118D4F
:10539000118C118C118C118C116C116C116C118C85
:1053A000118C116C118C118C118C118C116C118C55
:1053B000118C118C118C118C116C116C116C116C85
:1053C000116C116C118C198D118C118C118C118C2C
:1053D000118C118C118C118C118C118C116C116C25
:1053E000118D118C116C116C118C198C118C116B2D
:1053F000116C196C198B196B218A1928194A1929F2
:10540000218B31EC298A1929194A196A196910E680
:1054100029672104190510A42989212810E71927D3
:10542000298931C921262967420A298710C439E808
:1054300031A818E418C339C739E8294639C83A0AE7
:1054400052ED29A8420A7BD04A2A39C84209296567
:10545000526939A6526918A2314420C252281861F3
:1054600020C35A8910614A494A49528A422839E878
:105470009CB27BAE31A65ACB31A85AED84317BD099
:105480007BD0630D4A4A5AED3A2C218931A9422B2F
:10549000214831A931A9190629684A4B422A41E815
:1054A0004A2941E839A739A72104210418C32965ED
:1054B0003166294521044A49294621252966318733
:1054C00020E53187210618A42126296721051063CC
:1054D00021052946420919052147214819081908BB
:1054E000296829892189192831EA21471927298919
:1054F00010E7298918E6298718A418C418E539E99E
:105500002967190610C519061906190718E719079A
:10551000298A218929A918E5210610C510C6216804
:10552000214929AA216929CB1949194A196B196BF3
:10553000196B196B112A196B196B196C196D196D8F
:10554000116C118C116C116B198C116C116C116C2C
:10555000118D118C118D118C118D118D118D118D5D
:10556000118C118D118C118C118D118C118C116C71
:10557000116C118D118D118D118C118C118D118D5E
:10558000118D118D118D118D118D118C118D118D2C
:10559000118D116C118D116C116C116C118D116CC0
:1055A000116C118D118C118C118C118C118C118C32
:1055B000118C118C118C118C118C198C118C116C1B
:1055C000118C118C116C116C198C116C116B196C84
:1055D000116B196C196B196A19691928192819495D
:1055E0001929298A298A298A218A1929194931EAF6
:1055F000212621252987190618E710E721481928AF
:1056000019281927212710C531A831C810A43A0933
:10561000214631C818C4210441E7292442292946DA
:1056200052ED4A8B29675AED73B0528B31C7212551
:10563000294539A6290431444A0739645A6820A10A
:1056400031447BAE41C77BAE52695ACB8C52A51513
:10565000738E31654A495ACB841152AC420873AFFC
:10566000841031A74A8B4AAD3A2C322C52EE6B7023
:105670002968212729891927294831A8210539C7EF
:105680004A493186212529463166294518C318E43F
:1056900041E83186318731C7296610A339C818C45B
:1056A0002105292620E510A41905296718C45ACC1C
:1056B0002966292639E9192710C62169296A190896
:1056C0002148216810E719282988214721481927EE
:1056D000190721472127190518E518C52126212674
:1056E00018E6088410C61927216810C629682147C2
:1056F00029891928190710E6216710C62148192899
:105700001928190821691949194A194A196B198B5D
:10571000112A21AC29AC196A196B198C196C196CF6
:10572000116D116C116C114B118C118C118C118D30
:10573000118D118D118D118D118D118D118D118C7A
:10574000118D118D118D116C118D118D118D118C8B
:10575000118C118D118C118D118C118C118D118C5E
:10576000118C118C118D118D118C118D118D118D4C
:10577000118D116C118D118D118D118D118D118D5A
:10578000116C118D118C198D118C118C118C118C47
:10579000118C118C118C118C116C118C116C118C61
:1057A000118C118C118C118C118C118C118C196C29
:1057B000198C196B29ED194911071928298810C668
:1057C00010E71928194929AA218A194808C62989E0
:1057D00021471927298821691929112911071969D0
:1057E000218A196929AA31AA10E5422A424A18E4F5
:1057F00039E9422A004218E418A331662966214695
:105800004AAC8C936B6F31A8632E4A6B4A29630CA8
:105810003165080020C38C1052285A483122522684
:1058200041A539655A8A736D738E62EC6B6EB5B79C
:105830006B4E39C75ACC8C519CD45AEC52AB31A622
:105840008C5131A752CC52CD29CA320B214718E5D1
:1058500039E931A84A4B31C8424B1926214539E76D
:105860004A4939C721053187316610A318C3296514
:105870002104082139E818E418E529673187294609
:1058800020E420E42946210518E52126294631A8EF
:1058900021062968214729882168192731A921264D
:1058A000210621472148212731C92146296821475E
:1058B00018E62988212739E910A318C44A8B212624
:1058C00018E708A6110710E6190619062127190678
:1058D00019072169214908A610C519481108194A54
:1058E0002149192819281107216A218B196B196B75
:1058F000112A218B29AC194A196C196C196D198C54
:10590000116C196C196C196C198C198D118C118D05
:10591000118C118C118C118C116C116C118D118CDE
:10592000118D118C118D118D118D118D118D118D88
:10593000118D118D118D118D118D118D118D118D77
:10594000118D116C116C118D116C116C118D118DEB
:10595000116C116C118D116C116C118D118D118DDB
:10596000118D116C118C11AD118C118C118C118C4D
:10597000118C118C118C118C198C198C118C19AD06
:10598000118C116B118C116B118C118C118C116C91
:10599000198C114B08E929CB218A29AA31C9296818
:1059A0002148212819481948110829AA10E629A9CF
:1059B000214921692169216A218A21AB19491108EC
:1059C000110821AA21691948214731A821254A4AED
:1059D00031C84A8B4209002118C362EC52AB8411D2
:1059E0004AAB8C73B5B8634E630D528B7BD052AA11
:1059F0000821630C736D7B8E62CA7B6C49E541C5DF
:105A00006B0B28E383EF41C67BAE9CD34A49632DE1
:105A100084318C519CF4630D5AEC7BD06B6E7BCF40
:105A20004A49190452CD52CD21682127526B8C521C
:105A300094525A8B41E8526A2946318739C6292443
:105A400020E3398641E7318639A73187210429458A
:105A50002104106129452104318729262946292559
:105A60003165210418C32966212618E5212621065F
:105A70002126294721062126296721262126294674
:105A80002967212629682147298739C7318729674E
:105A900018C5190639C93187296618E4294618E559
:105AA0000886218A218A196808C608A5192710E6E0
:105AB000110721691949218A08C6218910E8216B3B
:105AC00021692169192811081109198B196B198C81
:105AD0001109196B196B114B198C114C198C116C24
