:020000040800F2
:1000000090060020CD0100080D0200080F02000834
:1000100013020008170200081B020008000000007D
:100020000000000000000000000000001F020008A7
:100030002102000800000000230200082502000839
:10004000E7010008E7010008E7010008E7010008F0
:10005000E7010008E7010008E7010008E7010008E0
:1000600077020008C7020008E7010008E70100085E
:10007000E7010008E7010008E7010008E7010008C0
:10008000E7010008E7010008E7010008E7010008B0
:10009000E7010008E7010008E7010008270200085F
:1000A000E7010008E7010008E7010008E701000890
:1000B000E7010008E7010008E7010008E701000880
:1000C000E7010008E7010008E7010008E701000870
:1000D000E7010008E7010008E7010008E701000860
:1000E000E7010008E7010008E7010008E701000850
:1000F000E7010008E7010008E7010008E701000840
:10010000E7010008E7010008E7010008E70100082F
:10011000E7010008E7010008E7010008E70100081F
:10012000E7010008E7010008E7010008E70100080F
:1001300000F002F800F03AF80AA090E8000C8244BF
:100140008344AAF10107DA4501D100F02FF8AFF29C
:10015000090EBAE80F0013F0010F18BFFB1A43F0A5
:10016000010318471010000030100000103A24BF9F
:1001700078C878C1FAD8520724BF30C830C144BF0C
:1001800004680C607047000000230024002500264E
:10019000103A28BF78C1FBD8520728BF30C148BFEA
:1001A0000B6070471FB51FBD10B510BD00F0ABFF51
:1001B0001146FFF7F7FF00F073F900F0C9FF03B431
:1001C000FFF7F2FF03BC00F0CDFF000009488047B5
:1001D00009480047FEE7FEE7FEE7FEE7FEE7FEE729
:1001E000FEE7FEE7FEE7FEE704480549054A064B41
:1001F00070470000FF0F0008310100089000002048
:10020000900600209002002090020020704700BF5E
:10021000FEE700BFFEE700BFFEE700BFFEE7704756
:1002200070477047704708B5202000F05FFE08B3A4
:100230002021394800F059FBC8B940F6FF70009002
:1002400002E00098401E009000980028F9D120217B
:10025000314800F04AFB48B900BF20212E4800F089
:1002600044FB0028F9D001202C49087000BF202051
:1002700000F04DFE08BD08B5042000F037FE08B3BD
:100280000421254800F031FBC8B940F6FF7000900A
:1002900002E00098401E009000980028F9D1042147
:1002A0001D4800F022FB48B900BF04211A4800F0A5
:1002B0001CFB0028F9D002201849087000BF042058
:1002C00000F025FE08BD08B5082000F00FFE08B3B9
:1002D0000821114800F009FBC8B940F6FF700090F2
:1002E00002E00098401E009000980028F9D10821F3
:1002F000094800F0FAFA48B900BF0821064800F0A2
:10030000F4FA0028F9D003200449087000BF08203F
:1003100000F0FDFD08BD00000010014000000020BD
:1003200001B502E00098401E009000980028F9D125
:1003300008BD08B52020ADF8000010208DF803009E
:1003400003208DF802006946B04800F03BFA4820CF
:10035000ADF8000010208DF8030003208DF8020096
:100360006946AB4800F02EFA2020ADF80000482086
:100370008DF803006946A74800F024FA0420ADF880
:10038000000048208DF803006946A24800F01AFAE0
:100390000820ADF8000048208DF8030069469D480C
:1003A00000F010FA4020ADF8000048208DF803005E
:1003B0006946994800F006FA08BD0EB54FF4C060D2
:1003C00000F032F917208DF8080000208DF80900A0
:1003D00001208DF80A008DF80B0002A800F029F921
:1003E00008208DF8080000208DF8090002208DF803
:1003F0000A0001208DF80B0002A800F01AF909206C
:100400008DF8080000208DF809008DF80A00012001
:100410008DF80B0002A800F00CF90521022000F075
:10042000E7FA0221084600F0E3FA0321022000F077
:10043000DFFA2020009000208DF804000C208DF8B9
:10044000050001208DF80600684600F0E9FC042054
:10045000009000208DF804000C208DF8050001208C
:100460008DF80600684600F0DBFC082000900020B4
:100470008DF804000C208DF8050001208DF8060091
:10048000684600F0CDFC0EBD10B500F0B8FD0121AE
:10049000084600F053FC01217C2000F04FFC10BD09
:1004A000FFF7F2FFFFF789FFFFF743FFADE006E03C
:1004B0005A4800785A49087000205849087057482F
:1004C00000780028F4D15648007801282CD120214A
:1004D0004E4800F024FA40214D4800F022FA08214D
:1004E0004B4800F01EFA4F48FFF71AFF20214748FB
:1004F00000F017FA4021464800F011FA082144485C
:1005000000F00FFA4748FFF70BFF20213F4800F0AB
:1005100008FA40213E4800F004FA08213C4800F067
:10052000FEF94048FFF7FCFE3D48007802283BD129
:100530002021364800F0F3F94021354800F0F1F968
:100540000821334800F0EDF93648FFF7E9FE202195
:100550002E4800F0E6F940212D4800F0E0F908218E
:100560002B4800F0DEF92F48FFF7DAFE202127485C
:1005700000F0D7F94021264800F0D3F9082124489B
:1005800000F0CDF92748FFF7CBFE20211F4800F0EF
:10059000C8F940211E4800F0C2F908211C4800F0AB
:1005A000C0F92048FFF7BCFE1D48007803282CD175
:1005B0002021164800F0B3F94021154800F0B1F9A8
:1005C0000821134800F0ADF91648FFF7A9FE2021D5
:1005D0000E4800F0A6F940210D4800F0A2F90821CC
:1005E0000B4800F09CF90F48FFF79AFE20210748BE
:1005F00000F097F94021064800F091F908210448DD
:1006000000F08FF90748FFF78BFE50E7000C014020
:1006100000140140001001400018014000000020BB
:1006200001000020FFFF4F0031490143314A1160B2
:10063000704770B5002100230F22C47804B32D4CFD
:10064000246804F4E064C4F5E064210AC1F1040301
:10065000CA40447804FA03F1847814402143090124
:10066000254C0678A155047804F01F050124AC4000
:1006700005786D11AD0005F1E025C5F8004109E0F0
:10068000047804F01F050124AC401C4D0678761157
:1006900045F8264070BD1A4A0A400243154B1B1FFD
:1006A0001A60704739B1134A121D12680243114B88
:1006B0001B1D1A6006E00F4A121D126882430D4B83
:1006C0001B1D1A607047042808D14FF0E02109690A
:1006D00041F004014FF0E022116107E04FF0E0210A
:1006E000096921F004014FF0E02211617047000018
:1006F0000000FA050CED00E000E400E080E100E01D
:1007000080FFFF1F10B50446CC48844208D1012168
:10071000042000F02DFB0021042000F029FB46E01E
:10072000C748844208D10121082000F021FB0021A4
:10073000082000F01DFB3AE0C248844208D10121A4
:10074000102000F015FB0021102000F011FB2EE01E
:10075000BD48844208D10121202000F009FB00217E
:10076000202000F005FB22E0B848844208D1012196
:10077000402000F0FDFA0021402000F0F9FA16E0D8
:10078000B348844208D10121802000F0F1FA002111
:10079000802000F0EDFA0AE0AE48844207D1012142
:1007A000801500F0E5FA0021A01500F0E1FA10BD77
:1007B00010B50121084600F0DBFA0021012000F00D
:1007C000D7FA10BD2DE9F041024600250026002091
:1007D00000230024002791F803C00CF00F0591F8C6
:1007E00003C00CF0100CBCF1000F03D091F802C054
:1007F0004CEA050591F800C0BCF1000F31D0146837
:1008000000202BE04FF0010C0CFA00F3B1F800C00F
:100810000CEA03069E4220D183004FF00F0C0CFA25
:1008200003F7BC4305FA03FC4CEA040491F803C047
:10083000BCF1280F06D14FF0010C0CFA00FCC2F8F5
:1008400014C00AE091F803C0BCF1480F05D14FF085
:10085000010C0CFA00FCC2F810C0401C0828D1D3CF
:100860001460B1F800C0BCF1FF0F34DD5468002003
:100870002EE000F1080C4FF0010808FA0CF3B1F873
:1008800000C00CEA03069E4221D183004FF00F0CFA
:100890000CFA03F7BC4305FA03FC4CEA040491F894
:1008A00003C0BCF1280F05D100F1080C08FA0CF8C0
:1008B000C2F8148091F803C0BCF1480F07D100F1D1
:1008C000080C4FF0010808FA0CF8C2F81080401C20
:1008D0000828CED35460BDE8F0814FF6FF71018047
:1008E000022181700421C170704702460020936884
:1008F0000B400BB1012000E00020704701468868E2
:1009000080B2704702460020D3680B400BB1012033
:1009100000E0002070470146C86880B2704701615E
:100920007047416170470AB1016100E04161704761
:10093000C16070474FF480320A43826181618261F5
:1009400082698269704702460020434B18684FF65F
:100950008073184040EA021008433F4B186070470C
:100960003E49C8617047F0B50A46002300240021C3
:10097000002500F00046B6F1004F02D1364EF16975
:1009800001E0354E7168C0F3034583B200F44016B0
:10099000B6F5401F08D121F070612F4E766826F021
:1009A00070662D4F7E6012E000F48016B6F5801F51
:1009B00006D1032606FA05F4A14341F0706106E072
:1009C000460D360103FA06F6B14341F0706122B1DB
:1009D000460D360103FA06F6314300F00046B6F143
:1009E000004F02D11C4EF16101E01B4E7160F0BD61
:1009F00030B500228B071C0F0F2303FA04F2164BAD
:100A000008338C1053F824309343134C08348D1062
:100A100044F8253023468C1053F824308C07240FDB
:100A200000FA04F423430C4C08348D1044F82530AC
:100A300030BD0A49DC310860704700000008014001
:100A4000000C01400010014000140140001801405A
:100A5000001C014000200140000001400000204235
:100A6000DF48006840F00100DD4908600846406842
:100A7000DC490840DA49486008460068DA4908401D
:100A8000D74908600846006820F4802008600846BE
:100A9000406820F4FE0048604FF41F0088607047F3
:100AA000CF49096821F48031CD4A116011460968A7
:100AB00021F480211160B0F5803F03D0B0F5802F84
:100AC0000ED106E0C649096841F48031C44A11607C
:100AD00007E0C349096841F4A021C14A116000E060
:100AE00000BF00BF704710B5014600220023002060
:100AF0004A11012A02D1BA4C236806E0022A02D127
:100B0000B74C236A01E0B64C636A01F01F0201246E
:100B100094401C400CB1012000E0002010BD38B50D
:100B2000002000900024002500BF3120FFF7DBFFEC
:100B300005460098401C00900098B0F5A06F01D0C9
:100B4000002DF2D03120FFF7CEFF08B1012400E0E4
:100B50000024204638BD01460020A14A106820F03C
:100B6000F80040EAC10010607047A0490860704773
:100B7000024600209A4B586820F47C1042EA010398
:100B80001843974B5860704798490866704701466C
:100B90000020934A506820F00300084350607047DB
:100BA0008F48406800F00C007047014600208C4AD6
:100BB000506820F0F0000843506070470146002064
:100BC000874A506820F4E06008435060704701464F
:100BD0000020834A506820F4605040EAC100506011
:100BE000704729B17E4A527A02437D4B5A7204E023
:100BF0007B4A527A82437A4B5A7270477B49D8318A
:100C00000860704701460020754A506820F4404053
:100C10000843506070470021714A20321170704AB9
:100C200082F82010012802D004280AD104E0012112
:100C30006B4A2032117005E00521694A203211709B
:100C400000E000BF00BF7047694908607047644911
:100C5000096A0143624A1162704765494439086074
:100C6000704730B500210022002400235C4D6D68E0
:100C700005F00C0121B1042905D0082923D105E094
:100C80005C4D056022E05B4D05601FE0544D6D68D2
:100C900005F47012524D6D6805F48034022505EBA1
:100CA00092421CB9544D554305600BE04C4D6D68A4
:100CB00005F400351DB1504D5543056002E04D4D22
:100CC0005543056002E04B4D056000BF00BF444D39
:100CD0006D6805F0F0010909484D6B5C0568DD4061
:100CE00045603F4D6D6805F4E061090A434D6B5C5A
:100CF0004568DD4085603A4D6D6805F46051C90A6C
:100D00003E4D6B5C4568DD40C560354D6D6805F452
:100D10004041890B3A4D6B5CC568B5FBF3F5056145
:100D200030BD29B12E4A526902432D4B5A6104E06D
:100D30002B4A526982432A4B5A61704729B1284A8B
:100D400092690243264B9A6104E0254A92698243E4
:100D5000234B9A61704729B1214AD2690243204B43
:100D6000DA6104E01E4AD26982431D4BDA617047A2
:100D700029B11B4AD2680243194BDA6004E0184AD1
:100D8000D2688243164BDA60704729B1144A12695F
:100D90000243134B1A6104E0114A12698243104B5B
:100DA0001A61704712494039086070470F49C8649A
:100DB00070470B49C87170470948406A40F080701D
:100DC00007494862704701460020054A92680A4078
:100DD0000AB1012000E00020704701498872704785
:100DE000001002400000FFF8FFFFF6FE0000424244
:100DF0008004424200127A0000093D0002000020F7
:100E000012000020002044490860091D0860091DE7
:100E10000860091D086041483F4914310860704767
:100E200000213D498279002A3AD00A4612680368B7
:100E30009A430B461A600A1D126803689A430B1DF9
:100E40001A60027911440A6803681A430A60324A38
:100E50000832126803689A432F4B08331A601A1D30
:100E6000126803689A432C4B0C331A604279102A9B
:100E70000ED11A1F126803681A43274B08331A60F1
:100E80001A1D126803681A43234B0C331A600DE0D5
:100E90002149427911440A6803681A430A6005E04F
:100EA000027911440A6803689A430A607047002176
:100EB000016001710C214171002181717047164957
:100EC000103109680143144A10321160704701461D
:100ED0000020114A143212680A400AB1012000E0D1
:100EE000002070470C49143108607047014600200B
:100EF0000022094B1B6803EA0102074B14331B68ED
:100F00000B4013B10AB1012000E0002070470249F4
:100F1000143108607047000000040140FFFF0F001B
:100F20000CB50020019000906C48006840F48030BF
:100F30006A49086000BF6948006800F4003000900A
:100F40000198401C0190009818B90198B0F5A06F65
:100F5000F1D16248006800F4003010B10120009027
:100F600001E0002000900098012843D15C4800680F
:100F700040F010005A4908600846006820F003005D
:100F800008600846006840F0020008605348406866
:100F9000524948600846406848600846406840F446
:100FA000806048600846406820F47C10486008462D
:100FB000406840F4E81048600846006840F08070DF
:100FC000086000BF4548006800F000700028F9D0B4
:100FD0004248406820F003004049486008464068A5
:100FE00040F00200486000BF3C48406800F00C0040
:100FF0000828F9D10CBD10B5FFF792FF10BD10B550
:101000003648006840F001003449086008464068EE
:101010003449084031494860084600683249084070
:101020002E4908600846006820F4802008600846C1
:10103000406820F4FE0048604FF41F008860FFF70E
:10104000DAFF4FF000602949086010BD10B500219B
:1010500000200022214B5B6803F00C0121B1042920
:1010600006D0082928D107E0214B224C236027E035
:101070001F4B204C236023E0184B5B6803F4701077
:10108000164B5B6803F48032022303EB904022B9D5
:10109000194B4343174C23600DE0104B5B6803F47E
:1010A000003323B1144B4343124C236003E0104B35
:1010B0004343104C236003E00D4B0E4C236000BFF4
:1010C00000BF064B5B68C3F303130C4CE15C094B98
:1010D0001B68CB40074C236010BD0000001002408D
:1010E000002002400000FFF8FFFFF6FE08ED00E0E0
:1010F00000127A001800002000093D001C000020AA
:10110000704770477047754600F028F8AE460500F6
:101110006946534620F00700854618B020B5FFF712
:1011200063F8BDE820404FF000064FF000074FF095
:1011300000084FF0000B21F00701AC46ACE8C009F5
:10114000ACE8C009ACE8C009ACE8C0098D467047FE
:101150000446AFF300802046FFF731F8004870479F
:101160002C00002001491820ABBEFEE7260002003B
:101170007047000094110008000000202C000000BF
:101180006C010008C01100082C000020640600005B
:1011900088010008000000000000010203040102B1
:1011A00003040607080902040608000000A24A0416
:1011B0000000000000000000010203040607080907
:0400000508000131BD
:00000001FF
