:020000040800F2
:100000004805002045010008F7080008F30800082B
:10001000F50800084D070008610E00080000000008
:10002000000000000000000000000000910A00082D
:10003000C507000800000000B10900083D0B0008DA
:100040005F0100085F0100085F0100085F01000810
:100050005F0100085F0100085F0100085F01000800
:100060005F0100085F0100085F0100085F010008F0
:100070005F0100085F0100085F0100085F010008E0
:100080005F0100085F0100085F0100085F010008D0
:100090005F0100085F0100085F0100085F010008C0
:1000A0005F0100085F0100085F0100085F010008B0
:1000B0005F0100085F0100085F0100085F010008A0
:1000C0005F0100085F0100085F0100085F01000890
:1000D0005F010008910B0008D10B00085F010008C8
:1000E0005F0100085F0100085F0100085F01000870
:1000F0005F0100085F0100085F0100085F01000860
:100100005F0100085F0100085F0100085F0100084F
:100110005F0100085F0100085F0100085F0100083F
:100120005F0100085F0100085F0100085F0100082F
:10013000DFF80CD000F09CFA00480047A91700082F
:10014000480500200648804706480047FEE7FEE7CE
:10015000FEE7FEE7FEE7FEE7FEE7FEE7FEE7FEE777
:10016000410B0008310100082DE9FE4F81EA03042C
:1001700004F0004421F0004100944FF0000B23F004
:10018000004350EA01045ED052EA03045BD0C3F39B
:100190000A54C1F30A552C44A4F2F3340194A0FB91
:1001A0000254C1F3130141F48011C3F3130343F468
:1001B000801301FB024400FB034E840A970A44EAC1
:1001C000815447EA8357A4FB076802958D0A05FB13
:1001D00007854FEA932C04FB0C542705029D4FEA38
:1001E000065847EA1637B5EB08056EEB070C870E85
:1001F000920E47EA811742EA8312A7FB0201B6EB8F
:100200000B0164EB00042B0D43EA0C335E1844EB46
:100210001C50DA465146E7FB0201C5F313044FEACE
:100220000B3343EA14534FEA0432019C43EA0603BA
:10023000A4F10C040294009CCDE900B400F0F3F8A2
:1002400003B0BDE8F08F00200146F9E72DE9F04D3D
:1002500081EA030404F0004B21F0004514464FF0FE
:10026000000A23F0004150EA050220D054EA0102BE
:100270001DD0C5F30A570246C5F31303C1F313009B
:10028000C1F30A5640F4801543F48013A7EB060827
:10029000101BD64608F2FD3873EB050002D308F1B7
:1002A000010801E092185B41B8F1000F03DA002069
:1002B0000146BDE8F08D00204FF4801106468446CB
:1002C0000EE0171B73EB050705D3121B63EB050349
:1002D00006434CEA010C49084FEA300092185B4192
:1002E00050EA0107EDD152EA030012D082EA04007D
:1002F00083EA0501084305D0101BAB4106D2012259
:10030000002306E000224FF0004302E06FF00102FC
:1003100053101AEB06004CEB085110EB0A0041EBAE
:100320000B01BDE8F04D00F06FB870B521F000434F
:1003300003430CD0C1F30A550024D5EB040564EB4C
:100340000403D617AD1AB34102DB0020014670BD8D
:10035000201841EB025170BD0EB5C10F80EAE0706C
:100360000844CA07002140F233438DE80E000A46D4
:100370000B4600F058F803B000BD30B50B460146FF
:1003800000202022012409E021FA02F59D4205D334
:1003900003FA02F5491B04FA02F52844151EA2F1DE
:1003A0000102F1DC30BD2DE9F05F054600209246E8
:1003B0009B4688460646814640241BE02846414627
:1003C0004746224600F075F953465A46C01A9141F5
:1003D00010D311461846224600F05CF92D1A67EB3F
:1003E00001084F4622460120002100F053F917EB87
:1003F00000094E41201EA4F10104DFDC48463146CD
:100400002A464346BDE8F09F10B5141E73F1000460
:1004100008DA401C41F1000192185B411A4301D1F6
:1004200020F0010010BD2DE9F04D92469B4611B120
:10043000B1FA81F202E0B0FA80F22032904600F088
:1004400029F904460F4640EA0A0041EA0B015346E7
:100450005A46084313D0114653EA010019D0C8F197
:100460004002504600F025F905460E4650465946D2
:10047000424600F00FF9084305D0012004E0204671
:100480003946BDE8F08D0020054346EAE0762C436E
:1004900037430A986305E40AA0EB08000022FD0A2E
:1004A00044EA47540A3002D500200146E9E7010535
:1004B00010196941DDE9084500196941BDE8F04DB1
:1004C000A2E72DE9FE4F804681EA0300C00F0C46EB
:1004D000009021F0004123F00045B8EB0200A94153
:1004E00005D24046214690461C460B46024623F064
:1004F0000040104347D0270DC7F30A00C3F30A5149
:100500000290401A019040286BDAC3F3130040F4C4
:10051000801B0098924620B10023D2EB030A63EBC4
:100520000B0B01985946C0F14002504600F0B2F85A
:1005300006460D4650465946019A00F0CAF810EB9F
:1005400008006141002487EA115284EAE7731A43E4
:1005500040D0009A62B3019A012A4FEA075215DC93
:10056000001B61EB02014FF0004202EA0752CDE9A5
:100570000042001C41F5801132462B46FFF753FF25
:1005800003B0BDE8F08F40462146F9E7001B61EB60
:100590000201001C41F5801300185B412018A2F5F0
:1005A000001747EB030140EAD570B6196D4111E021
:1005B0006D084FEA360645EAC0754FEA0752001B40
:1005C00061EB0201001C41F5801149084FEA30003F
:1005D0000019514132462B4603B0BDE8F04FFFF7FA
:1005E00013BF0098012240000023D0EB020263EB0E
:1005F000E073009821464FEAE074B8EB000061EB2D
:100600000401E9E783F000435BE781F0004158E72C
:10061000C1F30A52C1F3130140F2FF3341F48011D8
:100620009A4202DA00200146704740F233439A4270
:10063000A2F2334202DC524200F03BB800F02AB88A
:1006400030B5041E71F1000404DB4FF00044404259
:1006500064EB0101141E73F1000405DB1C464FF02E
:100660000043524263EB0403994208BF904230BDFD
:10067000064C074D06E0E06840F0010394E80700EF
:1006800098471034AC42F6D3FFF756FD841A0008A1
:10069000A41A0008202A04DB203A00FA02F1002004
:1006A00070479140C2F1200320FA03F319439040B0
:1006B0007047202A04DB203A21FA02F0002170471B
:1006C00021FA02F3D040C2F12002914008431946BA
:1006D0007047202A06DBCB17203A41FA02F043EAA2
:1006E000E07306E041FA02F3D040C2F120029140EB
:1006F00008431946704770B58C1810F8015B15F067
:10070000070301D110F8013B2A1106D110F8012B83
:1007100003E010F8016B01F8016B5B1EF9D12B07A8
:1007200005D40023521E0DD401F8013BFAE710F85E
:10073000013BCB1A921C03E013F8015B01F8015B4B
:10074000521EF9D5A142D8D3002070BDFEE70000AB
:100750001B4910B50A7801F126039C18521C0A7037
:1007600020701A780020552A27D10A780B2A25D321
:100770005A78512A06D0522A0BD0532A10D0542A24
:100780001BD114E08A6AC1F80620CA6AC1F80A209F
:1007900013E08A6AC1F80E20CA6AC1F812200CE080
:1007A0008A6AC1F81620CA6AC1F81A2005E08A6A66
:1007B000C1F81E20CA6AC1F82220087010BD0000CE
:1007C00002000020704701B5009801E0401E009033
:1007D0000028FBD108BD00002DE9F041174C202076
:1007E000032520801020E070A5702146144800F0F9
:1007F0002BF84FF4007020801827DFF84880E7704E
:10080000A5702146404600F01FF84FF4806020801C
:100810000426E6702146404600F016F82680E77070
:10082000A5702146404600F00FF808202080E670B1
:1008300021464046BDE8F04100F006B80400002023
:10084000000C014000080140F0B5CA78002502F014
:100850000F03D20601D58A7813430A784FF00F0EA2
:1008600012F0FF0F4FF001021CD004680F8802FA4B
:1008700005F63740B74211D14FEA850C0EFA0CF756
:1008800024EA070703FA0CF43C43CF78282F02D060
:10089000482F02D002E0466100E006616D1C082D81
:1008A000E4D304600C88FF2C1ED944685FF0000676
:1008B00006F1080702FA07F50F882F40AF420FD163
:1008C0004FEA860C0EFA0CF7BC4303FA0CF73C43D4
:1008D000CF78282F00D14561CF78482F00D105610E
:1008E000761C082EE4D34460F0BD4161704701617D
:1008F0007047FEE7FEE7704738B54FF4E06000F060
:100900004DF825208DF8000000248DF801400125C8
:100910008DF802508DF80350684600F00DF826203F
:100920008DF800008DF801408DF802408DF80350DD
:10093000684600F001F838BD70B50F23C47801781F
:100940000122F4B1144C2468457804F4E064C4F541
:10095000E064240AC4F10406E3408478B5401C40F6
:100960002C4301F1E021230181F80034007800F0EC
:100970001F018A404009800000F1E020C0F80021FA
:1009800070BD01F01F0082404809800000F1E020A6
:10099000C0F8802170BD00000CED00E00249084362
:1009A00002490860704700000000FA050CED00E005
:1009B00070470000044A0029D16901D0014300E0DA
:1009C0008143D1617047000000100240044A0029B1
:1009D000916901D0014300E08143916170470000BB
:1009E0000010024010B500F0ABF8012144F22D00D8
:1009F000FFF7ECFF0121BDE810404804FFF7DABF24
:100A000030B51F494A6812F00C031E4A03D0042B6C
:100A100001D0082B21D002604A680F231A4C03EA48
:100A20001212A35C0268DA4042604B68072505EAAF
:100A30001323E35C22FA03F383604B6805EAD323B4
:100A4000E35CDA40C2604968032303EA9131231F63
:100A5000595CB2FBF1F1016130BD4A684B6802F4A8
:100A600070124FF0020413F4803F04EB924202D064
:100A70004B689B0301D5054B00E0024B5A43CAE784
:100A80000010024000127A002601002000093D00FB
:100A9000704700000CB500212648019100910268C2
:100AA00042F4803202604FF4A063026802F4003224
:100AB0000092019A521C0192009A12B9019A9A422C
:100AC000F3D10268920333D5012100911A490A68D3
:100AD00042F010020A600A6822F003020A600A6803
:100AE00042F002020A604168416041684160416829
:100AF00041F480614160416821F47C1141604168AA
:100B000041F4E8114160016841F0807101600168C1
:100B10008901FCD5416821F003014160416841F041
:100B2000020141604168C1F381010229FAD10CBD83
:100B300000910CBD001002400020024070470000F0
:100B40000F4810B5016841F00101016041680D4A8C
:100B50001140416001680C4A11400160016821F4B4
:100B600080210160416821F4FE0141604FF41F01C2
:100B70008160FFF78FFF05494FF00060086010BDEE
:100B8000001002400000FFF8FFFFF6FE08ED00E055
:100B900070B50D4C40F227752946204600F071F8DB
:100BA00020B100222946204600F08AF840F2255163
:100BB000204600F066F8002804D0204600F048F9EE
:100BC0000249087070BD000000380140000000209C
:100BD00070B50F4C40F227752946204600F051F8B9
:100BE00020B100222946204600F06AF840F2255143
:100BF000204600F046F8002809D0204600F028F9E9
:100C00000449C0B20870BDE87040FFF7A1BD70BDD7
:100C100000440040000000200029818902D041F4F6
:100C2000005101E021F400518181704710B5104955
:100C300004464FF41650086000228A80CA800A8158
:100C40008A810C204881204600F052F8012240F2AF
:100C50002551204600F034F8012240F22771204649
:100C600000F02EF82046BDE810400121FFF7D4BF68
:100C7000380100200246002012880A4200D00120DC
:100C8000704730B501F01F0201240025C1F3421363
:100C900004FA02F2012B0FD0022B0FD0838A4FEA05
:100CA00011210088134204FA01F400EA040001D083
:100CB00000B10125284630BD8389F0E7038AEEE7BD
:100CC00010B5C1F3421301F01F040121A140012B13
:100CD00007D0022B07D01430002A026805D00A433F
:100CE00004E00C30F8E71030F6E78A43026010BDEC
:100CF00030B50446008A85B00D464CF6FF710840B9
:100D0000E98801432182A1894EF6F3100140A888A9
:100D10002A8910436A890A431043A081A08A4FF6AA
:100D2000FF410840A9890143A1826846FFF768FE98
:100D30001948844201D1039800E00298A18909046E
:100D400000EBC00101EB0010296801D5490000E06B
:100D50008900B0FBF1F06422B0FBF2F109010B094C
:100D60006FF018056B4300EB8300A3891D044FF05F
:100D7000320306D503EBC000B0FBF2F000F0070031
:100D800005E003EB0010B0FBF2F000F00F000843A9
:100D9000208105B030BD0000003801400FB47FB5A0
:100DA00005460AAC0FE05C2914D002F101022529A6
:100DB00009921DD0284600F04FF840212846FFF741
:100DC00059FF0028F9D0099A11780029EBD17FBC8E
:100DD0005DF814FB521C099210786E2803D072281B
:100DE0000BD10D2100E00A21284600F035F816E06D
:100DF0001078642817D0732802D0521C0992DCE7BF
:100E000040CC09E0284600F027F840212846FFF7AB
:100E100031FF0028F9D0761C31780029F2D10998E9
:100E2000401C0990C9E701CC0A22694600F08CFCFD
:100E30006E4609E0284600F00FF840212846FFF7EB
:100E400019FF0028F9D0761C31780029F2D1E6E7A5
:100E50008088C0F308007047C1F3080181807047A3
:100E6000FEE700000FB4084B10B504A902AA0398CE
:100E700000F0CEF8044602A9002000F060FC2046F5
:100E800010BC5DF814FB00003F17000802E008C822
:100E9000121F08C1002AFAD170477047002001E0F4
:100EA00001C1121F002AFBD1704700002DE9FF5F2E
:100EB000DDE90220010DDDF838B0024318D044F618
:100EC0001050A1F2FF3141430D140F98012820D09A
:100ED000A5EB0B00401C5FEA000A4FF00004474EF0
:100EE000DFF81C91A046504616D5CAF1000728E04D
:100EF0000F98012443A2012808D0002100980F9BDD
:100F0000C0E90021C0E90243BDE8FF9F6FEA0B0181
:100F1000F4E7CBF10000DEE7074612E0F80707D060
:100F20002246334640464946FFF71EF98046894629
:100F30002246334610461946FFF716F904460E4678
:100F40007F10002FEAD1DDE90201BAF1000F42461D
:100F50004B4602DAFFF708F901E0FFF777F904469C
:100F60000E460022284BFFF76BFB03D84FF0FF30F3
:100F7000014607E00022254B20463146FFF7A1FA43
:100F8000FFF746FB102409E0002C0ADB0A220023AD
:100F9000FFF709FA019B30321A55641E50EA01022C
:100FA000F2D1641C019AC4F1110314440F9A012A6E
:100FB00003D0012208430DD10AE0084304D00020E9
:100FC0004FF0110B0F9080E7A3EB0B056D1E0DE0AA
:100FD0005B4504DD4FF0000205F1010504E003DA92
:100FE0004FF00002A5F10105002AECD000980F99FE
:100FF000C0E90231C0E9004586E700000000244056
:101000000000F03F300000000000F0430000E03F2F
:101010002DE9FF4F95B09B468946064600250FE215
:10102000252877D100242746F84A0121059400E0BD
:10103000044316F8013F203B01FA03F01042F7D1B8
:1010400030782A2811D06FF02F033078A0F13002C9
:10105000092A16D8059A44F0020402EB820203EB37
:1010600042021044761C0590EFE759F8042B0592D4
:10107000002A03DA504244F40054059044F002047C
:10108000761C30782E2816D116F8010F44F004048F
:101090002A280DD06FF02F023078A0F13003092BF1
:1010A00009D807EB870302EB4303C718761CF3E765
:1010B00059F8047B761C30786C280FD006DC4C285D
:1010C00017D068280DD06A2814D104E0742810D0F5
:1010D0007A280FD10DE044F400140AE044F480149F
:1010E00001E044F440147278824202D104F5801485
:1010F000761C761C307866280BD013DC582877D005
:1011000009DC002875D04528F6D04628F4D04728B9
:101110001AD19DE118E0632835D0642879D065287C
:1011200012D195E1702873D008DC6728F1D06928C6
:101130006FD06E280DD06F2806D1B5E073282CD063
:10114000752875D0782874D05A46179990476D1C29
:1011500075E1C4F30250022809D003280DD0D9F854
:10116000001004280DD00D6009F1040967E1D9F8D9
:101170000010EA17C1E90052F6E7D9F800100D8017
:10118000F2E70D70F0E719F8041B8DF8001000204D
:101190008DF80100EA46012003E059F804AB4FF056
:1011A000FF3061074FF0000102D40DE008F10101AA
:1011B0008846B9420FDA8045F8DB1AF80810002992
:1011C000F4D108E008F1010188468142FADB1AF8FF
:1011D00008100029F6D105985B46A0EB08072146C8
:1011E0003846179A00F094FA284400EB080507E007
:1011F0004DE029E10DE01AF8010B5A461799904786
:10120000B8F10108F7D25B4621463846179A13E138
:1012100042E00A220092C4F302524FF0000A022A6E
:1012200008D059F804CB032A4FEAEC710AD00DE03C
:1012300029E02AE009F1070121F00702F2E802C1E2
:10124000914609E00FFA8CFC4FEAEC71042A03D1B5
:101250004FFA8CFC4FEAEC71002907DA0A460021AC
:10126000DCF1000C61EB02012D2202E0220504D525
:101270002B228DF80420012203E0E20701D0202276
:10128000F7E7904659E00A2102E010220DE0102114
:101290004FF0000A00910BE010224FF0000A44F0DA
:1012A00004040827009203E008224FF0000A00928D
:1012B000C4F30252022A05D059F804CB0021032AB4
:1012C00008D009E009F1070121F00702F2E802C1A4
:1012D000914605E01FFA8CFC042A01D10CF0FF0CAA
:1012E0004FF00008220728D5702806D0009B83F015
:1012F000100353EA0A0305D00EE040228DF80420C3
:10130000012208E05CEA010206D030228DF80420B8
:101310008DF8050002229046009B83F0080353EAF3
:101320000A030AD15CEA010201D1620705D5302225
:101330008DF804204FF001087F1E582804D034A0F7
:1013400003900EA802900DE036A0F9E753466046E0
:10135000009AFFF728F884460398825C0298401EA2
:10136000029002705CEA0100F0D1029806A9081A06
:1013700000F1200A600702D524F4803400E0012740
:10138000574502DDA7EB0A0000E0002000EB0A0150
:10139000009005984144401A0590E00306D45B464E
:1013A0002146179A059800F0B3F90544002706E096
:1013B00001A85A46C05D179990476D1C7F1C474590
:1013C000F6DBE0030CD55B462146179A059800F042
:1013D0009FF9054404E030205A46179990476D1C48
:1013E0000099481E00900029F5DC08E00298029957
:1013F0005A460078491C0291179990476D1CBAF122
:101400000001AAF1010AF1DC65E1000009280100F0
:10141000303132333435363738396162636465666A
:10142000000000003031323334353637383941422C
:10143000434445460000000000F058F90544761C7E
:10144000307800287FF4ECAD19B02846BDE8F08F65
:10145000620700D4062709F1070222F0070CFCE816
:101460000223E14603F000485FEA080C02D00FF2C5
:10147000702C0DE05FEA045C02D50FF2682C07E0E7
:101480005FEAC47C02D00FF2602C01E0AFF2700C76
:101490004FF0FF3823F00043CDF850C065280CD042
:1014A00006DC452809D046281DD047283DD13DE01F
:1014B000662818D067287ED138E00021112F01DB83
:1014C000112000E0781CCDE9000106A90EA8FFF765
:1014D000EDFCDDE90F010E9A03910021009207F166
:1014E000010A04914DE04FF000400097CDE9011052
:1014F00006A90EA8FFF7DAFCDDE90F0203920E9BA6
:1015000011990022DDF80CA00093049211B9791C06
:1015100000EB010AB7EB0A0004D4C0F1FF3007F179
:10152000010A0490AAEB0700019044E0012F00DAC1
:1015300001270021112F01DD112000E03846CDE9FF
:10154000000106A90EA8FFF7B1FCDDE90F010E9A14
:101550000391002104910092BA4621070CD403990B
:10156000514500DA8A46BAF1010F05DD009AAAF169
:101570000101515C302908D0B84202DA10F1040FA1
:1015800006DA0121CDE9011015E0AAF10101E9E730
:10159000002805DC049901440491AAEB000102E053
:1015A000411C514500DD8A460499401A401C0190B7
:1015B0004FF000400290200704D40198504501DB11
:1015C000CDF8048000208DF84F0002980DF14F07F0
:1015D000B0F1004F25D02B200E9002984FF002085A
:1015E00000280CDA404202902D200E9007E00A21DC
:1015F0000298FEF7C2FE3031029007F8011DB8F1E3
:101600000001A8F10108F2DC02980028EFD1791E50
:101610000E980870307800F0200040F0450007F880
:10162000020D12A8C01B00F107081498007800B141
:10163000012000EB0A01019801EBE071059841449B
:10164000401A401E0590E00306D45B462146179AD7
:10165000059800F05DF805441498007818B15A46D2
:10166000179990476D1CE00324D55B462146179AD5
:10167000059800F04DF805441CE00498002807DBAD
:10168000DDE90301884203DD0098405C179901E021
:10169000179930205A469047049805F10105401CDF
:1016A00004900198401E019004D12E205A461799AB
:1016B00090476D1CBAF10001AAF1010ADDDC05E0DA
:1016C00017F8010B5A46179990476D1CB8F10001A5
:1016D000A8F10108F4DC5B462146179A0598ABE6B1
:1016E0002D0000002B000000200000002DE9F0413B
:1016F000044600251E461746880404D405E03946F2
:101700002020B0476D1C641EF9D52846BDE8F08145
:101710002DE9F041044600251E469046C80301D538
:10172000302700E02027880404D505E041463846EC
:10173000B0476D1C641EF9D52846BDE8F0810A68E3
:10174000531C0B6010707047F0B500260B463546F1
:101750000A2A02D00D701846F0BD00281FD006DA04
:101760004FF02D021A7001F10103C0F1000042F2A6
:1017700010744FF00A0700BF90FBF4F252EA060C17
:1017800006D002F1300603F8016B02FB14000126BB
:1017900094FBF7F4002CEFDC1D700846F0BD302000
:1017A00018704B1CF8E70000EAB0FFF71BF9FFF7D1
:1017B000A3F8FFF711F8754D2846FFF737FA74487C
:1017C000FFF734FA734C20212046FFF790F872A1FE
:1017D0002846FFF7E3FA20212046FFF786F87448F1
:1017E000FEF7F1FF6FF00E0B72A16848FFF7D6FA13
:1017F000714CB4F90600FEF7AFFD00226F4BFEF707
:1018000025FD81468A46B4F90400FEF7A5FD5A4637
:10181000FEF78BFD0422FEF788FD07468846B4F9E3
:101820000200FEF799FD5A46FEF77FFD0422FEF7FF
:101830007CFD05460E46B4F90000FEF78DFD5A46C4
:10184000FEF773FD0422FEF770FD8DE8E007024607
:101850000B465BA106A8FFF705FB0834B4F90400AA
:10186000FEF77AFD5A46FEF760FDDFF89091002200
:101870004B46FEF779FC07468846B4F90200FEF7AE
:101880006BFD5A46FEF751FD00224B46FEF76CFCFD
:1018900005460E46B4F90000FEF75EFD5A46FEF717
:1018A00044FD00224B46FEF75FFC8DE8E001024656
:1018B0000B4653A11FA8FFF7D5FA0834B4F904006A
:1018C000FEF74AFD5A46FEF730FDDFF85C91002234
:1018D0004B46FEF749FC07468846B4F90200FEF77E
:1018E0003BFD5A46FEF721FD00224B46FEF73CFC2D
:1018F00005460E46B4F90000FEF72EFD5A46FEF7E7
:1019000014FD00224B46FEF72FFC8DE8E0010B464C
:10191000024646A138A8FFF7A5FA0834B4F9040036
:10192000FEF71AFD07468846B4F90200FEF714FDDB
:1019300005460E46B4F90000FEF70EFD8DE8E00105
:101940000B46024644A151A8FFF78CFA06A90F489E
:10195000FFF724FA1FA90D48FFF720FA38A90B4812
:10196000FFF71CFA51A90948FFF718FA094C202182
:101970002046FEF7BAFF4148FEF725FF202120460A
:10198000FEF7B5FF3E48FEF71EFF2DE70038014089
:1019900000440040000C0140494D55204A5939305F
:1019A0003120B2E2CAD4B3CCD0F20D0A000000005C
:1019B000C0E1E4000D0A00000800002000005940CA
:1019C000BCD3CBD9B6C83A41783D252E33662041E9
:1019D000793D252E336620417A3D252E3366202819
:1019E0002A392E386D5E322F7329CEC2B6C83A54CA
:1019F0003D252E336620286F290D0A0000409F40A8
:101A0000BDC7CBD9B6C83A57783D252E3366205787
:101A1000793D252E336620577A3D252E33662028C2
:101A20006F2F73290D0A000000806640BDC7B6C83D
:101A30003A526F6C6C3D252E336620506974636892
:101A40003D252E3366205961773D252E33662028AB
:101A50006F290D0A00000000B4C5B3A13A48783DD3
:101A6000252E33662048793D252E336620487A3D61
:101A7000252E336620286D47290D0A008096980090
:101A800060E31600A41A00080000002038010000DE
:101A9000F6060008BC1A00083801002010040000F7
:101AA0009C0E0008012805F654657374450204066F
:0C1AB000082D01020304042506070809A4
:0400000508000131BD
:00000001FF
