:020000040800F2
:1000000088060020CD010008D5010008D7010008AE
:10001000D9010008DB010008DD0100080000000034
:10002000000000000000000000000000DF010008E8
:10003000E101000800000000E3010008D10400080D
:10004000AD060008B90300082505000813040008E0
:10005000AB0200080F0400089D020008A10200087E
:10006000A3020008A5020008A7020008E701000893
:10007000E7010008E7010008E7010008E7010008C0
:10008000E7010008E7010008E7010008E7010008B0
:10009000E7010008E7010008E7010008A9020008DD
:1000A000270500082D0500082B0500082905000874
:1000B0002F0500083105000833050008B3030008C8
:1000C000B1030008B7030008B503000817040008CF
:1000D00019040008A5060008A7060008A9060008DC
:1000E0009F02000811040008AB0600083B05000849
:1000F000410500083F0500083D0500087F02000893
:10010000AD02000815040008350500081B040008AE
:10011000A1060008A30600083705000839050008F5
:100120008102000883020008850200088702000897
:1001300000F002F800F03AF80AA090E8000C8244BF
:100140008344AAF10107DA4501D100F02FF8AFF29C
:10015000090EBAE80F0013F0010F18BFFB1A43F0A5
:10016000010318476806000088060000103A24BF03
:1001700078C878C1FAD8520724BF30C830C144BF0C
:1001800004680C607047000000230024002500264E
:10019000103A28BF78C1FBD8520728BF30C148BFEA
:1001A0000B6070471FB51FBD10B510BD00F031F8D2
:1001B0001146FFF7F7FF00F07BFA00F04FF803B4A9
:1001C000FFF7F2FF03BC00F053F800000948804736
:1001D00009480047FEE7FEE7FEE7FEE7FEE7FEE729
:1001E000FEE7FEE7FEE7FEE704480549054A064B41
:1001F00070470000D5040008310100088800002085
:10020000880600208802002088020020704770477E
:100210007047754600F028F8AE460500694653461B
:1002200020F00700854618B020B5FFF7DDFFBDE8D8
:1002300020404FF000064FF000074FF000084FF04D
:10024000000B21F00701AC46ACE8C009ACE8C009DE
:10025000ACE8C009ACE8C0098D4670470446AFF36E
:1002600000802046FFF7ABFF0048704724000020C5
:1002700001491820ABBEFEE7260002007047704718
:10028000704770477047704701B503480099416057
:1002900041680029FCD108BD00000020704770476C
:1002A00070477047704770477047704770472DE937
:1002B000F0410022CC7804F00F03E40601D58C78DD
:1002C00023430C784FF00F0714F0FF0F4FF0010C91
:1002D0001CD005680CFA02F40E882640A64211D103
:1002E000960007FA06F825EA080503FA06F848EA30
:1002F0000505CE78282E02D0482E02D002E04461B7
:1003000000E00461521C082AE4D305600A88FF2A31
:100310001ED94568002202F108060CFA06F40E8880
:100320002640A64210D1960007FA06F825EA0805ED
:1003300003FA06F848EA0505CE78282E00D1446174
:10034000CE78482E00D10461521C082AE3D34560C0
:10035000BDE8F081F0B5154C002801DAE36900E052
:100360006368C0F30346420D120185B2C0F3015722
:100370009540032F07D0C2020CD50322B24093430D
:1003800043F0706209E023F07062636823F07063E9
:10039000636002E0AB4343F0706201B12A4300287E
:1003A00001DAE261F0BD6260F0BD000000000140D2
:1003B000704770477047704770470000054A002932
:1003C00003D0D1690143D1617047D1698143D161C3
:1003D0007047000000100240054A002903D09169CF
:1003E00001439161704791698143916170470000B9
:1003F0000010024010B500F06DF801210846FFF72B
:10040000EBFF0121BDE810407C20FFF7E5BF7047FE
:10041000704770477047704770477047AFF3008070
:100420000CB50022019200922748016841F4803106
:1004300001604FF4A063016801F40031009101995B
:10044000491C0191009911B901999942F3D10168B0
:10045000890302D50121009100E000920099012951
:1004600030D11A490A6842F010020A600A6822F084
:1004700003020A600A6842F002020A6041684160B1
:1004800041684160416841F480614160416821F404
:100490007C114160416841F4E8114160016841F01C
:1004A0008071016001688901FCD5416821F0030178
:1004B0004160416841F0020141604168C1F381013E
:1004C0000229FAD10CBD00000010024000200240B9
:1004D00000F0DCB810B50F48016841F0010101607F
:1004E00041680D4A1140416001680C4A11400160A9
:1004F000016821F480210160416821F4FE0141601E
:100500004FF41F018160FFF789FF05494FF000603C
:10051000086010BD001002400000FFF8FFFFF6FE6B
:1005200008ED00E0704770477047704770477047AC
:100530007047704770477047704770477047704703
:100540007047002904D0018841F001010180704703
:10055000018821F0010101807047000030B5028C54
:1005600022F001020284028C8388048B24F0700440
:1005700024F003050C882C4322F002020D89154358
:100580004A882A43124DA8420BD0124DA84208D0E7
:10059000114DA84205D0114DA84202D0104DA842DD
:1005A0000FD122F008054A892A4322F004058A88DF
:1005B0002A4323F4807323F400738D891D43CB8970
:1005C0002B4383800483C9888186028430BD000068
:1005D000002C014000340140004001400044014033
:1005E00000480140028B22F008020A430283704750
:1005F00030B502881B4C1C4DA0420DD0A8420BD038
:10060000B0F1804F08D0194B984205D0184B984252
:1006100002D0184B984203D122F070034A881A4343
:10062000154B984206D0154B984203D022F44073E4
:10063000CA881A4302808A8882850A880285A04275
:100640000AD0A84208D00E4A904205D00D4A9042E6
:1006500002D00D4A904201D1097A0186012181829E
:1006600030BD0000002C0140003401400004004077
:1006700000080040000C0040001000400014004042
:1006800000400140004401400048014003484168E7
:10069000002902D04168491E4160704700000020D7
:1006A0007047704770477047704770477047000049
:1006B0001FB50024FFF79EFE00F044F84FF0E02045
:1006C0001C4941611C4AF021117000218161072100
:1006D00001611A4DDFF868B049F640464FF47A6779
:1006E0004FF001084FF070094FF0020A44B128683A
:1006F0000A3828602868B04206D92E60012407E035
:1007000028680A302860F5E7B84201D22F6000243B
:100710000120FFF7B9FDADF80090ADF80280288800
:10072000ADF80600ADF808A069465846FFF716FF79
:10073000DCE700003F19010023ED00E0000000208D
:100740000008004038B501210420FFF737FE4FF4C0
:100750008054ADF8004018218DF8031003218DF866
:10076000021069461548FFF7A2FD01212046FFF758
:10077000F1FD134802210180002444804BF67F31B3
:100780008180C48004720F4D01462846FFF730FF78
:100790000B4970200A310880012048800A480288ED
:1007A000CA800C812846FFF7D9FE08212846FFF7AA
:1007B00019FF01212846FFF7C4FE38BD001401408F
:1007C000080000200008004000000020EC0700089E
:1007D00000000020080000006C010008F407000879
:1007E000080000208006000088010008204E00005C
:0407F0000000000005
:0400000508000131BD
:00000001FF
