:020000040800F2
:10000000F8040020450100089B0200089702000840
:10001000990200088D010008DD07000800000000BB
:10002000000000000000000000000000FD030008C8
:100030008F010008000000003D030008A90400082B
:100040005F0100085F0100085F0100085F01000810
:100050005F0100085F0100085F0100085F01000800
:100060005F0100085F0100085F0100085F010008F0
:100070005F0100085F0100085F0100085F010008E0
:100080005F0100085F0100085F0100085F010008D0
:100090005F0100085F0100085F0100085F010008C0
:1000A0005F0100085F0100085F0100085F010008B0
:1000B0005F0100085F0100085F0100085F010008A0
:1000C0005F0100085F0100085F0100085F01000890
:1000D0005F010008FD0400085F0100085F010008DF
:1000E0005F0100085F0100085F0100085F01000870
:1000F0005F0100085F0100085F0100085F01000860
:100100005F0100085F0100085F0100085F0100084F
:100110005F0100085F0100085F0100085F0100083F
:100120005F0100085F0100085F0100085F0100082F
:10013000DFF80CD000F018F8004800475D08000810
:10014000F80400200648804706480047FEE7FEE71F
:10015000FEE7FEE7FEE7FEE7FEE7FEE7FEE7FEE777
:10016000AD04000831010008064C074D06E0E068C8
:1001700040F0010394E8070098471034AC42F6D3EE
:10018000FFF7DAFF6409000884090008FEE77047FA
:1001900001B5009801E0401E00900028FBD108BD89
:1001A00070B50F4C2020214620801020E0700320E5
:1001B000A0700C4800F01AF84FF40070208018204E
:1001C000094DE0702146284600F010F828152080DF
:1001D0000420E07021462846BDE8704000F006B8D3
:1001E00004000020000C014000080140F0B5CA786E
:1001F000002502F00F03D20601D58A7813430A784E
:100200004FF00F0E12F0FF0F4FF001021CD00468E8
:100210000F8802FA05F63740B74211D14FEA850C34
:100220000EFA0CF724EA070703FA0CF43C43CF78E4
:10023000282F02D0482F02D002E0466100E006617C
:100240006D1C082DE4D304600C88FF2C1ED9446873
:100250005FF0000606F1080702FA07F50F882F4045
:10026000AF420FD14FEA860C0EFA0CF7BC4303FAEB
:100270000CF73C43CF78282F00D14561CF78482F29
:1002800000D10561761C082EE4D34460F0BD4161C5
:10029000704701617047FEE7FEE7704708B54FF40D
:1002A000E06000F041F825208DF8000000208DF876
:1002B00001008DF8020001208DF80300684600F06F
:1002C00001F808BD70B50F23C47801780122F4B19C
:1002D000144C2468457804F4E064C4F5E064240A0E
:1002E000C4F10406E3408478B5401C402C4301F17E
:1002F000E021230181F80034007800F01F018A40DA
:100300004009800000F1E020C0F8002170BD01F03C
:100310001F0082404809800000F1E020C0F88021E1
:1003200070BD00000CED00E002490843024908607E
:10033000704700000000FA050CED00E07047000077
:10034000044A0029916901D0014300E08143916191
:10035000704700000010024010B500F0A7F8BDE89B
:100360001040012144F22D00FFF7EABF30B51F49CC
:100370004A6812F00C031E4A03D0042B01D0082B4C
:1003800021D002604A680F231A4C03EA1212A35CC0
:100390000268DA4042604B68072505EA1323E35CF4
:1003A00022FA03F383604B6805EAD323E35CDA4067
:1003B000C2604968032303EA9131231F595CB2FBF1
:1003C000F1F1016130BD4A684B6802F470124FF0E0
:1003D000020413F4803F04EB924202D04B689B036B
:1003E00001D5054B00E0024B5A43CAE7001002401A
:1003F00000127A000C00002000093D007047000048
:100400000CB50021264801910091026842F4803227
:1004100002604FF4A063026802F400320092019A75
:10042000521C0192009A12B9019A9A42F3D10268C1
:10043000920333D5012100911A490A6842F0100253
:100440000A600A6822F003020A600A6842F00202A7
:100450000A604168416041684160416841F48061DF
:100460004160416821F47C114160416841F4E81128
:100470004160016841F08071016001688901FCD52B
:10048000416821F003014160416841F0020141608F
:100490004168C1F381010229FAD10CBD00910CBD64
:1004A0000010024000200240704700000F4810B5C5
:1004B000016841F00101016041680D4A114041604D
:1004C00001680C4A11400160016821F4802101603B
:1004D000416821F4FE0141604FF41F018160FFF784
:1004E0008FFF05494FF00060086010BD001002400A
:1004F0000000FFF8FFFFF6FE08ED00E070B51F4CAE
:1005000040F22551204600F07AF830B3204600F042
:100510005DF91B49024608781A4B1D18401C0870EB
:100520002A700878184410F8020C0D2815D10878A4
:10053000184410F8010C0A280FD10022124802E0DA
:100540009D5C8554521C0D78AA42F9D30F4B0122B1
:100550001A700B780022C2540A7040F2277529469F
:10056000204600F04CF8002806D029462046BDE879
:100570007040002200F062B870BD000000380140F9
:1005800000000020900000201C000020020000203D
:100590000029818902D041F4005101E021F4005189
:1005A00081817047104910B54FF416520A6000223D
:1005B0008A80CA800A818A810C224A8100F056F81A
:1005C0000A4C012240F22551204600F037F8012262
:1005D00040F22771204600F031F82046BDE8104077
:1005E0000121FFF7D5BF0000800000200038014046
:1005F0000246002012880A4200D00120704730B520
:1006000001F01F0201240025C1F3421304FA02F293
:10061000012B0FD0022B0FD0838A4FEA11210088C3
:10062000134204FA01F400EA040001D000B10125EC
:10063000284630BD8389F0E7038AEEE710B5C1F3A1
:10064000421301F01F040121A140012B07D0022B0E
:1006500007D01430002A026805D00A4304E00C30A9
:10066000F8E71030F6E78A43026010BD30B5044663
:10067000008A85B00D464CF6FF710840E9880143B9
:100680002182A1894EF6F3100140A8882A891043DF
:100690006A890A431043A081A08A4FF6FF410840AF
:1006A000A9890143A1826846FFF760FE1948844288
:1006B00001D1039800E00298A189090400EBC00170
:1006C00001EB0010296801D5490000E08900B0FB6A
:1006D000F1F06422B0FBF2F109010B096FF018058B
:1006E0006B4300EB8300A3891D044FF0320306D552
:1006F00003EBC000B0FBF2F000F0070005E003EBF5
:100700000010B0FBF2F000F00F000843208105B0AC
:1007100030BD0000003801400FB47FB505460AAC7B
:100720000FE05C2914D002F10102252909921DD0A5
:10073000284600F04FF840212846FFF759FF0028CF
:10074000F9D0099A11780029EBD17FBC5DF814FB30
:10075000521C099210786E2803D072280BD10D21FB
:1007600000E00A21284600F035F816E010786428E9
:1007700017D0732802D0521C0992DCE740CC09E064
:10078000284600F027F840212846FFF731FF0028CF
:10079000F9D0761C31780029F2D10998401C0990D3
:1007A000C9E701CC0A22694600F028F86E4609E044
:1007B000284600F00FF840212846FFF719FF0028CF
:1007C000F9D0761C31780029F2D1E6E78088C0F3B1
:1007D00008007047C1F3080181807047FEE702E01E
:1007E00008C8121F08C1002AFAD1704770470020BC
:1007F00001E001C1121F002AFBD17047F0B50026AD
:100800000B4635460A2A02D00D701846F0BD002866
:100810001FD006DA4FF02D021A7001F10103C0F16A
:10082000000042F210744FF00A0700BF90FBF4F290
:1008300052EA060C06D002F1300603F8016B02FB07
:100840001400012694FBF7F4002CEFDC1D70084621
:10085000F0BD302018704B1CF8E700000025FFF7B2
:100860007BFDFFF71BFDFFF79BFC224C2046FFF7AB
:1008700099FE21A12046FFF74FFF23A12046FFF755
:100880004BFF20A12046FFF747FF2448FFF780FCDD
:10089000234E244FDFF890806420FFF779FC3078F6
:1008A0000128F9D10020307020A12046FFF734FF45
:1008B0003878C72813D0CF2813D0B42813D020A15C
:1008C0002046FFF729FF0FA12046FFF725FF4FF035
:1008D000200140464DB1FFF7DAFC0025DCE71EA100
:1008E000EEE71EA1ECE71EA1EAE7FFF7D2FC012527
:1008F000D2E700000038014048656C6C6F20576FEC
:10090000726C64210D0A0000C7EBCAE4C8EBC4E3B3
:10091000B5C4C3D5D3EF3A200D0A0000FFFFEF00A6
:10092000020000201C000020000C01400D0AC4FA47
:10093000B5C4C3D5B5D7CEAA3A200D0A0000000031
:10094000B1A7C7B8A3ACCEDEB4CBC3D5D3EFB4F058
:10095000B0B8A3A100000000B9D40000DFB50000CA
:10096000BFDA000084090008000000201C0000001D
:10097000DE070008A00900081C000020DC040000BD
:10098000EE07000800000000000000000204060856
:100990000000000001020304010203040607080925
:0400000508000131BD
:00000001FF
