:020000040800F2
:10000000505B0020010100080501000807010008FD
:10001000090100080B0100080D01000800000000A4
:1000200000000000000000000000000011010008B6
:100030000F0100080000000063020008E9A60008A4
:10004000CFAE000843A4000889A7000889A50008CE
:10005000578A000885A50008498A00084D8A0008CB
:100060004F8A0008518A0008538A00089D810008C1
:100070003182000833820008358200083782000888
:10008000398200083B8200085D7F0008CBAE000883
:10009000CDAE0008998100089B810008558A0008B0
:1000A0008BA7000891A700088FA700088DA700085C
:1000B00093A7000895A7000897A700084B9200088F
:1000C000499200084F9200084D9200088BA5000845
:1000D0008DA5000841AB0008F9AB0008FBAB000898
:1000E0004B8A000887A50008C9AE00080000000080
:1000F0000000000000000000000000000000000000
:1001000004480047FEE7FEE7FEE7FEE7FEE7FEE7FE
:10011000FEE700001901000800F002F800F063F8A3
:100120000AA090E8000C82448344AAF10107DA4552
:1001300001D100F058F8AFF2090EBAE80F0013F041
:10014000010F18BFFB1A43F0010318476C3201007E
:100150008C3201000A444FF0000C10F8013B13F000
:10016000070408BF10F8014B1D1108BF10F8015B10
:10017000641E05D010F8016B641E01F8016BF9D103
:1001800013F0080F1EBF10F8014BAD1C0C1B09D15A
:100190006D1E58BF01F801CBFAD505E014F8016BCC
:1001A00001F8016B6D1EF9D59142D6D3704700005E
:1001B0000023002400250026103A28BF78C1FBD870
:1001C000520728BF30C148BF0B6070471FB507F00A
:1001D000BDFD0400002000210BF020F8401C6060F1
:1001E0001FBD10B510BD07F08CFD1146FFF7EEFFE7
:1001F0000AF03EFF07F0BCFD03B4FFF7F2FF03BCBB
:1002000007F0FCFD02480349034A044B7047000015
:1002100050530020505B00205057002050570020C2
:10022000EFF3108072B6704780F31088704724484F
:100230004FF0FF010170002080F309881D48012163
:10024000017020484FF08051016062B6FEE71D4802
:100250004FF08051016070471A484FF080510160A3
:100260007047EFF3098028B1203880E8F00F124979
:100270000968086000B50A4880475DF804EB0B4840
:100280000B490A7802700C480C490A680260106831
:1002900090E8F00F203080F309884EF0040E70478C
:1002A000379D0008319700085E00002060000020A4
:1002B00061000020630000208000002088000020F2
:1002C00022ED00E004ED00E072B6704762B67047C0
:1002D000EFF3108072B6704780F31088704700000B
:1002E00030B40246544C0B46401C07D0581C05D075
:1002F0006068411C02D0A1684D1C02D14FF0FF3054
:100300000146C4E9012330BC02F08ABD4A48C068F6
:100310007047494800697047474898212430016078
:1003200040F6AF61416040F21311816040F69A617E
:10033000C1607047F0B5059EEF2408B140F28F14FC
:100340009D1B00D56D42142D04DB8D1A00D56D4226
:10035000142D01DA0120F0BDF51A4E42521A6E43F7
:10036000354F96FBF2F62437611A4D4395FBF2F1B7
:100370001E4447F83060194407EBC000416000207C
:10038000F0BD2D4B10B5243353F8304003EBC000C3
:100390000C604068106010BD70B5274D264C2435A8
:1003A000D5E90001884202DAC4E9050101E0C4E9A7
:1003B0000510D5E90201884202DAC4E9070101E02B
:1003C000C4E90710207838B908F0F6FE206108F07B
:1003D000B8FE2078401C2DE008F0B4FEE06008F084
:1003E000AFFED4E90402E168904208DBA2699042C2
:1003F00005DCE269914202DB226A914203DD4FF0A3
:10040000FF30014613E02A68801A00EB0013C3EBAB
:1004100000206B689A1A90FBF2F2A86840F28F13E2
:10042000091A5943EB68181A91FBF0F11046FFF7CF
:1004300057FF0020207070BDAC0000202DE9F04374
:100440003F4D0446A86987B0B5F92A608069214606
:1004500000F06BF8002847D041680088201A01EBB3
:10046000C004A778304602F039FF62688146CDE9C2
:1004700003722B46012005930290A869C37D827DFB
:10048000CDE90023037D2278B5F92410B5F92200C7
:1004900002F08DFFA869477D017D8F4219D9C07D8B
:1004A000474301FB00F8022E13D002F09BFB0646E7
:1004B00002F08FFB02F08AFCB5F922002178421885
:1004C000B5F92410CB19414402F051FF304602F037
:1004D0007DFC484602F002FFAA69B5F92200617866
:1004E000927D01FB0200688407B0BDE8F08370B51F
:1004F000134C0546A0692946806900F016F80028CB
:1005000007D041680088281A11F83000A169897D58
:10051000484370BD01200880704710B5806900F025
:1005200004F8002800D0012010BD06E002888A42AD
:1005300002D842888A4202D280680028F6D17047E9
:10054000F42A00202DE9FC4104460D4616461F46BC
:10055000042002F0C3FE30498046086C496C044414
:1005600006440D440F44ADF80040ADF80460ADF80A
:100570000250ADF80670684601F0FBFE07E03B460E
:1005800032462946204602F0F2FE01F0CBFE00285A
:10059000F5D1404602F0A2FEBDE8FC8110B5002175
:1005A000084602F039FB40F6FF725042BDE81040A9
:1005B00013460146C6E770B518492E20087008F0AA
:1005C00039FE1748144C0068251D2561A064201DC4
:1005D00003F026F81348A06513482561A0610120A7
:1005E000207504F0CFF8A087032084F85C006FF03A
:1005F000704020636063002002F0E8FF6FF07F40EE
:1006000002F0F0FF0948E06102F0BFFF044602F08B
:100610008BF8204670BD0000F42A0020E000002086
:100620009801002054BD0008E0F100089CEA000891
:1006300030B4F74BB3F902408C4210DCB3F90640FA
:100640008C420CDBB3F90040844208DCB3F904307F
:10065000834204DBEF4B1B685B6A30BC184730BC3D
:100660007047EB4AB2F902308B420DDCB2F906302A
:100670008B4209DBB2F90030834205DCB2F9042079
:10068000824201DB08F091BF00207047E04A10B5BC
:10069000203A9068002813D041681369591A02F172
:1006A0001803198084685269121B5A8004682488D0
:1006B0002144491E9980006840881044401ED8801B
:1006C00010BDD34910B52039097849B120B1D049BE
:1006D000083902F051FB18B100F082F9012010BD79
:1006E000002010BD00F087B9C94920398878401E24
:1006F00010F0FF00887001D100F07DB97047C44A46
:10070000203A9078411C9170002801D100F068B91E
:1007100070472DE9F047BE4F0646203FB868814636
:1007200086422FD035680424E8680068042800DC7D
:100730000446DFF8DC8208F1080807E0E868806812
:1007400050F8240002F03AFF28F81400641EF5D295
:1007500000F046F92888698848434400F8688442D4
:1007600005D0B7F9040002F0D5FC0020B88020B213
:1007700002F0BEF9B88001207870BE60FFF786FFF6
:1007800000F039F94846BDE8F08710B500F028F9C7
:100790009F490020203948709F4908609F490860A0
:1007A00010BD10B59E48806C016A9948884700F0DA
:1007B00017F99748012120384170974A99491160EB
:1007C000964A99491160806818B9BDE81040974869
:1007D0009FE7BDE8104000F00EB92DE9F34F8C4BB8
:1007E0008FB0203BB3F9040000287ED001221C69A1
:1007F0000F9D1146AC4200D100215C69109DAC42B6
:1008000000D10022114370D0814920394978002954
:100810006CD07F4C203CA1680968039102F032FC47
:100820000490A0680068018805910F9B2269A3EBE2
:1008300002084FF0FF33B8F1000F08DD01220D92DE
:1008400000220C91491ECDE90A180E9208E0491EBB
:10085000CDE90D310021CDE90B130E9941440A91E8
:10086000109A6169A2EB010BBBF1000F08DD0121B9
:100870000991408800250890401ECDE9060B8DE0C7
:10088000099345886D1E0020CDE9070305EB0B0099
:10089000069083E00799002005EB0B078D4203DBF0
:1008A00006998D4200DC01200290079900208F42BA
:1008B00003DB06998F4200DC012001900E9C68E06A
:1008C000049804EB080600EB440105982A466843A7
:1008D00001EB40092146039802F034F900210B9AFC
:1008E00082460846944208DB01E065E05AE00A9A35
:1008F000944202DC029A02B101200B9A964205DB77
:100900000A9A964202DC019A02B101210091BAF1E1
:10091000000F14D038B1A5EB0B02A4EB080103982B
:1009200002F010F958B93A48B9F800200838B0F97F
:100930000210B0F9000029442044FFF779FE009826
:1009400038B1049800EB46010598784331F810005F
:100950000AE02F480838B0F90210B0F90000394415
:100960003044FFF77EFE80B2A9F80000BAF1000F14
:100970000DD0504600F023F882B225480838B0F96F
:100980000210B0F9000039443044FFF751FE0D98D1
:1009900004440C98844293D10998054408988542F0
:1009A0007FF478AF1A490F98203908611098486190
:1009B00011B0BDE8F04F69E611B0BDE8F08F042832
:1009C00004DA1349083131F8100070471049203912
:1009D00089680968C968896851F8200002F0EEBD8D
:1009E00010B50B4C203C2078002803D000F020F8F4
:1009F0000020207010BD064820384178002906D01C
:100A00008178002903D10121017000F047B87047B7
:100A10001C01002098010020F4000020F8000020B4
:100A2000F42A0020C3060008E506000890EA000842
:100A30002DE9F0473D4CB4F9040000282DD002F018
:100A400021FB064604F11800B0F90410B0F90020AB
:100A500080468F1AB0F90610B0F902207F1C891A5F
:100A600001F101090025A24615E000240AE0B8F9C9
:100A70000210B8F9000036F8142029442044FFF78A
:100A8000D7FD641CBC42F2DBDAF808006D1C00687C
:100A9000008806EB40064D45E7DB74E62DE9F0479C
:100AA0002249B1F9040000283ED08968D1F800A09D
:100AB00002F0E8FA1D4F06461837B7F90400B7F9F7
:100AC0000010401A00F10108B7F90600B7F902104A
:100AD000401A00F10109002524E000241BE0B7F9C9
:100AE00002004119B7F900002044FFF7BAFD26F8CB
:100AF00014002A462146504602F024F850B1FFF770
:100B00005EFF0246B7F902004119B7F90000204420
:100B1000FFF78EFD641C4445E1DBBAF800006D1C54
:100B200006EB40064D45D8DB2DE60000FC0000201A
:100B30003F48006870473E49024608680A607047AF
:100B40003EB500226C46134615462CC42A2202915B
:100B50000092694601F019F93EBD0EB500226946C2
:100B60001346944681E80C102A210091694601F051
:100B70000CF902980EBD2DE9F8430D4616461946AC
:100B8000DDE90823044600962668B047064603F0D0
:100B9000EDFD8046618A304603F0FAFB304603F0F3
:100BA0004CFF404607E00023009354F8187F1A4694
:100BB00041462046B84703F040FF6D1E002DF2DC91
:100BC000304603F0A7FE1E21404603F022FE3046C9
:100BD000BDE8F88370B505460C46FFF7BEFF08B1C7
:100BE000012112C02846BDE8704001F0F8B81CB5DC
:100BF0000022694613460CC16946FFF7A1FF04E0D5
:100C000001F094FF08B908F011FB00980028F7D014
:100C100001981CBD7CB514461D46DDE90623CDE9CF
:100C200000232B462246FFF7A6FFBDE87C40DEE707
:100C30002C0100202DE9F04704468AB008464FF009
:100C4000000803F04DFD04EB8000806E02F0BEFC56
:100C5000206E02F0C7FCE06D02F0DAF804A920462D
:100C600001F0E0F908A9204603F03EFBB4F92800A2
:100C700010B102F007FA8046DDE90801CDE906016E
:100C8000BDF81810A06D02AA0144491CADF8181057
:100C9000BDF81C10081A401EADF81C0006A94046FD
:100CA000636D01F0F5FDE08CC00745D0CDF8048000
:100CB00094F84900012500B10546B8F1000F3BD07A
:100CC00094F8480008B9606C30B3404601F030FE3B
:100CD000216C814220DA606CA8B100250E460AE042
:100CE0003146404602F0DBF8404402F0B9F802F029
:100CF000B7FA0544761CD4E910010844B042EFDC91
:100D000055B9012508E0404602F0C9F8404402F018
:100D1000A7F802F0A5FA0546DDE90269002708E018
:100D200001A802F0A9F802F09BFA304460F30F0624
:100D30007F1C206CB842F3D1002001F01AFB002880
:100D400022D04FEA264A6D1E36B235444FEA294773
:100D500008A803F051FE02AB06AA08A9404603F01A
:100D60003FFCE08CC00705D03B462A465146304642
:100D700001F05AFF002003F03FFE204603F00DFC77
:100D800001F0D0FA0028E3D10AB0BDE8F08770B5D1
:100D90000546B0F928000C46002819D002F072F977
:100DA00001F0C6FD95F8481001B10121002C00DAD0
:100DB0000024844200DD0446B5F92A00401AA0420E
:100DC00000DA0446286CA04200D02C64002068643D
:100DD00070BD2DE9F84F5FEA00090C4656D0484631
:100DE00002F050F90546B0F9280000284ED002F074
:100DF00049F90090E86D02F00BF88246484603F08E
:100E0000D5FC0746009801F0F4FE0646686D00F038
:100E10000300012808D002280CD1B81B401C00EBAD
:100E2000D070A4EB60040BE0A96DB81B401A241A23
:100E3000641C05E0296AA86D49690844241A641EE7
:100E4000009801F075FD8046002C01DA002114E0C5
:100E5000B44201DD414610E00026374608E068460E
:100E600002F00AF802F0FCF90744A74204DC761C01
:100E7000464501DAA742F2DB31462846FFF787FFF5
:100E8000504601F0C5FF484601F00BF9BDE8F88F68
:100E900070B50446808D4618B4F92800314602F03A
:100EA000E7F9050009D0208D20B9284602F0EAF8BC
:100EB00000210170A6852585012070BD70B504460E
:100EC0000D46B4F92810002021B1084602F0DAF8E6
:100ED00006F016FDA18D2844411A491C002905DDA4
:100EE00010312046FFF7D4FF002800D0012070BD4C
:100EF00070B50546B1F928000C46002819D002F05B
:100F0000C1F80646216C01F0CAFF0446304606F0DF
:100F1000F7FCA0420DD93444204601F09DFF211872
:100F2000204606F0C9FC2846BDE87040052103F0C4
:100F300068BC70BD70B50446B4F9281000200029C3
:100F40000BD0084602F09EF80546216C01F0A7FF81
:100F50002844BDE8704001F083BF70BD70B5060045
:100F60000D467CD0304602F08DF8040077D0E26C5C
:100F70001AB12946304690476CE0122D66D019DC34
:100F8000082D3DD00D2D65D0102D33D0112D4ED113
:100F9000B4F9280000285DD002F074F80546216CF1
:100FA00001F07DFF4419204601F05AFF7F2851D2FD
:100FB000401C19E0132D06D01B2D4BD01D2D29D020
:100FC0001E2D34D121E0B4F92800002842D002F0CF
:100FD00059F80546216C01F062FF4419204601F0E2
:100FE0003FFF202836D9401E20700521304603F0EF
:100FF00008FC2FE0216C491E2046FFF7C8FE29E0BF
:10100000216C2046491EFFF7C2FE21463046FFF7FD
:101010006FFF1FE094F84800012803D1002084F8F6
:10102000480017E0012084F84800216CE4E7202DF7
:1010300010DB94F8480018B121463046FFF758FFFE
:10104000AAB22146304600F099F918B1216C491C2A
:10105000D2E704E03046BDE8704001F022B870BD30
:101060002DE9F041B0F904700446384602F00AF860
:101070000546384603F034FB06462146384603F061
:10108000B3F900282CD020680B2813D00C2808D0E6
:101090000E2814D00F281ED139462846BDE8F0414D
:1010A000C8E5A068B8B1017AA9B101683846FFF770
:1010B00090FE10E005F1280002F031F80BE056B187
:1010C000A0684168002906DD0168092903D0384677
:1010D000BDE8F04142E72046BDE8F04101F0D0BA5A
:1010E000BDE8F0812DE9FF4105460E46DDE90A0124
:1010F00089B2DDE90D8417469C4641F480515023A6
:10110000BD4A41F002018DE80F0063463A46314680
:10111000284600F0C8FF060021D0304601F0B2FF9B
:1011200005461022414603F059F91C22B34905F146
:10113000540006F08BFC012185F84910082004B109
:10114000204601B269850020A8852885491C2846CB
:10115000FFF79EFE18B9304600F041FE00263046EB
:1011600004B0BDE770B504000D460AD0204601F07A
:1011700089FF002805D0C5652046BDE8704000F015
:1011800090BF70BD70B505000C4616460ED02846BF
:1011900001F078FF002809D0022C07D200EB840070
:1011A00086662846BDE8704000F07BBF70BD70B514
:1011B00005000C4616460ED0284601F063FF0028B5
:1011C00009D0022C07D200EB840006662846BDE851
:1011D000704000F066BF70BD2DE9F0415FEA000885
:1011E0000E4641D0404601F04DFF04467EB3B4F9AF
:1011F0002800002520B101F045FF06F081FB451CC9
:10120000304601F095FBB4F92A10814200DA084615
:101210000146304601F043FE471C791B2046FFF78C
:101220004DFEE0B1B4F9280001F02CFF3A463146FA
:1012300006F085FB7F1E2764B4F92A0087420ED191
:1012400094F8480001280AD17F1E276407E0FFE7D1
:1012500004F1280001F063FF0020A08520644046CF
:10126000BDE8F04100F01DBF3AE72DE9F0410C0068
:1012700015461CD000262670002818D001F002FF69
:10128000B0F92800002812D001F0FCFE074601F05A
:101290004FFBA84200DD28460146384601F0FFFD1D
:1012A000054602463946204606F049FB665517E7D3
:1012B00010B501004FF0000003D0084601F0E2FE37
:1012C000C06B10BD70B505000C461BD0284601F060
:1012D000D9FE016BA14200DD0C46416BA14200DA50
:1012E0000C46C16BA1420DD0C463016D09B1284603
:1012F0008847284600F0D5FE2846BDE87040052105
:1013000003F07FBA70BD2DE9F04106000D4624D0F0
:10131000304601F0B7FE0446B0F92A00A8421CD0BE
:101320000FDDB4F9280060B101F0ACFE074601F012
:10133000FFFAA84205DD2946384601F0B0FD00213C
:101340003954A08D291A491C2046FFF7A1FD658557
:101350003046BDE8F04100F0A4BEC1E670B504001F
:101360000D460AD0204601F08DFE002805D04565C7
:101370002046BDE8704000F094BE70BD2DE9F041FC
:101380000546B1F92A000C46904600280DDDB4F957
:101390002810002021B1084601F074FE01F0C8FABF
:1013A000B4F92A10401C884223DC404601F060FD5D
:1013B000064601462046FFF781FDD0B1B4F928006A
:1013C00001F060FE0746216C01F069FD3C182046E3
:1013D00006F096FA421CA019214606F0F5FA41469D
:1013E000204601F041FD0521284603F00AFA0120BC
:1013F00076E6002074E6000061100008300100204D
:10140000F0B50F4615461E460446B0F90820418A3D
:10141000436985B00020CDE9007002A80EC0B4F980
:101420000C00B4F910308119B4F90A00B4F90E2097
:101430002844FFF757FE050003D0618A2846FFF7CE
:101440008DFF284605B0F0BD2DE9FC5FDDE90C6B92
:1014500005000C4617469A4638D03E4850F82600FC
:101460000AF098FA804621460AF0A8FA0AF08CF9A8
:1014700039A4D4E9002309F0E7FE09F05BFD09F087
:1014800097FF8146394640460AF098FA0AF07CF9FF
:10149000D4E9002309F0D8FE09F04CFD09F088FFDB
:1014A0000746514640460AF089FA0AF06DF90CCC1D
:1014B00009F0CAFE09F03EFD09F07AFFCDE9006BA4
:1014C00003463A464946284602F02FFABDE8FC9FFB
:1014D00070B501004FF0000013D0084601F0D2FDB6
:1014E000044690F838001B4951F820000AF052FADF
:1014F0000546E06B0AF036FA2946BDE870400AF06E
:101500006FB970BD70B504000D4621D0204601F0C2
:10151000B9FD90F838000F4951F820000AF03AFA66
:10152000014628460AF04AFA05460AF02DF915F157
:10153000FF4F01D208A300E009A30CCB09F084FE01
:1015400009F036FF01462046BDE87040FFF7BABEFD
:1015500070BD000054EA0008000000000000E03FF9
:10156000000000000000E0BFF0B587B00F46154650
:101570001E4604460C9BB0F908104268408ACDE92B
:1015800004230023CDE90073CDE90201B4F90C0076
:10159000B4F910308119B4F90A00B4F90E202844C6
:1015A00002F0BBFC07B0F0BD2DE9F04104000F468E
:1015B00013D0204601F066FD054602F025FA0646E6
:1015C0002846AF6202F060FC3146284602F030FD4A
:1015D0002046BDE8F04100F064BDBDE8F0810000A8
:1015E0002DE9F04389B08946044605A902F054FE6E
:1015F000012205A907A801F0EEF9BDF92000BDF907
:101600001C10A66C421AB4F94C00121A00EBD070F0
:1016100001EB6007D4E90E1002F10108451A00D170
:101620000125484603F0DAF920B9A06A01F0CEFF9F
:10163000FEF7B4FFDDE907014FF00509CDE903012D
:10164000ADF80E90A26B216CB4F94C00891A01FB25
:1016500008F1B1FBF5F1394400EBD072A1EB620166
:101660000844ADF8100007EB0800ADF80800BDF91C
:101670001200ADF80C10401D00EBD0704FF0FF31A0
:1016800001EB6000ADF80470ADF80600C01CADF8C9
:101690000A0001A9204602F064FF002E06DA98FB3A
:1016A000F9F06E1CB04201DA0B2601E0012E13DDC9
:1016B000002001F097FF0025A6F101090AE008FBD0
:1016C00005F090FBF9F0C11903230122204602F036
:1016D00015FF6D1CB542F2DB206B01F083FF03A9FF
:1016E000204602F02EFF002001F07CFF03A92046D7
:1016F00002F055FFE08CC00707D0002001F072FF18
:10170000002205A9204602F0E9FE09B0BDE8F083F9
:1017100070B505000C4617D0284601F0B3FC816B6C
:10172000A14200DD0C46C16BA14200DA0C46016CFF
:10173000A14209D00464284600F0B3FC2846BDE865
:101740007040052103F05DB870BD2DE9F047824679
:1017500090680C4600285BD0017A4FF4807900290C
:1017600046D0D4E90E218E1AB4F94C104FF001087E
:1017700001EBD172E18C08EB6207090701D54068E3
:1017800000E00068C51B504602F0D9FD794200EB2D
:101790004100002D01DCA56B0FE0854201DBE56B0C
:1017A0000BE0414600B101466E4301EBD17006EB00
:1017B0006000B0FBF1F0A16B4518504603F013F840
:1017C00010B1504603F05AF80121504603F034F8A6
:1017D00029465046FFF79CFFE08CC00518D44946C7
:1017E000504602F0D5FDA08B800711D501210AE0FB
:1017F000E08CC0050CD54946504602F0DCFDA08BBC
:10180000800705D502215046BDE8F04702F0F9BF38
:10181000BDE8F08710B5040011D0204601F032FC7D
:10182000826B016C91420ADD491E0164204600F082
:1018300038FC2046BDE81040052102F0E2BF10BD93
:1018400010B5040011D0204601F01CFCD0E90F2196
:1018500091420ADA491C0164204600F022FC20462D
:10186000BDE81040052102F0CCBF10BD70B5B0F945
:1018700004500446284601F005FC06462146284649
:1018800002F0B2FD002826D020680C2808D00E28CF
:101890000CD00F281AD129463046BDE870409FE68B
:1018A000224631462846FFF750FF0FE0A068D0E9F6
:1018B000001000280ADD102905D0122906D128467B
:1018C000FFF7BEFF02E02846FFF7A4FF2046BDE871
:1018D000704000F0D5BE70BD2DE9FF4105460E46B3
:1018E0000AA890E8130117469C4689B23023484A5B
:1018F00041F001018DE80F0063463A463146284623
:1019000000F0D1FB06001DD0304601F0BBFB0546C0
:101910001022200700D518224146284602F05EFD1D
:101920003C4808210068A8626FF07F40E8623A48AE
:10193000286300206863A5F84C106421C5E90E01F6
:10194000401EA864304604B0BDE8F08170B50500C3
:101950000C460DD0284601F095FBB0F94C10A14281
:1019600006D0A0F84C402846BDE8704000F099BB76
:1019700070BD70B506000C46154614D0304601F017
:1019800081FBA54200DA2546C0E90E45016CA14263
:1019900000DA0464016CA94200DD05643046BDE84C
:1019A000704000F07EBB70BD70B504000D460AD0DB
:1019B000002D08DB204601F065FB85642046BDE86C
:1019C000704000F06EBB70BD70B505000C4611D0C4
:1019D000284601F057FB8462B4F1807F284602D28A
:1019E00002F0E6FF01E002F0CDFF2846BDE87040BE
:1019F00000F057BB70BD07490860704710B5010083
:101A00004FF0000003D0084601F03CFB006C10BD15
:101A10006D1800084C010020C0C0C0007FB504460E
:101A2000084615461E46B4F90830628A00218DE842
:101A30000F00B4F90C00B4F910308119B4F90A00A0
:101A4000B4F90E202844FFF747FF04B070BDF0B58D
:101A50000F4615461E460446B0F90820418A4368E1
:101A600085B00220CDE9007002A80EC0B4F90C00C8
:101A7000B4F910308119B4F90A00B4F90E202844E1
:101A800002F07FFB05B0F0BD70B504000D4608D034
:101A9000204601F0F7FAC5622046BDE8704000F02C
:101AA00000BB70BD70B504000D460DD0204601F09E
:101AB000E9FA2946283000F09BFF002804D0204690
:101AC000BDE8704000F0EDBA70BD70B504000D4681
:101AD00008D0204601F0D6FA45632046BDE87040A4
:101AE00000F0DFBA70BD0000B0F90010B0F90420BA
:101AF000914205DCB0F90210B0F90600814201DD27
:101B000000207047012070477CB50D4601F0BAFAFD
:101B10000446808B81071CD540F60101084001284E
:101B200017D02846FFF7E0FF002812D022462946AA
:101B3000684600F027FF6846FFF7D6FF002808D068
:101B4000A08B810606D504F108016A46084601F01B
:101B500099F87CBDDDE90012C4E9021240F02000D2
:101B6000FB49A083C888401CC8807CBD0B46B0F9E7
:101B70000220B0F90010184601F0B1B87CB5F54C60
:101B80000546A16B21B92846BDE87C4001F052BD55
:101B90000822684605F0D3FEED48B0F9120008B9F6
:101BA000B4F93C0001F06EFA6946FFF7DFFF294601
:101BB000684600F0CAFE684601F03CFD7CBD2DE998
:101BC000F04107460E46304601F05CFA0446808B31
:101BD000800711D52146384600F0B7FEB4F91650FB
:101BE0000DB12E46EFE7DA480A30B0F90000B042F6
:101BF00002D10120BDE8F0810020FBE71CB5D44CE8
:101C0000607818B1BDE81C40D348B7E7D148B0F9B7
:101C10003C0001F037FA03C8CDE90001B4F9121015
:101C200011B16846FFF7CBFF6846FFF7A7FF1CBD61
:101C30002DE9F04706460C0013D0304601F022FA99
:101C4000002141830546C482204601F01BFA074665
:101C5000A88BB7F9189000F00808B9F1000F02D16D
:101C60003E83BDE8F087484601F00CFA0446B8F11F
:101C7000000F05D1A08B000702D5A5F81A90EFE759
:101C8000B4F91A700FB96683EBE7384601F0FAF938
:101C9000B8F1000F05D1818B090702D566836F83E8
:101CA000DFE70446ECE770B5054601F0EBF90446C2
:101CB000B0F9160000280AD001F0E4F90646B0F9A0
:101CC0001800A8420ED101F0DDF9408B308370BDC1
:101CD00001F0D8F90146B0F91A00A84202D1608B90
:101CE000488370BD0028F3D170BD70B50546984893
:101CF000B0F9084008E029462046FFF705FF2046D6
:101D000001F0C0F9B0F91440002CF4D170BD70B5E9
:101D1000054601F0B7F90446C08A002807D02846D6
:101D2000FFF7C1FF2046FFF7E0FF0020E08270BD13
:101D300070B5884CB4F93C6010B98548B0F908001A
:101D4000A08701F09FF9054601F01AFCB5F90000E3
:101D50002064B5F902006064304670BD70B5054678
:101D60007B48B0F908000DE001F08CF9B0F91410CF
:101D70000446A94205D1284601F084F9808AA08250
:101D800070BD08460028EFD170BD70B504000D4647
:101D90000BD0204601F076F90169002905D0AC800E
:101DA00001692846BDE87040084770BD0EB5009136
:101DB000ADF804006946FFF7E8FF0EBD10B5044614
:101DC0006348B0F9080007E0A04201D1012010BD2E
:101DD00001F058F9B0F914000028F5D110BD70B524
:101DE000040047D02046FFF7E9FF002842D02046F4
:101DF00001F048F90546564E0020B082B6F91010A1
:101E0000A14200D13082B6F90E10A14200D1F0817A
:101E1000B16905E0B1F90420A24200D188800968C7
:101E20000029F7D10721204602F0EBFCB5F9180094
:101E300000F021F80B212046FFF7B8FF2046FFF7FE
:101E400066FF2046FFF78AFFA88BC10702D0716AA0
:101E5000491E7162800602D5F088401EF080B0886D
:101E6000401EB080204601F055F9B6F90800BDE8E3
:101E700070405DE770BD70B5044608E0204601F093
:101E800001F9B0F91A502046FFF7A9FF2C46002CA3
:101E9000F4D170BD29E72DE9FC410E4690463EE0A5
:101EA00001F0F0F8848B0546A00736D5B8F1000F95
:101EB00005D042462946684600F064FD03E0D5E9B6
:101EC0000001CDE900016946304600F055FF20B31E
:101ED000E00712D1B5F90200B6F90210884205DD1B
:101EE000BDF90200401E03E0F08016E0BDF90600D7
:101EF000B6F906108842F7DB0FE0B5F918400AE0A2
:101F0000204601F0BFF807466A4631462046FFF7F3
:101F1000C2FFB7F91A40002CF2D1B5F91A00002817
:101F2000BED1BDE8FC812DE9FC47884691460026DC
:101F30003AE001F0A7F8848B0546A00732D5B9F145
:101F4000000F0BD04A462946684600F01BFD09E009
:101F500050010020F42A0020682B0020D5E9000160
:101F6000CDE900016946404600F006FFD0B1E00728
:101F700006D1BDF80400401CA8F80000012611E0BD
:101F8000B5F918400CE0204601F07CF807466A4697
:101F900041462046FFF7C7FF00B10126B7F91A40B6
:101FA000002CF0D1B5F91A000028C2D13046BDE8A6
:101FB000FC872DE9FC410E46904630E001F062F8C6
:101FC000848B0546A00728D5B8F1000F05D04246FE
:101FD0002946684600F0D6FC03E0D5E90001CDE9CA
:101FE00000016946304600F0C7FEB0B1E00704D1F9
:101FF000BDF80000401EB0800FE0B5F918400AE0BF
:10200000204601F03FF807466A4631462046FFF772
:10201000D0FFB7F91A40002CF2D1B5F91A00002808
:10202000CCD17EE700224A800A8082880388D21AB7
:102030008A80C2884088101AC88070472DE9FF4105
:1020400006000F4626D0304601F01CF8858B04466A
:10205000A8071FD5D4E90001CDE9020167B1082224
:102060003946684605F06BFC69462046FFF77EFD61
:10207000694602A800F069FC314602A8FFF79FFDFF
:10208000002807D040F601000540012D04D102A828
:10209000FFF72BFEBDE8FF8102A93046FFF734FDB4
:1020A000F8E70021CAE72DE9F05FFE4C0746DDE9BD
:1020B0000A65A089DDF83490884692469B46054320
:1020C0002EB9A08818B104F10A00B0F90060701CA4
:1020D00001D1002619E0C6B1304600F0D3FFB0F9B7
:1020E0000010B0F902200F449044BAF1000F04D15F
:1020F000B0F90430591A01F1010ABBF1000F04D103
:10210000B0F90600801A00F1010B09F1200000B2BD
:1021100000F0EEFC5FEA00094FD0E248E149808818
:10212000401C8880484600F0ADFF078007EB0A019D
:10213000A0F80280491E818008EB0B01491EC18076
:102140000C9901610446818B43F68F70284001434E
:10215000D448A183B0F9080050B100F093FF0746BE
:10216000484600F08FFFB98A8182A7F8149002E0F8
:10217000CC49A1F8089031464846FFF759FDA8061A
:1021800002D54846FFF7D4FDE80703D0C549486AA1
:10219000401C4862680602D5484602F0ABFAA80720
:1021A00007D5A08B002140F00200A0834846FFF72E
:1021B00045FF01214846FFF7F9FD4846BDE8F09F7D
:1021C0002DE9FF410D4616461F460AA90EC90446D1
:1021D00000208DE80F003B46324629462046FFF797
:1021E00062FF04B006E5B048B0F93C0070472DE945
:1021F000FC41AE4ED6E90201CDE90001306920B9BB
:102200003088ADF80000708810E0B089401C00B242
:10221000ADF800007189ADF80210B6F904108842DB
:1022200006DD3088ADF80000F089401CADF80200F2
:10223000BDF90200B6F9061088426BDC9A4FB7F977
:102240003C0000F01FFF0546BDF90000B6F9001084
:1022500088421BD1F088ADF80600B088ADF80400C4
:10226000B7F93C000AE000F00DFF0446B0F91A008F
:1022700000226946FFF70FFEB4F916000028F2D1DC
:10228000B5F9180000226946FFF705FEBDF8000009
:10229000ADF80400B7F93C000CE000F0F3FE044692
:1022A000B0F91A0000226946FFF73DFE0028EDD183
:1022B000B4F916000028F0D1B5F9180000226946DB
:1022C000FFF731FE0028E1D1B6F90400BDF9001096
:1022D000ADF80400884204DADDE90001C6E9020134
:1022E0009FE7B7F93C000AE000F0CCFE0446B0F9E5
:1022F0001A0000226946FFF75CFEB4F916000028B8
:10230000F2D1B5F9180000226946FFF752FE306994
:10231000C82801DD002004E6DDE90001C6E902016C
:102320000120FEE570B55F4C607808B9002070BDF3
:102330005E4D6869012802DD401E6861F6E720787D
:1023400020B1002020705A48006880472869401C4E
:102350002861FFF74CFF08B96869EDE7FFF74EFC0D
:102360005448016819B1514808308847207001204D
:1023700070BD2DE9FF414B4E8046707810B9FFF7D4
:102380003DFC05E0494D6869401C6861012801DD9C
:10239000012026E7444FB7F93C0000F073FE0446E5
:1023A0004FF0FF302861B07830B1082204F1080105
:1023B00002A805F0C4FA06E0A08B80072CD5D4E96A
:1023C0000001CDE90201B8F1000F03D0414602A897
:1023D00000F0BBFAB86B90B101460822684605F0E0
:1023E000AEFAB6F9120010B100F04CFE0446694690
:1023F0002046FFF7BBFB694602A800F0A6FAB6F933
:10240000121019B102A8FFF7DAFB28B1B7F93C1096
:1024100002A8FFF7D4FB20B96869401E686100205C
:10242000DFE6DDE9020103C5FFF77CFFD9E610B561
:1024300000F0CEFC1C490020886310BDFEB50546A7
:102440000A69888B002A2BD0820729D5154E4FF0B8
:102450000F07B27801F10804521CB270C0040AD50B
:10246000ADF8045000970294FFF7E1FF6946284653
:10247000FFF78BFC11E02046FFF77BFF0BE0ADF888
:10248000045000970294FFF7D2FF69462846FFF7F1
:102490007CFCFFF747FF0028F1D1B078401EB070F8
:1024A000FEBD000050010020F42A0020602B002017
:1024B000F8000020F40000202DE9F047D24C8146BE
:1024C0000D46B4F93C0000F0DDFD08302946804699
:1024D00000F052FC00281BD0D4E910674246294680
:1024E00005F1080000F04EFADFF820832946A8F82D
:1024F0001290B5F900002064B5F902006064484606
:10250000FFF79CFF0021A8F812100120C4E9106712
:10251000BDE8F0872DE9F0470446808B8007F7D5AA
:10252000B4F9186004F108091AE0304600F0AAFD79
:102530000546808BC043800710D14946284600F0ED
:102540001BFC58B1D4E9027829463046FFF7B4FFA6
:1025500010B12846FFF7DEFFC4E90278B5F91A602A
:10256000002EE2D1D4E770B501464C6840F6010276
:10257000A18BB0F900001140012902D02146FFF7DC
:102580005DFFA248406A002823D02046FFF7C2FF23
:10259000B4F91660B4F91A5019E0284600F072FD3B
:1025A0000446808BC043800703D121462846FFF7AD
:1025B00083FF2046FFF7AEFFB4F91A50002DECD18F
:1025C000304600F05FFDB0F91A50B0F91660002EE9
:1025D000F4D170BD2DE9F0418B4F8046B7F93C0036
:1025E00000F050FDD0E90256D7E90112C0E902120D
:1025F00004464046FFF7B7FFC4E90256BDE8F08144
:10260000F0B5824E99B0306A00B1804780480068CA
:1026100008B1804710B900F089FB10B1012019B052
:10262000F0BD707800B3F088F0B1B6F90850B6F993
:102630001400012400B1054601A800F0B9FB0BE02D
:10264000284600F01FFD07460146284600F09AF88C
:1026500000B1641EB7F914500DB1002CF0D1B58251
:1026600001A800F0A9FBD9E70020D8E710B50024A5
:1026700000E00124FFF7C4FF0028FAD1204610BD76
:1026800070B5B0F9045004468668284600F0FAFC9C
:102690002168172911D007DC0E2910D0142917D171
:1026A0003146FFF7BFFC13E022290ED028290FD1B5
:1026B0002846BDE870400021C0E4A56070BD2146F9
:1026C0002846BDE8704002F0A6B86FF0704000E008
:1026D0000020A06070BD10B5044600680E2810D020
:1026E0000F280AD149486FF070411C3000688842B9
:1026F00003D000F069FBFDF751FF2046BDE8104014
:10270000BEE7A0684168012904D10068BDE8104017
:1027100000F0F9BA10BD3D490120487070473B49AF
:102720000020487000F02CBF3EB5384CE0780028FF
:1027300027D120813449A0828863E080A080354A77
:102740000221CDE9001240F6FF72029013460146C5
:10275000FFF736FD04F10A0528806FF0704104F19F
:102760001C021160FFF79DFC2B4801F0E5FF2B4890
:1027700001F0E2FFB5F90000FFF7DAFA012060701E
:10278000E0703EBD70B50646888B002586B00C46CD
:10279000800635D5206900B3314604F10800FFF703
:1027A0000EFAD0B1ADF8106030460594FFF7C0FACC
:1027B000A08B400712D5D4E90201CDE90201A08B1C
:1027C00040F30003E08A5B1C00B900230093002360
:1027D00004AA134902A800F03DFF03E004A8FFF794
:1027E000C2FE0125A08B20F02000A08380B28104CE
:1027F00002D540F00400A0830448C188491EC1806E
:10280000284606B070BD0000F42A002050010020C8
:10281000E8000020D7260008CC010020D4010020C9
:10282000D525000870B50D46002600F02BFCB0F948
:10283000184011E0204600F01AF8A84201D12046C5
:1028400070BD29462046FFF7EDFF060006D1204661
:1028500000F018FCB0F91A40002CEBD1304670BDE6
:1028600002004FF0000001D01046DBE770470EB5C4
:10287000152100916946FFF788FA02980EBD000005
:102880000249024608880A80704700005C01002067
:102890002DE9F0410C461746984680B300F0A9F99F
:1028A000064608F0030001280DD0022810D1B4F923
:1028B0000410B4F90000091A891B491C01EBD171FD
:1028C00000EB610506E0B4F90400851B6D1C01E016
:1028D000B4F9005000F08CFC014608F00C0004280C
:1028E0000ED00C2811D1B4F90620B4F90200121A46
:1028F000521A521C02EBD27200EB620007E010E0A9
:10290000B4F90600401A401C01E0B4F902003D8011
:102910007880AA19521E0844BA80401EF880BDE88B
:10292000F08121463846BDE8F041082205F007B89D
:1029300031B50098002430B100E0641C684600F016
:102940009BFA0028F9D1204638BDB0F90030B1F922
:102950000020934200DA0280B0F90230B1F902207F
:10296000934200DA4280B0F90430B1F90420934276
:1029700000DD8280B0F90620B1F906108A4200DD40
:10298000C180704770B5B1F90030B2F90040A34280
:1029900000DC23460380B1F90250B2F90240A5429F
:1029A00000DC25464580B1F90440B2F90460B44228
:1029B00000DD34468480B1F90610B2F90620914258
:1029C00000DD1146C1809C4201DBA94201DA0020F2
:1029D00070BD012070BD0B88134403808B889B1A47
:1029E00083804B8813444380C988891AC18070470B
:1029F0002DE9F04105460E460027B0F9000002F02F
:102A000065F998B1304602F071F9401C00B200F04F
:102A100035FB04000AD0204600F034FB314604F0B8
:102A20004BFF284600F07BFB2C8001273846BDE891
:102A3000F0810000011E10B54FF001000B4600DCD4
:102A40004B42294A00E0401C52F820409C4201D8E9
:102A50000928F8DB002900DA401C10BD10B5002859
:102A600002DA2D22404200E02B220B685C1C0C6035
:102A70001A70096800220A7010BDF0B5002807DA44
:102A80001C682D25661C1E6025704042012400E054
:102A90000024091BC9B20AB1491EC9B2124E56F828
:102AA0002140844200D8601EDFF840C016E00C468A
:102AB000491EC9B2944205D11C689CF80070651C7F
:102AC0001D60277056F8215090FBF5F4E4B204FB2A
:102AD00015001D6830346F1C1F602C700029E6D172
:102AE000196800200870F0BD54EA0008E0000020DA
:102AF00070B5054600F0C2FA040006D0204600F08A
:102B0000C1FA2A46002102F0A9F8204670BD000053
:102B100010B50B480024006810B1804700B10124B3
:102B2000FFF7A4FD00B10124204610BD10B500241C
:102B300000E00124FFF7ECFF0028FAD1204610BD89
:102B4000E4000020C388042B2DD012DC012B1CD004
:102B5000022B3AD183888068534303EB9102805C57
:102B6000062202EA4101C1F10601C84000F003005B
:102B70007047082B23D0102B27D1838880685343BC
:102B800003EB410108440088704783888068534301
:102B900003EBD102805C01F00701C1F10701C840DD
:102BA00000F00100704783888068534303EB5102B3
:102BB000825CC90702F00F00F4D1100970478388C6
:102BC000806802FB0311405C70470020704702F0F0
:102BD000DFBB10B502F0DCFBBDE8104000F0F2BC3A
:102BE00002F0D9BB10B502F0D6FBBDE8104000F0F2
:102BF000E9BC10B5044602F079F801462046BDE86C
:102C0000104002F0AEBA00000649888400207047E8
:102C10000449488400207047024A5084002091846F
:102C200070470000F42A00202DE9FC4104460D46BF
:102C300016461F46012002F02FFA11498046086C03
:102C4000496C044406440D440F44ADF80040ADF80F
:102C50000460ADF80250ADF806706846FFF789FBD6
:102C600007E03B4632462946204600F080FBFFF74E
:102C700059FB0028F5D1404602F00EFABDE8FC8170
:102C8000F42A002030B4002821D011B30AB3B1F9DE
:102C90000030B2F90040A34200DD23460380B1F9C1
:102CA0000230B2F90240A34200DD23464380B1F96D
:102CB0000430B2F90440A34200DC23468380B1F91A
:102CC0000610B2F90620914200DC1146C18030BCEA
:102CD000704701B9114630BC082204F030BE00280C
:102CE0000BD003880B44038083881944818041887A
:102CF00011444180C1881144C18070471D490022A0
:102D000048684A6070471B494A68002A00D14860F9
:102D1000704700B5FFF7F2FF0028FBD100BD154A50
:102D2000083203C2134901200860704770B5114A88
:102D30000020116800290FD0491E02F1080411601B
:102D4000D4E90051284603F0E9FB6068012802D16C
:102D50002846FFF7D8FF012070BD70B504460D4628
:102D600003F0DCFB002804D129462046BDE8704072
:102D7000D5E770BD7C010020B0F90220B1F9063022
:102D80009A4213DCB1F90220B0F906309A420DDC08
:102D9000B0F90020B1F904309A4207DCB1F9001013
:102DA000B0F90400814201DC012070470020704727
:102DB0006022044904F04ABE01466022014804F042
:102DC00045BE0000F42A002000F000BC00F00ABC60
:102DD00010B50020FFF7F8FF6FF07F40FFF7F6FF18
:102DE000012002F02DF9002002F060F9002002F02D
:102DF00065F9002002F050F9044800F009F8BDE838
:102E00001040002002F04AB9E2E70000E0F10008BB
:102E1000024A916900B1906108467047F42A002087
:102E200030B40C4C2268831A00D55B4262688A1A5F
:102E300000D552421A44022A03DD03C430BC02F01A
:102E400045B930BC7047034A136803605068086096
:102E5000704700008C0100202349C9694968084770
:102E60002149C969096808471F4AD269D2681047D1
:102E70001D49C969896808472DE9F0411A4E044681
:102E80000568F0690168284688470746F069416887
:102E900028468847284420603846BDE8F0812DE95F
:102EA000F04105460E4600240F4F05E0F8694168E1
:102EB0002846884705440444761EF7D22046ECE7AE
:102EC0002DE9F041002506460F462C46DFF8188014
:102ED00006E0D8F81C1030194968884704446D1C76
:102EE000A742F6DC2846D8E7F42A0020007870478D
:102EF000012070470120704701700120704703498D
:102F00000148C861704700009CEA0008F42A0020CC
:102F10002DE9F04780464FF0FF390020B04F1BE00D
:102F200037F81100518806EB4605014437F91500C2
:102F3000411A0CB244450EDA6CB1AA49014407EBC0
:102F40004500B0F90220081B04F03EFD37F81500DB
:102F5000001B27F81500304600EB400107EB41024B
:102F60001679002EDCD100EB400207EB410137F966
:102F70001220B1F902101144C1F5FA52424500DBAA
:102F800081460FFA89F0BDE8F0879748FB21416040
:102F900081604FF4FA51C181018200210160818179
:102FA0008F480422428001800171904901200870FD
:102FB00070472DE9F041044600F00BF9E41C24F0C1
:102FC0000300DFF8248204B2B8F90E00A04218DB37
:102FD000834E012000EB400106EB4101498809B90D
:102FE00005B203E0401CFC28F4DB00254DB120466F
:102FF00000F0C5F8411C07D12046FFF789FF411CAE
:1030000002D10020BDE8F08100EB400236F812103A
:1030100006EB420CBCF8022005EB45078B189CF828
:10302000041006EB4702548026F81730117121B1C5
:1030300001EB410106EB41014D7150718CF80450D8
:10304000D8F800004146401CC8F80000D8F8040039
:10305000401EC8F80400D8F80820824200DD8860CD
:10306000888920448881C889001B00B2C881B1F9D1
:103070001020824200DD08822846C3E7002800D0E5
:1030800097E77047002806D0554900EB400031F91A
:10309000100054490844704710B500F09AF852489F
:1030A000B0F90E0010BD70B5002400F092F80021B8
:1030B0004B4A0DE032F813106B88194400EB4003C3
:1030C00032F81330591A09B2A14200DD0C4601460C
:1030D00001EB410302EB430528790028EAD101EB1B
:1030E000410002EB430132F91000B1F9021008442B
:1030F000C0F5FA5000B2A04200DD0446204670BD83
:10310000002806D0364900EB400001EB4000B0F942
:1031100002007047002801D000F00AB8704710B5CF
:103120000446B0F90000FFF7F5FF0020208010BD35
:103130002B4A10B500EB400002EB4001B1F9020050
:1031400000281BD0284BDC890444DC819C89201A90
:103150009881002048800879497901EB410402EB0D
:103160004404207120B100EB400002EB40004171AB
:103170005868401C58601868401E186010BD30B573
:103180000021174C0CE034F91330B5F902502B44F0
:1031900002EB420534F91550EB1A834214DA11465A
:1031A00001EB410304EB43052A79002AEBD101EB43
:1031B000410204EB430334F91220B3F902301A44FC
:1031C000C2F5FA52824201DB08B230BD4FF0FF3047
:1031D00030BD06480078002800D1D6E670470000D0
:1031E000B84A0020782B0020A05000209401002035
:1031F0001D488069407D704700B5FFF7F9FF1A4907
:103200008A8C10448884088C488400BD10B504461C
:103210000A2802D1BDE81040EEE70D2C0CD0124870
:10322000806901682046884710480168002903D05A
:103230002046BDE81040084710BD0B490020898D8D
:1032400001F00C020849042A896906D0082A01D035
:103250000C2A01D1087D40087047087D401E704748
:103260000149896949680847F42A0020EC000020D8
:103270002DE9F04106460C4608B2FFF7FFFE0500B7
:1032800016D0AEB13046FFF73BFFA04200DB204630
:1032900004462846FFF7F6FE07463046FFF7F2FEE3
:1032A00001462246384604F04AFB3046FFF732FF1B
:1032B0002846BDE8F081000010B50446012000F06A
:1032C0009DF9D24921F8104010BD10B504460020E8
:1032D00000F094F9CD4921F8104010BD10B5CB494C
:1032E0000246087B80EA02035B0703D50B884C8803
:1032F0000C804B800A7310BD30B4C44AB2F906305A
:103300008B4217DCB2F90A308B4213DBB2F904307E
:1033100083420FDCB2F9083083420BDB137BDC07FE
:1033200013469B6C02D09A6A30BC104752885B6A85
:1033300030BC184730BC704730B4B44CB4F90630D8
:103340008B42F7DCB4F90A308B42F3DBB4F904307A
:10335000834200DD1846B4F90830934200DA1A4679
:103360008242E7DBA36C1B6930BC1847E2E730B44C
:10337000A64DB5F90440844200DD2046B5F9084069
:10338000944200DA22468242D4DBB5F906408C42F0
:1033900000DD2146B5F90A409C4200DA23468B4203
:1033A000C8DBAC6CA469A44630BC6047C2E72DE919
:1033B000FF4F0546964887B0D0F800C00026189CFD
:1033C0000F469346BCF1000F0CD0DDE91601199BA6
:1033D00002AA13C20593DDE91423CDE90023DCF82A
:1033E00000405CE00A9805EB0B013A18DDE9140394
:1033F000521E491E184301286BD1844EB6F906307F
:10340000D81B002808DD0A9F3F1A0A97002F4BDDC2
:103410001F46179B00FB0344B6F90A00101A002848
:1034200004DD0A9A101A0A9000283DDDB6F908005A
:10343000081A002801DDABEB000BB6F904000022EE
:10344000A8421FDD421B1698ABEB020B042836D0B6
:103450000BDC01282BD0022814D122F0030004EB4E
:10346000A204054402F003020CE06849B1F904101B
:10347000491B294408282AD0102803D104EB420410
:103480000D460022BBF1000F0EDD1798CDE9024278
:10349000199B0493169B01900093B06CC4685A4624
:1034A000394628460A9BA0470BB0BDE8F08F22F0B2
:1034B000070004EBE204054402F00702E2E722F011
:1034C000010004EB6204054402F00102DAE714444F
:1034D000D6E716980597C0F10800039000200490E5
:1034E0004AE015990598494A08440690401E029002
:1034F000B2F90610814237DC1046B0F90A0005998E
:10350000884231DB0027A246A846B9462AE017B90F
:103510001AF8016B0827039936FA01F0169906FA92
:1035200001F6F6B2A7EB010703D13849097B8907F9
:1035300014D4364949880191199909B131F810001C
:10354000324948801499404608EB0102521E029B02
:103550000599FFF70CFF2D4901984880149909F14E
:1035600001098844D945D2DB0498401C0490069890
:1035700005901798044404980A998842B1DB93E7B0
:103580002248816C001D096A084710B5FFF7F8FF53
:1035900006F00FF8044601F01EFF0420FFF79EFE20
:1035A00040F6FF72002113460846FFF7E0FE0020B8
:1035B000FFF794FE06F002F8204610BD1349896C0F
:1035C000096808471149896C4968084710B50F49CF
:1035D0004A6B824205D04863FFF7F0FFBDE8104018
:1035E00073E610BD10B509490A6B824205D0086325
:1035F000FFF7E4FFBDE810405EE610BD034A014658
:10360000127B401E520700D408467047F42A00205F
:10361000F000002001F014BB01F0F6BE01F01BBB6E
:10362000002101804180EF21818040F28F11C18013
:10363000704700007CB5064C0546A06C016A6846E0
:1036400088476A462946201DFFF79CF97CBD00008B
:10365000F42A00202DE9F84FDDF828A00400884660
:1036600093461F4621D00026B4F9001030460029A9
:1036700000DB08468146B4F90200002800DB06465C
:1036800001F0ACFE411EB4F9040000F058F8054604
:1036900001F0A6FE411EB4F9060000F050F8A5EBBB
:1036A0000904641C851B6D1C08E04FF000094E46A0
:1036B00001F094FE044601F093FE054607B96F42FF
:1036C000002C01DD002D02DC0020BDE8F88F3B4618
:1036D000224631464846CDF800A001F061FF5FEA7E
:1036E000000A04D15846414688470120EDE750467C
:1036F00002F034FC0746504601F07EFF002415E03E
:10370000291BB94202DA504602F038FC3CB13219AA
:103710004946504602F044FC504602F007FC584629
:1037200041468847504602F048F83C44AC42E7DB4B
:10373000504601F0BBFE002001F05EFFC4E7884266
:1037400000DD08467047000038B5FFF79BFC0446D3
:10375000B0F92800FFF796FC009094F84A00012881
:1037600009D16946E06BFFF779F9618D94F838204B
:10377000491EC9B204E0608D94F83820C1B2E06BF4
:103780006B46FFF77AF938BD10B5016C0446491C49
:10379000FDF7FDFA2046FDF7CDFB2E280DD1B4F93B
:1037A0002A00216C401E814201DA491C00E0491EBA
:1037B0002046BDE81040FDF7EABA10BD30B40B4614
:1037C000B0F92A10046C091B90F83840491E34B136
:1037D0008C4204DA491E02E002EB82025200491ECA
:1037E000FAD2C06B30BC81181846FDF76BBD2DE9CD
:1037F000F35F0C460098FFF745FC060029D0132C18
:103800002AD006DC102C3AD0112C16D0122C4AD11A
:1038100031E02B2C09D02D2C45D1306C002818D14B
:103820003046009900F0C2F825E0306C002878D1CD
:103830003046009900F0B1F81DE03046FDF77AFB04
:10384000C0B22D2801D02B2804D13046009900F0B9
:10385000B6F866E0012209E03046FDF76BFBC0B226
:103860002D28F2D02B28F0D04FF0FF3230460099AF
:10387000FFF7A4FF55E03046FFF786FF51E0316CBB
:103880003046491EFDF783FA3046FDF753FB2E28DC
:1038900047D1316C002901DD491E00E0491C30464A
:1038A000FDF775FA3DE03046FDF744FBC0B22D2828
:1038B00037D02B2835D0204600F069F8B0F1000849
:1038C0002FDB00242546B6F92800FFF7DBFB8246F4
:1038D0000027DFF8F4B01BE0C01B316C401E8142B2
:1038E00005D15BF825006D1C00FB08440FE01AF8B9
:1038F0000090484600F04BF8002804DB5BF82510E8
:103900006D1C01FB0044B9F12D0F00D164427F1CF6
:10391000B6F92A00B842DFDC21460098FDF7D2FC58
:10392000A9E70098BDE8FC5F0EE72DE9F047DDE967
:1039300008795FEA000A0D461646984625D050469B
:10394000FFF7A0FB2149C1642149C5630165C0E9B6
:103950000C680021016480F8387080F84A900121D9
:10396000044680F848105046FFF7EEFE2046FDF76B
:10397000E1FA2E2804D1216C2046491CFDF707FAF4
:103980005046BDE8F047FEF78CBBBDE8F087303805
:10399000092801D94FF0FF30704702460846D16B25
:1039A000002902DA4942FDF78DBC704702460846FD
:1039B000D16B002902DD4942FDF784BC7047C26B20
:1039C000002A00DDF2E7E8E754EA0008EF370008D4
:1039D0004937000870B504460D46FFF753FBB0F8B1
:1039E0005C100A0725B1002A0DDB41F0080103E055
:1039F000002A08DA21F00801A0F85C102046BDE892
:103A00007040FEF74EBB70BD10B50146CA8C002059
:103A1000920607D5B1F94000002803D1886A01F069
:103A200001FB801C10BD2DE9F05F4FF0000805463A
:103A30000C46C146B0F9426000F0AAFE8346284613
:103A400000F0ADFE8246E88C800601D5B5F94490C1
:103A50002846FFF7D9FF0746B5F94E0010B100F030
:103A6000B1FE80462780A4F80280ABEB060006EB8F
:103A70000901A680401ECA19208102EB0801E180DD
:103A8000AAEB0601491E6181A6812082F019E68118
:103A9000401E6082B5F9180022E0FFF7F3FAB0F992
:103AA0000010B5F90020B0F90430891A9A1AB0F95B
:103AB0000230B5F90270DB1BB3420FD1838B1B06BA
:103AC00006D5B4F910208A4208DB491E218205E0A0
:103AD000B4F90C10914201DC521CA281B0F91A0019
:103AE0000028DAD1BDE8F09F2DE9F04F8BB00446F5
:103AF000FEF779FB06464FF0000B00F057FE054637
:103B0000304600F05FFE0646B4F9428005A9204623
:103B1000FFF789FFB4F85C00C0F3C007B4F95000A8
:103B200010B1FFF7AFFA8346BDF81800ADF80C00EE
:103B3000BDF81C00ADF81000BDF82200ADF80E0075
:103B4000401CADF82200BDF82000BDF82610401C36
:103B5000ADF81210ADF82000BDF82400401EADF8FD
:103B60002400A06AFFF754F9B4F95A3008A901AA51
:103B700058460A91FEF78CFEBDF9140000EB080AC6
:103B80000020FEF7F6FB002844D0AAF1010904EB5F
:103B90008707F86AFFF71AFD786BFFF723FD01AB83
:103BA00003A958460A9A00F01BFDFF48FFF71AFDCB
:103BB0000021A8F101036A1E084601F005FABDF9CB
:103BC00018200021521E731E084601F0FDF9BDF9B0
:103BD0001C00731E401C6A1E002101F0F5F9BDF99E
:103BE0001E10731E491C6A1E002001F0EDF9B4F985
:103BF00044006A1E00EB09035146002001F0E4F97D
:103C0000B4F94200022801DB02F0B2FAFEF78AFBA7
:103C10000028BED10BB0BDE8F08F002800D0D9E657
:103C200070472DE9F041B0F90460054688B0304690
:103C3000FFF728FA0446D5F80880476E05E0796852
:103C400028468847002828D13F68002FF7D12868E8
:103C5000172845D032DC0D2875D021DC0B2871D017
:103C60000C283CD1AD68002D17D0287A002814D03C
:103C7000B4F85C00000702D4304600F0FFFD304687
:103C800002F05CFBB4F85C00C00606D5C7482946C4
:103C9000B0F90020304602F00FFD08B0BDE8F08119
:103CA0000F2819D014287AD103A92046FFF7BBFEAC
:103CB000082204A9404603F042FEEEE71F2821D067
:103CC00021284DD026280ED02A2868D1A86808B10E
:103CD0002066E2E7206E2DE02046FFF705FF5EE05C
:103CE000B4F94C0026E0A8680228D6D1ADF80660E9
:103CF000A868029027200090B5F906006946FEF7F3
:103D000044F8CAE7A868012816D1B4F95E0002F0A9
:103D100077FB20B1B4F95E0000F0B0FD05E0B4F926
:103D20004C0000F0F7FDA4F85E0001213046FFF7DB
:103D300074FF0020A860B0E700213046FFF76DFF58
:103D4000ABE700E027E0B4F85C00000727D4A868E0
:103D50008068F8B1007AE8B1304600F08FFD1EE0CF
:103D6000AF68BFB1B7F90200314602F04AFA20B19C
:103D700001213046FFF72EFE11E000213046FFF70B
:103D800029FEB7F90000314602F02AFA10B138884E
:103D9000A4F85E0003E004F15000FFF7C0F92946E3
:103DA000304600F021FB002887D02846FEF768FC4B
:103DB00073E72DE9FE430446B0F90400074602F01C
:103DC00017FB8046FFF75EF90546866C20681728CA
:103DD00055D008DC0E283CD00F280CD014284ED02B
:103DE00015284CD042E01F2819D020282AD022289C
:103DF0003CD1E86B24E0E86B6FF07041884203D05F
:103E0000FFF7E4FBFCF7CAFB002E06D00ECC684699
:103E10000EC0ADF804706846B047BDE8FE83A068E8
:103E20000028FAD0B5F95E0020B1B84202D000F007
:103E300025FD04E0384600F06DFDA5F85E00002089
:103E4000A060EAE72146404603B0BDE8F04300F039
:103E5000CBBAA0684168002908DD0068092805D1AF
:103E6000384600F057FDA5F85E00D6E73EB1A4F84D
:103E700004802046B44603B0BDE8F04360472046C6
:103E8000BDE8FE43FEF7FCBB10B50446B0F84C009D
:103E900086B018B9B4F84E00002829D001A92046F0
:103EA000FFF7C1FDB4F94C00A8B1BDF90A20BDF976
:103EB000081002F00DFBBDF90E00BDF90A10421A00
:103EC000BDF90C00BDF90810521C411A491CB4F987
:103ED0004C0002F045FCB4F94E00002808D0BDF9B2
:103EE0000A10BDF906208A1ABDF9081002F0F0FA8E
:103EF00006B010BD70B504000D460DD02046FFF78A
:103F0000C1F829465030FEF773FD002804D0204642
:103F1000BDE87040FEF7C5B870BD2DE9F04F89B01F
:103F200005460E4612A890E8030E17469C4641F43B
:103F3000805448231E4AA1B2DDF85C808DE80F0052
:103F400063463A4631462846FEF7ADF8060049D0AA
:103F50003046FFF797F805463022514600F03EFA0A
:103F600012492022091D05F1280003F06FFD0020F1
:103F700048356882C5F80080A5F81490E882E8808A
:103F8000E861483D04A92846FFF74DFD41F28271E2
:103F9000CDE900610023074ABDF91A00BDF91610EA
:103FA000CDE90223431A07E0AAAAAA009C01002037
:103FB000233C0008B33D0008BDF91820BDF91400EA
:103FC0005B1C121A521CFEF76EF8A5F84C0042F268
:103FD0000400044202D1304602F0E8FB5946304664
:103FE000FFF788FF304609B015E670B505000C46AE
:103FF0000DD02846FFF746F8B0F95A10A14206D076
:10400000A0F85A402846BDE87040FEF74AB870BD97
:1040100010B50C4600280AD0FFF734F830F85C1FC2
:1040200014B141F0100101E021F01001018010BD38
:104030002DE9F34F83B00546FFF7E6FC0499401ADB
:1040400002905CD04FF00009002640F6FF7A374618
:10405000CAF1000BB5F9184030E02046FFF712F81E
:10406000804603C8CDE90001B5F902004242B5F926
:10407000000041426846FEF732FEBDF90200B5F984
:104080004210884218D1BDF90610081A0499401C44
:10409000884211D1B8F81C00000607D5BDF904000C
:1040A000584509DD2746BDF900B005E0BDF900001F
:1040B000504501DA26468246B8F91A40002CCCD188
:1040C0005EB1029A3046114602F040FA0298002290
:1040D00009FB00F1304602F0F9F967B1029A38465F
:1040E000114602F033FA0299002209FB01F0414225
:1040F000384602F0EBF909F101093E43A4D105B0BD
:10410000BDE8F08F7CB5B0F9045006462846FEF7AE
:10411000B9FF04463146284600F066F9002826D04B
:1041200030680B2824D00F2826D1606BFFF75AFA8D
:10413000E06AFEF76DFE284600F050FC20B9A06B47
:10414000FFF744FAFCF72AFAB4F9280000280ED049
:10415000FEF798FF0546022000F0B0FF684602F027
:1041600031F9B4F930206946284600F099FE7CBD4B
:1041700004F12800FEF7D3FF3046BDE87C40FEF78F
:104180007FBA2DE9FF4704460D460CA890E80306C8
:1041900016461F4689B21C23204A41F00101DDF872
:1041A00040808DE80F003B46324629462046FDF709
:1041B0007AFF060025D000253046FEF763FF04464F
:1041C0000022514600F00AF9B8F1000F0ED0404627
:1041D00003F096FB401C00B2FEF78AFC050005D0F8
:1041E0002846FEF74FFF414603F066FB25850C4845
:1041F000A4F830900168E1626FF07041A1634068FB
:104200006063304604B0BDE8F08705490860704738
:10421000034948607047024800687047054100083C
:10422000C00100207CB50D46016A4C69D0E902123C
:10423000CDE900126946FDF799FCB5F90000BDF91A
:1042400000102044884214DCB5F90400BDF90410C4
:10425000001B88420DDBB5F90200BDF902102044B5
:10426000884206DCB5F90600BDF90610001B88423D
:1042700001DA01207CBD00207CBD30B58588008836
:104280001488281AD5889388451B0D805288801A77
:1042900088804C80CB8030BD1CB5C08C0C4600079C
:1042A0000FD5684602F08EF8BDF802002080BDF8F8
:1042B0000600A080BDF800006080BDF80400E0802A
:1042C0001CBD2046BDE81C4002F07CB810B502F0D1
:1042D0008FF802F05DF86FF07041884203D1BDE8BD
:1042E0001040FCF725BC10BD70B505460C46FDF727
:1042F00099FE286A214642692046BDE87040FEF7D3
:104300006ABBC18C090704D5B0F90610B0F90200E8
:1043100003E0B0F90410B0F90000081A401C70471F
:10432000C18C090704D5B0F90410B0F9000003E00E
:10433000B0F90610B0F90200081A401C704710B519
:104340000446FEF79FFEC08C0007204603D5BDE85B
:10435000104000F037BABDE8104000F027BA70B541
:1043600005460C46FEF78EFEC18CA14205D0C484E2
:104370002846BDE87040FDF794BE70BD10B5010041
:104380004FF0000003D00846FEF77CFEC08C10BD45
:1043900070B505000C460DD02846FEF773FEC18CA3
:1043A00034EA010206D02143C1842846BDE87040AA
:1043B000FDF777BE70BD70B504000D460DD02046E8
:1043C000FEF760FEC28C22EA05018A4205D0C18454
:1043D0002046BDE87040FDF764BE70BD7F4B1B6892
:1043E0000362C2848184704738B505460C46FEF7E7
:1043F00049FE2168162938D00ADC0D292CD0112954
:1044000020D014294FD0152953D1B0F9240044E00D
:104410001F292DD0202942D0B1F5407F49D1016A12
:104420004A69A16801624869141A2846FEF72AFE03
:10443000614223460A46009401F00BFF2846FDF72F
:1044400030FE33E0C08CC00633D5A068007A78B364
:10445000284600F013FA2CE0A068806840B3007A88
:1044600030B3284601F06AFF20E0A16881841DE096
:10447000A168C08C012906D140F001012846FFF750
:104480006EFF082105E020F001012846FFF767FFD5
:104490000921284600F0B5F90020A06006E0C08C94
:1044A000C0F30010F9E7A168FFF71EFF002038BD38
:1044B000FFE70120FBE770B50E4605461446FE21D6
:1044C000FEF7CEF9314602F03FF9FF212846FEF70C
:1044D000C7F92146BDE8704002F036B91CB50B465D
:1044E000C18C1446090704D51A466946FFF7C5FE74
:1044F0006B462146184600F0D9FC1CBD1FB504468A
:10450000084611461A46E38C1B0715D5ADF808007E
:10451000ADF80C00ADF80A10ADF80E2002AA6946FD
:104520002046FFF7AAFEBDF90420BDF90010BDF931
:10453000020000F007FD1FBD04B0BDE8104000F010
:1045400023BD1CB503460846D98C090705D502468C
:1045500069461846FFF791FE6846BDE81C4000F02A
:1045600057BD7CB505460C0003D1684601F02AFF13
:104570006C46E88C000705D5224669462846FFF7B9
:104580007CFE6C4621462846FFF74CFE002803D0EF
:10459000286AC168204688477CBD0021E1E77CB5D8
:1045A0000546C08C0C46000705D5224669462846BC
:1045B000FFF763FE6C4621462846FFF733FE0028CE
:1045C00003D0286A8168204688477CBD034902469B
:1045D00008680A607047014800687047C8010020F9
:1045E0002DE9FC47DFF8F4800646D8F810500C4659
:1045F00091461F4615B308222146684603F09FF9ED
:10460000BDF80020D8F840000244ADF80020BDF805
:104610000220D8F844100A44ADF80220BDF8042066
:104620001044ADF80400BDF806000844ADF80600DB
:1046300069462846FEF7A0FB00284DD0F6B3307837
:10464000E0B33A4649466846FEF79CF9BDF90230A8
:10465000B4F904205B1EB4F90210B4F90000FBF7B2
:1046600071FFBDF90020BDF90630521EBDF90210E0
:10467000B4F90000FBF766FFBDF90400BDF9063090
:10468000B4F90420BDF90210401CFBF75BFFBDF933
:104690000610B4F90630B4F90420491CB4F900003E
:1046A000FBF750FF484600F0A7F90446002000F051
:1046B00005FDB7F90220B7F9001000E007E0304629
:1046C00000F028FB2046BDE8FC4700F095B92046E5
:1046D000BDE8FC4700F014BBBDE8FC87F42A0020CD
:1046E00010B50124FEF7CEFC808BC00600D5002457
:1046F000204610BD2DE9F04106001BD03046FEF7E4
:10470000C1FC0546304601F057FD040012D030468A
:1047100001F06EFEFEF7B6FC07462046FEF7B2FC3F
:10472000698B4183388B68833E832846BDE8F0411E
:10473000FDF7DBBABDE8F0810B490A68026008604A
:104740007047094B1968002905D00022814206D123
:1047500008680AB1106070470028186070470A4660
:1047600009680029F2D17047680100200EB50021C8
:104770000291172100916946FDF707FB029800B2EC
:104780000EBD00000148B0F9000070475A0100203A
:10479000B0F90410B0F90000081A401C7047B0F9D5
:1047A0000610B0F90200081A401C704710B500F05E
:1047B00015F8FEF767FCB0F90410B0F90000081A0C
:1047C000401C10BD10B500F009F8FEF75BFCB0F915
:1047D0000610B0F90200081A401C10BD002801D1D3
:1047E000FDF701BD70470EB502004FF0000007D085
:1047F00002902020009069461046FDF7C6FA029804
:104800000EBD0EB5262202910092694600F003F813
:104810000EBD01F009BD70B505460C000AD0284652
:1048200001F0E6FD002805D0E5802146BDE8704096
:10483000FDF7ABBA70BD000070B50E4E0446B6F978
:1048400000000D46A04201D000F006F80A4834806E
:10485000057070BDAFF300803EB5064CB4F90000A2
:10486000002806D0182100916946FDF78EFA002035
:1048700020803EBD5E010020780100202DE9FF412F
:104880004FF00001070001A80A460B460EC03AD0BF
:104890001F4CB4F90000874235D01F210191ADF8BB
:1048A00000000021ADF80270039110B101A9FDF7DD
:1048B0006CFA012003903846278001A9FDF765FABC
:1048C000039E6C462125FEB905E001A938460195F5
:1048D0000394FDF75AFA384601F08AFD0700F4D137
:1048E000BDF90070384601F08BFD68B105E001A903
:1048F000384601950394FDF748FA384601F078FDF3
:104900000700F4D100E00126304604B0BDE8F08194
:104910006001002070B506004FF000001BD030464B
:1049200001F03AFC0146304600F018F8054604460E
:1049300006E02146304600F011F80446A84205D0B2
:104940002046FFF750FF08B9002CF2D12046FFF7B0
:1049500095FF08B9204670BD002070BD70B50546B2
:104960000C0005D02046FEF78DFBB0F91A0020B9E7
:104970002846FEF787FBB0F91800A04200D10020BE
:1049800070BD000010B5040011D02046FEF77AFB80
:10499000818BCA070BD141F0010181831549086859
:1049A000401C08602046BDE81040FDF77ABB10BDF2
:1049B00010B5040011D02046FEF764FB818BCA07B6
:1049C0000BD021F0010181830A490868401E08606C
:1049D0002046BDE81040FDF764BB10BD10B50100D6
:1049E0004FF0000005D00846FEF74CFB808B00F02E
:1049F000010010BD7401002010B503498C6B886361
:104A0000FDF7FCF8204610BDF42A002070B5040024
:104A100012D02046FDF745FB204601F0E1FC04469C
:104A200008E02046FEF72EFB05462046FFF7EEFF86
:104A3000B5F91A40002CF4D170BD10B504000CD0AB
:104A40002046FEF71FFB818B8A0706D441F0020146
:104A500081832046BDE81040D8E710BD70B5744C86
:104A60000546A08848B1B4F90410284601F0B8FB07
:104A700018B9B4F90400A84201D1012070BD00208A
:104A800070BD3EB50C460EC9054668460EC0694667
:104A9000284601F0BBFB0D20ADF80650009009E060
:104AA000284601F0A5FC050004D06946284602947A
:104AB00001F0ACFB284601F0A3FC0028F0D13EBD7C
:104AC00070B58C6806460D4664B13046FEF7DAFADA
:104AD000B0F900202168891A2160B0F902006168EC
:104AE000081A606029463046BDE87040C9E72DE9E4
:104AF000F0438FB0002704A800F0AEFA0AA8FFF731
:104B00001BFE4C4C04992068884208D160680599C6
:104B1000884204D1207A9DF8181088426FD0DDE9D0
:104B20000401FBF75AFE4448B0F9000018B9DDE96A
:104B3000040101F0B0FDADF82C00BDF92C00FFF729
:104B40008DFF0DF11009002867D0217A9DF818001B
:104B5000814220D0BDF82C00E8B1BDF92C00FEF751
:104B600091FA9DF818108DF80C10217A8DF80D101F
:104B7000B0F900200499891A0191B0F90200059951
:104B8000081A029001A80E9011200C90BDF92C007B
:104B90000CA901F03BFB217A9DF8180001433CD0A1
:104BA0000C21234D012708350C91B5F90410BDF9EE
:104BB0002C2000260DF11C08914212D0A98881B149
:104BC00008B10E9607E02068079060688DF82460B1
:104BD0000890CDF83880B5F904000CA9FFF770FFF4
:104BE000AE80BDF82C00C0B148460DC841460DC18D
:104BF0009DF8240020B1BDF82C00A88006E00FE04D
:104C00000E48007808B1FFF725FEAE80BDF92C00F4
:104C1000CDF838800CA9FFF753FF48460EC80EC4E4
:104C20000AA8FFF78EFD38460FB0BDE8F0830000FC
:104C3000CC010020542B00205E01002078010020D0
:104C4000C0F3C401C0F38522C0F3C44000EB42109E
:104C500000EBC12070474FF6FF70704710B502E0BF
:104C600000F8011B521E0AB18307F9D1930818D02E
:104C700001EB014402F0030204EB042406E00460AB
:104C80004460846040F80C4F001D1B1F042BF6DAB3
:104C900001E010C05B1E002BFBD102E000F8011BFD
:104CA000521E002AFAD110BD00B90FA001B90EA101
:104CB00002780B789A4207D110F8012F491C002A7C
:104CC000F6D10878002800D00120704710B5020006
:104CD0000C464FF0000002D01046FEF7D3F92146F3
:104CE000BDE81040E0E70000000000004FF0FF3199
:104CF00020B110F8012B491C002AFAD10846704750
:104D0000B0F90630B0F90420B0F90210B0F9000093
:104D1000FBF718BC024B59849A8402F03FB800009C
:104D2000F42A00202DE9FF4F85B000240E4691465D
:104D30009A462546DDF814B002F0A9F880462EB157
:104D40000822314603A802F0FAFD02E003A802F0AF
:104D500099F819F00C0F02D1BDF90E4029E0574621
:104D6000012610E03946059800F0E3F93F1A0146A4
:104D70000598FEF794F805990844059005A801F0F8
:104D8000E5FF10B9761C002FECD109F00C000428C7
:104D900013D0082811D00C280BD1BDF91210BDF981
:104DA0000E000A1A06FB1821491C01EBD17100EB19
:104DB00061045646CDF814B04CE0BDF9121006FB64
:104DC0001814641CF5E73146059800F0B2F907465F
:104DD000361A0146059800F0C4F919F003010ED007
:104DE00001290FD0022911D1BDF91010BDF90C20F5
:104DF000891A091A01EBD17102EB610506E0BDF9D0
:104E00000C5003E0BDF910100D1A6D1C2649401E10
:104E10004D842844ADF80800ADF804508C8404EBB0
:104E20000800401EADF80A00ADF8064001AA394658
:104E3000059800F0ADF939460598FEF730F8059968
:104E400008440590FEF7D4F9044405A801F07EFF5C
:104E5000002801D1002EB6D109B0BDE8F08F2DE9B0
:104E6000FC4105000E461746984617D0002466B14F
:104E70003046FFF7C1FD040007D0224631466846A0
:104E8000FDF780FD6846FFF7B7FD43463A463146D9
:104E90002846FFF747FF2046FFF7AEFDBDE8FC813F
:104EA00047F6FF73DBE70000F42A00201CB50A4632
:104EB00001466846FDF78FFD2148BDF80020016CD2
:104EC0000A44ADF80020BDF80220406C0244ADF861
:104ED0000220BDF804201144ADF80410BDF80610FE
:104EE0000844ADF806006846FDF743FA25E0BDF931
:104EF00000400AE0BDF902102046FEF7FDF9BDF9B9
:104F000006102046FEF7F8F9A41CBDF90400A042E3
:104F1000F0DABDF902400AE0BDF900002146FEF7D3
:104F2000EBF9BDF904002146FEF7E6F9A41CBDF932
:104F30000600A042F0DAFDF7F5F90028D7D11CBD34
:104F4000F42A00202DE9FC410E4F3B6C5D18796C72
:104F50009E180C18ADF80050ADF80460ADF8024092
:104F6000ADF806406846FDF704FA07E0B86D324632
:104F70000368214628469847FDF7D4F90028F5D163
:104F8000BDE8FC81F42A00207CB50E4B1C6C044467
:104F9000586CADF8004045188618ADF80440ADF8DF
:104FA0000250ADF806606846FDF7E3F906E03246C8
:104FB0002946204601F094FFFDF7B4F90028F6D108
:104FC0007CBD0000F42A00202DE9FC410F4E346C1A
:104FD0002518706C14444618C718ADF80050ADF889
:104FE0000440ADF80260ADF806706846FDF7C1F9FF
:104FF00007E03B46224631462846FEF7B8F9FDF762
:1050000091F90028F5D1BDE8FC810000F42A0020C8
:10501000B0F90630B0F90420B0F90210B0F9000080
:10502000FFF7D2BF017DC07D48437047417DC07D01
:10503000484370470748007D70470648407D7047E9
:1050400004490246087D0A75704702490246487DB8
:105050004A757047F42A00200C490EC980E80E00FA
:10506000007A002800D00120704710B50446094995
:10507000074808600C222146044802F0F1FB002892
:1050800002D00ECC01480EC010BD0000B45000206C
:10509000EF4A0008E8000020FEF720B90249024666
:1050A000887D8A7570470000F42A0020024A014674
:1050B000B2F92C0091857047F42A0020024A01467B
:1050C000B2F92A0051857047F42A0020064A0028C8
:1050D00005DB002903DB0123137203C201E000207A
:1050E0001072014801F0E8BEC0500020F7B54E4DE7
:1050F0000C462869114618B1FDF73EFE002806D07F
:10510000A869006920B18268214600989047FEBDD9
:10511000464E0BE06846FDF7AFFE0746A8690168FA
:1051200038468847316809B138468847641EF1D54A
:10513000FEBD73B500980D46002480B13A498969D7
:10514000096951B14A68294690477CBD6846FDF718
:1051500093FE20B10A2802D0641CAC42F6DB204644
:105160007CBD73B500980C46002578B12E4989693D
:10517000096949B10A68214690477CBD6846FDF738
:105180007BFEFEF76DF80544641EF7D528467CBD0E
:105190007CB5054626480E460068114668B10020D9
:1051A000FDF7E7F806E06A4631462846FFF79EFF1E
:1051B000FDF7B8F80028F6D17CBD0822684602F059
:1051C000BEFB194CBDF80010206C0144ADF8001076
:1051D000BDF80220616C0A44ADF80220BDF804203D
:1051E0001044ADF80400BDF806000844ADF8060010
:1051F0006846FDF7BEF80CE0BDF800006084BDF81D
:105200000200A0846A4631462846FFF76FFFFDF78B
:1052100089F80028F0D1608C216C401A6084A08C41
:10522000616C401AA0847CBDF42A0020EC000020B0
:10523000F00000202DE9F04FDFF850B18BB0BBF942
:1052400022200A92DBF81820BBF924A094694FF0C1
:10525000FF36A189884205D3E389834202D3451AE8
:10526000276813E0D4E9017179B10B8898420CD317
:105270004D88854209D3C01A496880B201EB80008D
:10528000B0F90050B0F9026000E03546681C58D013
:10529000107DA17C00FB01F9217CCDE90801BBF95F
:1052A0002A804046FEF71AF8C0B205FB0972079043
:1052B000364BA17C012002AD0FC5DBF8180051462A
:1052C000C37D827DCDE90023DDE908320A98FEF72F
:1052D0006EF8701C16D048F00200FDF7FFFF06FBC9
:1052E00009722A4BA17C012002AD0FC5DBF8180022
:1052F0005146C37D827DCDE90023DDE908320A985D
:10530000FEF755F8DBF818005D46417D007D8142CF
:1053100014D9B8F1020F11D088F00400FDF7DEFFB8
:10532000A869037D427D857D03FB02A102EB0A0390
:10533000DDE9092002FB0502FEF719F80798FDF7E1
:10534000CDFFBBF82210627C1144ABF822100BB0E9
:10535000BDE8F08F0D4880698069407C704702206D
:105360000880704780698289914202D3C2898A424B
:1053700007D2806838B102888A4204D840888842BF
:1053800001D301207047002070470000F42A00205C
:10539000024800887047014840887047F42A00207E
:1053A0002DE9F04128B186681EB10568B5F5807F0A
:1053B00002DD0020BDE8F0810024074F06E056F82A
:1053C0002400FEF7FBF827F81400641CAC42F6DB5F
:1053D0000148EFE7E4E77047CC500020F020704729
:1053E0004FF4C8707047F02070474FF4C870704792
:1053F000102070474FF48030704701207047012023
:10540000704740F2352070471F2300F01F01C0F3A2
:10541000451210B5C0F3C420C0EB0020C2EB02223D
:105420003F24B0FBF3F0B2FBF4F2C1EB0121B1FB7E
:10543000F3F100EB022000EB014010BD10B5044673
:10544000DF48B0F94C00FDF71DFE0188218041883E
:105450006180018882881144491EA1804188C088EA
:105460000844401EE08010BD10B50446D448B0F991
:105470004C00FDF707FEC1692046BDE81040084713
:1054800010B50446CE48B0F94C00FDF7FBFD016AAB
:105490002046BDE81040084710B5C948B0F94C0097
:1054A000FDF7F0FD406ABDE81040004710B504006C
:1054B00013D0C348B0F94C00A04201D101F0E9FC7F
:1054C0002046FDF7DFFDB0F9180008B101F02FFD0F
:1054D0002046BDE81040FDF71DBE10BD2DE9FF4F71
:1054E00081B0DDE90E4BDBF83C90924602FB09F0FF
:1054F000C01D1D460026C708FDF7D5FDE10705D1F3
:10550000C11700EB9170801000EB4000002D06DC0D
:105510002C38B0FBF7F06D42A84200DC0546E007EE
:1055200008D100230093DDE901012B46524601F02A
:10553000CCFD0646002D03DC002005B0BDE8F08F51
:1055400005FB07F02C30E10700B202D0FDF796FD15
:1055500001E0FDF7CDFA5FEA00081BD04046FDF7F9
:1055600091FD0199018002994180A0F804A00446B0
:10557000C580FFF73FFFC4E9020726831099E16168
:10558000119921621299C4E9091BC4F810900021F5
:10559000616103E016B13046FDF7BCFD4046CCE743
:1055A0002DE9F04305460E468648854985B00468D6
:1055B000DDF83090B1F94C001746984610B9886C68
:1055C0000EC803E0FDF75EFD1C300EC8A06BCDE9F0
:1055D000009002A80EC043463A4631462846FFF7DF
:1055E0007DFF05B0BDE8F08338B51C46002300936D
:1055F0002346FFF7D5FF38BD2DE9F041704C05007B
:10560000B4F94C7002D101F044FC14E02846FDF7D7
:1056100039FD0646FDF783F8B4F84C0028B9684810
:105620000822211D4E3002F08AF9A4F84C50B06ACD
:10563000A064FDF7A5FF3846BDE8F0812DE9F74FDE
:105640008AB09246FDF71EFD0746B0F91800B7F97B
:1056500006100991D7E903B10891C90807F12C0692
:10566000079100285ED0FDF70DFD8046002454E030
:1056700000200690D8F808002246436906A9404653
:105680009847B7F904100546814242D1A14600E08F
:10569000641CD8F80800621C436906A94046984774
:1056A000A842F5D00898CDE903B60023059301235D
:1056B000019300930290A4EB09031D465B1CB7F90C
:1056C00004200AEB09010B98FDF771FE6B1C03FB2C
:1056D0000B6621E0DDE906C00CFB00620898CDE90D
:1056E00003B2002305930123029001930B980093CA
:1056F0000AEB040160442A46FDF759FE069822464B
:1057000028440690D8F8080006A9436940469847FF
:105710000546002DDED15E44641C09988442A7DB57
:105720000DB00BE70898CDE903B6002305930123DC
:10573000019302900093B7F904205146099B0B98FE
:10574000FDF735FEECE72DE9FC415FEA00080D4668
:10575000164630D01A48B0F94C704046FDF792FC1E
:10576000044601F096FB40F6FF70401903D1B4F9EE
:105770000050B4F90260A188681E0844ADF8040026
:10578000ADF80050E188701E0844ADF80260ADF835
:105790000600FCF7C0FF6846FCF7EBFD06E032466A
:1057A00029464046FFF74AFFFCF7BCFD0028F6D12A
:1057B0003846FFF721FFBDE8FC8103490A46C2E7EE
:1057C000F42A00209801002001F0FFFF2DE9FF5F7F
:1057D00089469846DDE90E171B78FA4D8346ED5C45
:1057E000C1F10804CD40F84910A845C8097B11F063
:1057F000030106D0012950D0022968D1B0F802A0D7
:1058000016E0F049BC4200D93C463F1B05F00102BE
:1058100030F812206D0826F8022B641EF6D1002FF6
:1058200055D008F101029046127808248D5CE9E712
:10583000BC4200D93C463F1BBBF1000F16D01DB93E
:1058400006EB4406A1441EE0E80708D0DBF8080098
:10585000494603685846029A9847A6F800A0B61C25
:1058600009F10109641E0ED06D08E8E715B906EBD1
:10587000440608E0E80701D0A6F800A0B61C641EA4
:1058800001D06D08F2E7002F21D008F10100804619
:105890000078CC4908240D5CCAE7506A8047C949A2
:1058A00080B2BC4200D93C463F1BEA0702D0328896
:1058B00042403280B61C6D08641EF6D1002F06D01F
:1058C00008F101029046127808248D5CE9E7BDE8F2
:1058D000FF9F2DE9F05F8A46DDE90A1693461F46D1
:1058E0001A788B009A40D5B2B74A8146127BDDE91F
:1058F0000C84C1F10200C0B212F003021AD0012AD6
:1059000079D0022A38D100295FD028090DD0290981
:1059100038F811002080B9F1000F06D0D9F808003E
:105920005A460368514648469847A41C0AF1010AA2
:10593000761E48E039B1290938F8110024F8020B25
:1059400017F8015F761E022E10DB701006F00106BC
:10595000290938F81110218005F00F0138F81110CD
:105960006180241D17F8015F401EF1D1002E03D085
:10597000290938F811002080BDE8F09F28090DD0D2
:10598000280938F810002080B9F1000F06D0D9F8A6
:1059900008005A46036851464846984715F00F00DC
:1059A0000DD038F810006080B9F1000F07D0D9F899
:1059B00008005A4603680AF1010148469847241D29
:1059C0000AF1020AB61E17F8015F022ED6DA002E7F
:1059D000D2D02809D0D038F810002080B9F1000FBB
:1059E000CAD0D9F808005A46036851464846BDE86F
:1059F000F05F1847FFE7B04200DDF0B2361AA909A0
:105A000003D0218881F0FF0121802907A41C0D0EFD
:105A1000401E10F0FF00F2D1002EADD0022017F88A
:105A2000015FE8E72DE9FF4F87B005466648DDE9ED
:105A3000168B8A46B0F94C00149EFDF723FB814675
:105A4000B0F9180008B1FDF71DFB0400D9F80C00EF
:105A5000069005EB0B0007900BD05B48007B80079E
:105A600007D40A9B009352462046099B079901F0F0
:105A70006EFA5146079800F0CCF90746102E3AD13D
:105A8000002031E0079804900BEB0A0005904E4887
:105A9000DDF82490007B46463D4610F0030002D01E
:105AA00002281BD106E04FEA49023146284601F0A0
:105AB00046FF13E0308838B128802CB1A068DDE9BA
:105AC00004120368204698470498AD1C401C0490BB
:105AD000B61CA9F101005FEA0009EBD106981599FF
