:020000040800F2
:1000000000040020470100085501000857010008BE
:10001000590100085B0100085D01000800000000B4
:100020000000000000000000000000005F01000868
:10003000610100080000000063010008650100087C
:1000400067010008670100086701000867010008F0
:1000500067010008670100086701000867010008E0
:1000600067010008670100086701000867010008D0
:1000700067010008670100086701000867010008C0
:1000800067010008670100086701000867010008B0
:1000900067010008670100086701000867010008A0
:1000A0006701000867010008670100086701000890
:1000B0006701000867010008670100086701000880
:1000C0006701000867010008670100086701000870
:1000D0006701000867010008670100086701000860
:1000E0006701000867010008670100086701000850
:1000F0006701000867010008670100086701000840
:10010000670100086701000867010008670100082F
:10011000670100086701000867010008670100081F
:10012000670100086701000867010008670100080F
:10013000DFF80CD000F01EF800480047250A000840
:1001400008020020704708488047084981F3088862
:1001500007480047FEE7FEE7FEE7FEE7FEE7FEE7AB
:10016000FEE7FEE7FEE7FEE7450100080802002083
:1001700031010008064C074D06E0E06840F001033D
:1001800094E8070098471034AC42F6D3FFF7D4FF49
:1001900068EC050888EC050801B5009801E0401EF0
:1001A00000900028FBD108BD2DE9F04F9F78DD7845
:1001B0004FF0FF3404EB07273D441F791FFA85F900
:1001C0005D7904EB07242C441FFA84F80826294C97
:1001D0004FF0000E4FF0360A4FF0370B4FEA102C5D
:1001E0000F0A4FF0C04512B1012A0AD029E0A5F844
:1001F00000A048222280A5F800B07246A4F800E0D2
:1002000008E0A5F800A0E8222280A5F800B0A4F834
:1002100000E0202222802A222A80A4F800C0C2B254
:10022000228000EB0902100A2080D0B220802B200F
:1002300028802780C8B220804144080A2080C8B2A4
:1002400020802C202880D87899781A7900EB01201A
:100250005979400001EB02214843083006E0991922
:100260009A5D497801EB02212180B61C8642F6D3C3
:10027000BDE8F08F000002602DE9F043012197B046
:10028000080200F031FA01217C2000F039FA4FF425
:100290000055ADF854500326DFF8BC908DF8566039
:1002A00010248DF8574015A9484600F0CBF8DFF828
:1002B000AC800227ADF8547015A9404600F0C2F892
:1002C0004CF23370ADF854008DF8566018208DF85C
:1002D000570015A9484600F0B5F84FF68070ADF804
:1002E000540015A9404600F0ADF88020ADF8540048
:1002F00015A9484600F0A6F8E001ADF8540015A98C
:10030000484600F09FF82946484600F0EEF80020E5
:100310000521CDE90F01119021061290CDE91301BD
:1003200001AA0821009082E8130004900590490278
:100330000690CDE9070109900A900B900EA80C9049
:10034000CDE90D07684600F01BF80121002000F000
:1003500007F817B0BDE8F083001401400018014011
:100360008000A0F1C0400029016802D041F00101E5
:1003700001E0024A1140016070470000FEFF0F00DB
:1003800010B5D0E901121143D0E903231A431143F8
:100390004269114382691143C2691143026A1143E0
:1003A000426A1143826A1143C26A11430268920091
:1003B000A2F1C04211608168082907D10168890053
:1003C000A1F1C0410A6842F040020A60016BD1E924
:1003D000002342EA03128B688C891B0243EA044320
:1003E0001A430B8A42EA03520B7D896942EA03628F
:1003F0000A4301688900A1F1C0414A60816AB1F5F0
:10040000804F08D000686FF070418000A0F1C040BC
:10041000C0F8041110BD416BD1E9002342EA031278
:100420008B680C8A1B0243EA04531A430B7D8969CB
:1004300042EA036200680A438000A0F1C040C0F8AD
:10044000042110BDF0B5CA78002502F00F03D206D2
:1004500001D58A7813430A784FF00F0E12F0FF0F80
:100460004FF001021CD004680F8802FA05F63740ED
:10047000B74211D14FEA850C0EFA0CF724EA0707B0
:1004800003FA0CF43C43CF78282F02D0482F02D037
:1004900002E0466100E006616D1C082DE4D30460B3
:1004A0000C88FF2C1ED944685FF0000606F108078F
:1004B00002FA07F50F882F40AF420FD14FEA860CA2
:1004C0000EFA0CF7BC4303FA0CF73C43CF78282F05
:1004D00000D14561CF78482F00D10561761C082EE8
:1004E000E4D34460F0BD4161704701617047000092
:1004F0002DE9F04700F094F94FF0C0411120088039
:10050000F3200880504808240480202303800380BF
:100510000480E7220A80602202804FF0D109A1F80E
:100520000090002202805D250580152505804FF092
:10053000D00CA1F800C04FF00708A0F800800225F9
:1005400005808B2606804FF0030AA0F800A0D42671
:1005500006803A260E805526068036260E80E8262E
:10056000068037270F800280038021230B80C12360
:100570000B80102606801A23038005800580A1F8D1
:10058000009002807123038019230380A1F800C02A
:10059000A0F800800123038004804FF0C00CA1F874
:1005A00000C006804FF0310CA0F800C0028002802D
:1005B00003800580C4250D800380C5250D8004259A
:1005C000058003804FF0D20CA1F800C003804FF0EB
:1005D000440CA0F800C04FF0C80CA1F800C0058082
:1005E0004FF0670CA0F800C04FF0350CA0F800C029
:1005F000058004800625058024250580038007806A
:1006000040250580A0F800A0068004808024048096
:1006100002802A250D80028002800280EF2505805D
:100620002B250D800280028003808F230380CA2344
:100630000B800280EA230B80048029200880034875
:100640000260BDE8F08700000000026000000020AA
:10065000FEB500221E4B11461046FFF7A5FD1D4EAC
:100660003046FFF799FD1D4C1B490125208880234A
:1006700080B20090CDE90151202200214FF4C870D2
:1006800000F0E4F83046FFF787FD0021144B01220B
:100690000846FFF789FD3046FFF77EFD20881149A7
:1006A00080B20090CDE90151002120234FF48472E3
:1006B000084600F0CBF83046FFF76EFD2068401C7E
:1006C0002060B0F5803F01D300202060FEBD000017
:1006D000360A0008FFFFAF0066EA050800000020A8
:1006E0003EF8020846E60508044A0029516901D08F
:1006F000014300E081435161704700000010024057
:10070000044A0029916901D0014300E081439161CD
:1007100070470000001002400CB5002126480191EE
:100720000091026842F4803202604FF4A0630268D4
:1007300002F400320092019A521C0192009A12B9FE
:10074000019A9A42F3D10268920333D501210091B4
:100750001A490A6842F010020A600A6822F003028D
:100760000A600A6842F002020A604168416041681A
:100770004160416841F480614160416821F47C112D
:100780004160416841F4E8114160016841F08071C5
:10079000016001688901FCD5416821F003014160D5
:1007A000416841F0020141604168C1F381010229C1
:1007B000FAD10CBD00910CBD001002400020024097
:1007C0000C48016841F00101016041680A4A11408A
:1007D00041600168094A11400160016821F48021EB
:1007E0000160416821F4FE0141604FF41F01816006
:1007F000FFF792BF001002400000FFF8FFFFF6FE77
:1008000002E008C8121F08C1002AFAD170477047D9
:10081000002001E001C1121F002AFBD17047000037
:1008200070B5094C02212046FFF75DFE4AF6FF75C0
:100830002846FFF7B1FC02212046FFF756FE284666
:10084000BDE87040FFF7A8BC001801402DE9FF4F3C
:1008500000EB020CDDF834B0ACF1010CCDF80CC0AB
:10086000CCF30F2CCDF808C001EB030CDDE90E86AC
:100870000024ACF1010CCDF804C0070ACCF30F2C16
:1008800002FB03FAA14625464FEA112E1FFA8BFB05
:100890004FF0C043CDF800C0B8F1000F2AD0B8F136
:1008A000010F7DD14FF036089946A3F800805C4BCC
:1008B0004FF0E808A3F800804FF02A0CA9F800C018
:1008C0001F80C0B21880029818800398C0B21880A8
:1008D0002B20A9F80000A3F800E0C8B21880009807
:1008E00018800198C0B218802C20A9F80000534647
:1008F0003C2791E04FF0C0434FF03608A3F800804A
:10090000474B4FF04808A3F800804FF0C0484FF025
:100910002A0CA8F800C01F80C7B21F80029F1F804A
:10092000039FFFB21F802B27A8F80070A3F800E0F8
:10093000CFB21F80009F1F80019FFFB21F80D6464D
:100940004CE000BF16F8013BDFF8D4A0002700BF41
:100950005FEA036C2DD54FF0C0484FF02B0CA8F880
:1009600000C001EB090CCDF800C04FEA1C2CAAF81E
:1009700000C0DDF800C00CF0FF0CAAF800C04FF07A
:100980002A0CAAF800C000EB040CCDF800C04FEA16
:100990001C2CAAF800C0DDF800C00CF0FF0C00E031
:1009A0001EE0AAF800C04FF02C0CA8F800C0DC46EE
:1009B00007E04FF0C0484FF02C0CA8F800C04FF6ED
:1009C000FF7CAAF800C05B00641C944202D30024A0
:1009D00009F101096D1C7F1C082FB9D37545B1D3EE
:1009E000BDE8FF8F16F8010BDFF83480002100BF4F
:1009F0005FEA006CA9F8007001D5DC4601E04FF613
:100A0000FF7CA8F800C04000641C944200D300247E
:100A1000491C6D1C0829EBD39D42E3D3E0E700009D
:100A200000000260FFF7CCFEFFF726FCFFF760FD39
:100A3000FFF70EFEFCE7101000F00190011BFFFF16
:100A4000F7FFE7FFDFFFE7FFDFFFE7FFEFFFEFFF66
:100A5000EFFFE7FFE7FFDFFFDFFFDFFFDFFFDFFF86
:100A6000D7FFDFFFDFFFE7FFEFFFEFFFEFFFEFFF56
:100A7000E7FFDFFFDFFFDFFFE7FFE7FFE7FFDFFF66
:100A8000DFFFDFFFDFFFE7FFE7FFEFFFEFFFEFFF36
:100A9000E7FFE7FFE7FFE7FFDFFFD7FFD7FFD7FF5E
:100AA000DFFFDFFFE7FFEFFFEFFFEFFFE7FFE7FF0E
:100AB000E7FFEFFFEFFFEFFFEFFFEFFFE7FFE7FFDE
:100AC000DFFFD7FFD7FFCFFFCFFFCFFFD7FFD7FF86
:100AD000D7FFD7FFD7FFD7FFD7FFD7FFD7FFDFFF5E
:100AE000D7FFD7FFD7FFD7FFDFFFE7FFEFFFF7FF06
:100AF000EFFFEFFFEFFFEFFFEFFFEFFFE7FFE7FF96
:100B0000E7FFDFFFD7FFDFFFD7FFD7FFCFFFD7FF1D
:100B1000D7FFD7FFD7FFD7FFD7FFD7FFD7FFD7FF25
:100B2000D7FFD7FFDFFFE7FFEFFFEFFFEFFFEFFF9D
:100B3000E7FFE7FFDFFFD7FFCFFFD7FFDFFFDFFFD5
:100B4000DFFFD7FFD7FFD7FFD7FFD7FFD7FFD7FFED
:100B5000D7FFD7FFD7FFD7FFD7FFDFFFDFFFD7FFD5
:100B6000D7FFD7FFDFFFD7FFDFFFDFFFD7FFDFFFB5
:100B7000DFFFE7FFEFFFEFFFEFFFEFFFE7FFE7FF2D
:100B8000DFFFDFFFD7FFD7FFD7FFD7FFD7FFD7FFA5
:100B9000D7FFD7FFD7FFD7FFD7FFD7FFD7FFD7FFA5
:100BA000D7FFDFFFDFFFDFFFDFFFDFFFD7FFD7FF6D
:100BB000D7FFDFFFDFFFE7FFE7FFE7FFDFFFDFFF35
:100BC000D7FFD7FFD7FFD7FFDFFFDFFFDFFFDFFF55
:100BD000DFFFD7FFD7FFD7FFCFFFD7FFCFFFCFFF75
:100BE000CFFFD7FFD7FFD7FFD7FFD7FFCFFFCFFF6D
:100BF000CFFFD7FFCFFFD7FFD7FFCFFFD7FFD7FF5D
:100C0000D7FFD7FFD7FFD7FFD7FFD7FFD7FFD7FF34
:100C1000D7FFD7FFD7FFD7FFD7FFD7FFD7FFF7FF04
:100C20006C125BF45C5654355C3664367D197CD8A6
:100C30007CF85C144BB343B34C1543D54BF533935D
:100C40003BB33B9443B44BD47CD88D3984F86435A2
:100C50005C355C56543654364BD453F5543643D534
:100C600043D53B9343B475197CF985199D9B9DDB56
:100C700095BB8D9A7D3975195C7733932373235314
:100C800033B45C97751874D86C977CFA74D9855A0C
:100C90007D188D587D17853974D774986C575C36DC
:100CA0004C162B7323731B731B7323532353233350
:100CB0002333235333D533B52B94233323332333B7
:100CC00022F31B132B33231254367D3A8D7B959BD5
:100CD000955A957A9DBB959A95BB8D5A7D196CB89E
:100CE0005C7743F52B53231222F21B131B131B3388
:100CF000233323132312233323532B742B741B12FC
:100D000023533BB53BB474D9855A95BB95BB853904
:100D100074D85416337423331B331AD122D222F1E0
:100D200022F11AF21AD12333445733B423323373E6
:100D300033942B742B5423121AD11AD11AD11AF2CC
:100D40002333231222F222F21AD12B53231223121D
:100D50004C156CB76C567CD88539855A74F96498F3
:100D600054574C363BF53BF633D52B742353233382
:100D700023333BF65D1A54B933B52333237423333D
:100D80003BD6547764D964B854363BD52B332B7497
:100D9000339443F55C776CD874F9751964D854783A
:100DA00033B523742B542B943BD543F54C36543632
:100DB0004C3644163BF633B52B9523742B94239471
:100DC0002373235323742B74237423531B532394AF
:100DD000239423942B942B94237423742BB4237483
:100DE00023732353237323732353235323532353F3
:100DF0002353235323532353233323332333EFFF2B
:100E000064145C574C57441654585C796CFB6CD98D
:100E10006D1A543743D533D544583C183C182BB67B
:100E20002BB72BB733D733B66CFB857C7D5C6CDA84
:100E300054584C5844174458443844383C383C398A
:100E400034382BF72BD65499755C7D3B8D9D8D9C4A
:100E5000859C859C6D1B5CFA3C581B75139613761C
:100E600023B754BA651B5499549A64FC5CBB6CFB61
:100E7000857C8DBC859C857C751B6CDB547A4439E4
:100E800044591B9613960B7603550B960B760B560F
:100E90000B7613761BD81BB713B70B5613560B568E
:100EA00013760B55135613354459759E757D859DE4
:100EB000855C8D7C95DD8D9D95FE85BD755C651C85
:100EC0004C9A2BF8133513150B150B560B360B36A6
:100ED0000B360B360B350B5613761B971BB7137659
:100EE00013962C1834185CDB753C7DBD7D9D757C9C
:100EF0005CDA447A2BF813760B760AF40AF402D4FF
:100F00000AF40B150B350B552C5A1BD70B3423F752
:100F10002C182BF81BB70B1502D40AD40AF40B15A6
:100F20000B350B350B150AF513350B3513561B75A1
:100F30004C9A6D3C64DA753B755C755C6D1C5CDCD1
:100F4000447A3C5A2C1924191BF81397137613561C
:100F50000B5623F8451C34BB1BD80B7613970B5646
:100F600023F9343944BB4CDB449A34391376135596
:100F700023B73C5954DB5CFB5D1C5D1C4CBB347AD5
:100F80001BB7139713971B972BF834383C593C59D0
:100F90003459345A24191BD813B713B713F80BB7A5
:100FA0000B760B761397139813970B7703760BB783
:100FB00013D80BB70B9713B713D713D713F80BB777
:100FC0000BB70B960B960B960B960B960B960B96F8
:100FD0000B960B960B960B760B760B760B76E7FF44
:100FE000FF3CFF3C4C794C7944174C3964FB6D3C19
:100FF0006D5C64FB4C993C38341834392BF923D898
:101000001BB823D82BF92BB85CFC7D9E859E7D7D7B
:1010100064DB54BA3C59341834392BF92C19347A1E
:101020002C5924181BB71B5575BF85DF9E1F8DBE1D
:101030007D7DFF3CFF3CFF3CFF3C0B970BB80B98C2
:10104000FF3CFF3C4D1C3C7A447A3C3A3C19545AD4
:101050008DFF961F961F85BE753C6D3D5CFC3C7BED
:10106000345B13980377FF3CFF3C039803780398A5
:1010700003780377037803780398035803570336FC
:101080000377035603570336345A6DBF6D5E7D7E7A
:10109000857D95DE95FF95FF8DFF85BE6D5E5D1E9E
:1010A0003C9C23F90B570B57033703570337035760
:1010B000035703370337033703780B980B9803570D
:1010C0000BB82C3A4CFC54DC757E759E759E5CFC0E
:1010D0003C3A345B2C3B0B9803770337031603161B
:1010E000031603370B780B980BB813D813972419F2
:1010F0002C7B2C5B13D9033702F602F6031603167A
:1011000003370B57033603160B5703571BF92C5A9B
:101110005D5E759F7D9E7D9E7D9E6D7D655D54DDD2
:101120003C5B2C1A1BFA1BFA0BB9037803570357C5
:101130000B780BD9249C143A0BF903B803B80B991C
:1011400013B913B9241A347B3CBC2C7B13B813B8E5
:10115000349B4CFD551D553D551D4CDC3C9B13D817
:101160000BB80BB80B980B981BF92C3A345B2C5B23
:101170002C5B245B141A0BFA03D90BF90BF903B996
:10118000039803B90BD90BB90399039903B903F970
:10119000041A03D903980BD9143A143A0BF903B87B
:1011A00003B8039803B803B803B803B803B803B887
:1011B00003B803B803B80398039803980398EFFFA4
:1011C000FF3C7BCF7BCF54994C594C3954796D5DA2
:1011D000759D6D5C5CFB445934183C5A3C5A34197B
:1011E00023D823D823D823B754BB7D9E8DDE8DDE34
:1011F000753B64DA54BA34182BD823B72BF9347BF7
:101200002C7A24191BF81B76655D7D9E961F8DBE7A
:10121000FF3CFF3C7BCF7BCF7BCF7BCF03980BB8D2
:10122000FF3C7BCF7BCF3C9A3439343A3C394C3944
:101230008DFF9E1F9E3F8DDE64DA651B5D1C449B07
:101240002C3A1BD90356FF3C7BCF7BCF03980398E6
:1012500003770377035703980377035703570377FD
:10126000037703770B9702F52C396DDF6D5D7D7D7C
:101270008DBE9E1F9DFF9DFF95FF859E757E5D1E09
:101280003C7C1BD90B370B37033703570337033726
:1012900003370337033703370337035803780357FC
:1012A0001BD923F94CDC549B85BF7D9D759D5CDB70
:1012B0003C3A343A2C5B13D9033703360316033612
:1012C000031603370B980B980356243A34BB2C3A79
:1012D00034BC2C7B13B9031602F602F6031603374F
:1012E0000336031602F50316031613B8243A3CBB63
:1012F000657E7D9F7D9E859E85BF7D9E6D3D5CFD4F
:101300003C5B2BFA1BFA1C1A13B90378033703371B
:1013100003980BD924BC1C5B03D903B803B80B9901
:10132000037813981BD92C5B3CDD2C5B1398241994
:101330003CDC551D54FC5D1D551D4CBC343A13B8A6
:1013400013D90BB80B7713B9243A2C3A345B2C3AE7
:101350002C5B1C3A0BF903D903D903D903B90398C1
:1013600003B90BD90BD903B9039903B903B903FA2C
:1013700003FA03D903B90C1A1C9C145B03D9039814
:1013800003980398039803B803B803B903B903B9E2
:1013900003B903B903980378037803780398EFFF40
:1013A000FF3C7BCF00000000549954795C9A6D3C5F
:1013B0007DDE757D651B4C9A3C393C193C5A3419CD
:1013C00023B81BB71BD823D83C5A653D8E1F8D9D73
:1013D000859D753B64FB3C3823B72BF823D82C5AEA
:1013E000243A13D813B71B973C39757E8DFF859E21
:1013F000FF3C7BCF7BCF0000000000000000039784
:10140000FF3C7BCF000000002BF844BB2BD7547A65
:101410008DFF9E1F95FF8DBE64FB5CDA5D1C3C7AE0
:1014200023B81BF90B77FF3C7BCF0000000003982B
:1014300003770398037703B8037703780357037799
:1014400003760357037703362C3A65BF653D757DF8
:101450008DFE9DFE9DFE95DE95FF7D7D757E551E64
:101460003C9C23F90B770B5703370357035703377C
:1014700003370337033703370357035803570378FA
:101480000B7723B84CBB5CBB7DBE7DBE7DBE54DB01
:10149000445A2BF9241A1C1A03570316031602F692
:1014A00002F60357037803570B972C5A451D347ADD
:1014B0003CBC347B13B90317031602F6031603165C
:1014C00003160B57033603160B7713D92C9B44FDD9
:1014D000659F85BF7D7E85BE85BE7DBE6D3D54DC2E
:1014E0003C5B2C3A241A13F90B9803570357035704
:1014F000035703981C5B143A03D903D903B9039823
:1015000003570B780B981C1A349C243A13B82C5AA6
:101510004CFD5D3D551D54DC4CDC449B2BF91BD828
:1015200013D90B980B981BFA243A2C3A2C5B243ACB
:10153000243A13FA0BD903D903FA03FA03B903982F
:1015400003D90BB90BB90BD90BD903B903B803D91C
:1015500003D903B903D9145B1C9C143B03B903984A
:101560000398039803B803B903B903B903D903D99E
:1015700003D903B903980378037803780398F7FF36
:10158000FF3C7BCF00000000FF3CFF3CFF3CFF3CEA
:10159000FF3CFF3CFF3CFF3CFF3C44393C3A3439C4
:1015A0002BF8FF3CFF3CFF3CFF3C44597D9E857D72
:1015B0009E1EFF3CFF3CFF3CFF3CFF3C23D81B979B
:1015C00013B8FF3CFF3CFF3CFF3C5D3D6D7E6D5D15
:1015D0005CDA7BCF00000000FF3C7BCF0000000006
:1015E000FF3C7BCF0000000023D83C9B23B7549ADC
:1015F0007D9EFF3CFF3CFF3CFF3C651C551B4CFCAB
:10160000FF3CFF3CFF3CFF3C7BCF0000000003B8E9
:1016100003B803B803770397035703770377037778
:101620000397035703370B782C7B5D7E551C6D7D2C
:101630008DFE9E1F9E1F8DDE8DDE6D3C5D1C345A1F
:1016400023F9139803570357033603370337033639
:10165000033703370337033703570357033703575A
:101660000336341A655E759E85DE85DE7DDE653D5A
:10167000449B2C1A13B90B99033702F60316031671
:101680000317033703570B981BD92C5A3C9B3CBCC0
:101690003C9B347B23F903370316031603370B589F
:1016A00003160317033703572C9C13D913F9345A25
:1016B0005D3E7D9F857E8DDF859E7D9E6D3D5D1DA2
:1016C00044BC3CBC2C5A13D9035703570357033768
:1016D000037703770BD90BF90C190C1A03980378CD
:1016E00003780B990BB913FA245B241A1BD923F93D
:1016F0004CFD551D44BB449B341923D92419345B3C
:101700002C5A1BF91BF9243A2C5B2C5B2C7B1C1AE2
:101710001C1A0BD903B903B903B903B90398039889
:101720000BD90BD90BF91C3B141A03D903D903D9D4
:1017300003B803B803F9143A145B0C1A03B803B8DE
:1017400003B803B803B803B803B803B803D903F95F
:1017500003D903B803980398039803980398F7FFF5
:10176000FF3C7BCF00000000FF3C7BCF7BCF7BCFDB
:101770007BCF7BCF7BCF7BCF7BCF7BCF3C193C1903
:10178000FF3CFF3C7BCF7BCF7BCF7BCF64FC8DBE10
:10179000FF3CFF3C7BCF7BCF7BCF7BCF7BCF23D866
:1017A000FF3CFF3C7BCF7BCF7BCF7BCF54FC6D7D61
:1017B0004C794CFB00000000FF3C7BCF0000000098
:1017C000FF3C7BCF0000000023D823F823D84CBB7C
:1017D000FF3CFF3C7BCF7BCF7BCF7BCF54FBFF3CE1
:1017E000FF3C7BCF7BCF7BCF7BCF0000000003D9BA
:1017F0000BF90BF903970377037703780377035704
:1018000003570357033703372C3A4D3E4CBB651C37
:101810007D9D95FF8DDE7D7D755C651C4CBB23F940
:101820001BB80B97035703570336033703370337A8
:1018300003370337031603370337033703370337F9
:101840001378341A5CFC85DF8DFF7DBE7DDF653D3E
:101850003C5A2C3B13B903370337033703160316DF
:10186000035803370B7813B81398347B44BC4CFCF3
:101870003C7A345B241A0337031603370B570337BC
:101880000337035703370357247B141A0B97241984
:10189000657E7DBF7D7E85BE85BE7D9E759E5D3EDF
:1018A00044DC3CDC2C7B13F9037703370336031647
:1018B00003570357039803B803B80BF9037703578B
:1018C0000378039803B90BD913FA1BD9135823B91A
:1018D000553E4D1D3C7A3C7B23D813572C3A44BCD3
:1018E000347B2C3A2C5A2C7B2C7B2C7B241A1C1AF4
:1018F00013FA03B903D903D903B903DA03B9039877
:101900000BD80BD9141A245B141A03B803D903D9C2
:1019100003D903B803B803D90BF903D90398039883
:1019200003B803B803B803B803B803D903F90C1A12
:1019300003F903B803B80398039803980398F7FFD3
:10194000FF3C7BCF00000000FF3C7BCF000000008D
:1019500000000000000000000000000000003BF854
:101960003C187BCF7BCF0000000000000000857D8D
:10197000FF3C7BCF7BCF0000000000000000000098
:10198000FF3C7BCF7BCF000000000000000054FC38
:1019900054FC3C79FF3CFF3C7BCF7BCF0000000038
:1019A000FF3C7BCF0000000023F81BF81BB844BBB2
:1019B000FF3C7BCF7BCF0000000000000000FF3C1D
:1019C0007BCF7BCF00000000000000000000141956
:1019D00003D80BD8039703570377037703570B7884
:1019E00003370B570B5803171BB93CBC3C5A5D1C03
:1019F000651C8DFF8DDF7D7D757D5D1C449A1BB759
:101A000013770B5703560336033603370336033673
:101A10000336033703370337031703170337035717
:101A20000B362BB86D5E85FF8E1F7DBE757E5D3DCE
:101A3000239823FA13D90357033703170316031602
:101A4000031703371398241A1BB83C5A4CBB551C78
:101A500044BB345A23D90B360B370B5703370317C4
:101A600003170357033703371C3A0BB903771BD906
:101A7000553D759F859E85BE7DBE759D657D553D99
:101A800044FD3CDC243A0BD8035703570337033695
:101A90000337033703770398039803B80378037772
:101AA000037803B803D9039913FA0B37133733FAC2
:101AB0005D5F4CFC343923F81BB81BB8345A449B87
:101AC000447B3C5A347B349B2C7B243A243A1C1AAA
:101AD0000BD90BD903D903B90BDA0BFA0BB903985D
:101AE0000BB80BD91C3A247B13F90BD903B803D9D3
:101AF00003B8039803B80BD90BD903B803B803B8DC
:101B000003B803B8039703B803B803B80BF90BF98C
:101B100003D803B803B803B803B8039803B8F7FFB2
:101B2000FF3C7BCF00000000FF3C7BCF00000000AB
:101B3000FF3C7BCF00000000FF3C7BCF000000009B
:101B400054BBFF3C000000007BCF7BCF00000000B7
:101B5000FF3C7BCF00000000FF3C7BCF000000007B
:101B6000FF3C7BCF000000007BCF7BCF000000005C
:101B70004C9AFF3CFF3C7BCF7BCF0000000013B8AA
:101B8000FF3C7BCF000000001B971BD8349B44DC3C
:101B9000FF3C7BCF000000004CBB33D800000000AE
:101BA0007BCF00000000FF3C7BCF00000000141A38
:101BB00003B80397037703570377035703370337B4
:101BC00003370B370B380B580B37139823D8447A4D
:101BD0004C9A6D5D7D7E755D6D3D5D1C44BB23F94A
:101BE0000B36033603360357033603160316033644
:101BF00003160317031703170317031703170B57CE
:101C00001B774C9B861F85FF85DF759E6D7E54FD7F
:101C100023B81BFA0B980337031602F603160316B4
:101C2000033703371BD9347B343A44BB5D1C5D1D3D
:101C300054FC4CDC345B13780316031602F60317CE
:101C400003370337033703370B98037703571BD842
:101C50004CDC6D5E7D7E7DBE759D6D5D5D3D4CFD9C
:101C6000349B2C5A13F90B98037703580357031727
:101C700003370317033703570337037803770398B2
:101C80000397039803980398035713782BFA4CDDB6
:101C9000551E2C1913761BD82C7A2C5B347B447B75
:101CA0004C9B449B3CBB3CBB2C7B243A1C1A1C1A0F
:101CB0000BD803B803D903D9141A141B0BDA0398F1
:101CC00003B813D9247B2C9C0BD903B903B803B8F0
:101CD00003B803B803B903B903B903B803B803D908
:101CE00003980398039803B803D803B803D903F9FA
:101CF00003D903B803B803B8039803980398EFFF18
:101D0000FF3C7BCF00000000FF3C7BCF00000000C9
:101D1000FF3C7BCF00000000FF3C7BCF00000000B9
:101D2000FF3CFF3C7BCF7BCF0000000000000000A9
:101D3000FF3C7BCF00000000FF3C7BCF0000000099
:101D4000FF3C7BCF0000000000000000000000000E
:101D5000FF3CFF3C7BCF7BCF000000000BB813970C
:101D6000FF3C7BCF000000001377139834BC3CDCB1
:101D7000FF3C7BCF0000000044BB2BB8447AFF3C03
:101D80007BCF00000000FF3C7BCF00000000141A56
:101D90000398037803980378035803580B780317C4
:101DA0000B581BD90B78035803370B7813772C1A71
:101DB0003C5A5D1D655E5D1D5CFC54DC449B2BF94B
:101DC0000B360B360B5703570357033703580317CC
:101DD00003170317031703170317031703380B57CA
:101DE0001B785CFD861F7DDF75BE75BF6D9F44BC93
:101DF00023D91BFA03580337031702F6031602F61A
:101E00000337033713983C9B3C7A54DC653D653DB2
:101E10005D1D551D3C9B1BB802F602F602F603370A
:101E20000B9803570378033703370357037713D807
:101E30003C7B655E757E7DBF6D9D655D551D44BCBB
:101E400023FA13D90B980398037803780337031701
:101E500003170317033703170317035803570357D1
:101E600003B80BD903B803980337241A3C5B54FE1C
:101E70004CFD23F90B561BD83CDC3C9B449B54BCCB
:101E800054BC4CBC44BB3C9B2C7A243A243A13FAF5
:101E90000BB803B80BD90BFA143B1C3B13DA0398AD
:101EA00003B8141A24BC24BC0BF903D903D903B911
:101EB00003B903D903D903B9039903B903B903D902
:101EC0000398039803B903B803D903D903D903D9F5
:101ED00003B903B803980398039803980398EFFF96
:101EE000FF3C7BCF00000000FF3C7BCF00000000E8
:101EF000FF3C7BCF00000000FF3C7BCF00000000D8
:101F0000FF3C7BCF7BCF000000007BCF00000000B8
:101F1000FF3C7BCF00000000FF3C7BCF00000000B7
:101F2000FF3C7BCF00000000FF3CFF3C341A33FA3B
:101F3000FF3C7BCF7BCF000000000B970BB70B77EC
:101F4000FF3C7BCF0000000013970B771C1A2C5A24
:101F5000FF3C7BCF00000000FF3CFF3C445AFF3CAD
:101F60007BCF00000000FF3C7BCF00000000141A74
:101F70000398037803780357033703380B780B571C
:101F80001BD92C5B0B98031603570B780357139838
:101F900023F94CDD551D4CBC5D3D54DC449B2BF9B5
:101FA0001BB80B57137803570B7802F602F603178A
:101FB0000317031703170317031703180338031630
:101FC0002BD96D9F7DBF75BE6D9E6D9F5D3E2C1A9A
:101FD000139813B903570337031702F602F60316D3
:101FE00003370B371B9844BC4CBB655D6D5D6D5D65
:101FF000653D5D3D449C23B8031602F60316037845
:1020000013FA0B980357031703170357037713D8D3
:10201000345A653E759E75DF6D7E655D551C3C7B53
:1020200013B90B9803980398037803580317031701
:1020300003170317031703170337035803580B78C5
:10204000039803B803B9037703782C7B44DD4CFE77
:102050003C9C1BB81377241944DC3C9B4CBB5CDCD8
:102060005CDC54DB449A3C7A345A2C3A243A1BF90F
:1020700013F91419143A143A1C3B1C1B0BD903B85E
:102080000BF91C5B2CBD249C0BFA0BFA03F903B96A
:1020900003D903D903D903B90398039903B903B842
:1020A000039803B803B903B903D903D903D903D9F2
:1020B00003B903B903B90399039803B903B9E7FF57
:1020C000FF3C7BCF00000000FF3C7BCF0000000006
:1020D000FF3C7BCF00000000FF3C7BCF00000000F6
:1020E000651B7BCF00000000FF3C7BCF00000000A1
:1020F00054BA7BCF00000000FF3C7BCF0000000003
:102100003C3A7BCF00000000FF3C7BCF7BCF4C7C78
:10211000FF3C7BCF00000000FF3CFF3C13D813B70F
:10212000FF3C7BCF00000000FF3CFF3CFF3C24193C
:1021300024197BCF00000000FF3C7BCF7BCF655D87
:102140007BCF00000000FF3C7BCF000000001C1A8A
:1021500003B80377037703570358033703372C3A41
:1021600044DD3CDD243A0B97037703570B770336A6
:102170000B77347B3CBC345A4CDC34192BD833F904
:102180004CFD44BD347B13980357031603370317E4
:102190000317031702F602F702F703170B370315AD
:1021A0004CDC863F7DBF653D5D1C449B343A1B780B
:1021B0000317035703570316031602F602F6031616
:1021C00003160B362C194CFC551C759E759D755DC0
:1021D000757D655E4CDC23D90B3702F603361BFA9E
:1021E000243B13D903570317033703570B9813984E
:1021F0002C3A5CFD6D5E6D9E653D5D1C4CBB345B99
:102200001BB813B90BB803980378035803170317C7
:1022100002F70317031703170B58139913B913B8D1
:102220001C3A245B13D9037713F92C5B349B44FDD0
:102230002C3A1BB823F93C5A4CDC4CBB5CDB64DC0D
:102240005CDC54DB4CBA449A345A2C3A2C1A23F9ED
:102250001C1A245A247A1C5A1C3A1C1A13F90BD93A
:10226000141A247B2CBD247C13FA0C1A03F903D90D
:1022700003D903D903B903B90398039903B90398A0
:102280000BD90C1A0BFA03F903B803D903B803D816
:1022900003D903D903D903B803B803B903D9E7FFB6
:1022A00095DB7BCF0000000085BE7BCF00000000E7
:1022B00054797BCF0000000064DB7BCF000000007E
:1022C0006D3C6D9D000000007BCF7BCF00000000C7
:1022D0003C39653C000000007BCF7BCF0000000054
:1022E000443A4C9B000000007BCF7BCF00000000F5
:1022F0003C1A7BCF000000007BCF7BCF7BCF13B796
:10230000349A7BCF000000007BCF7BCF7BCF7BCF8D
:102310001BF913B8000000007BCF7BCF000000004A
:102320007DDF000000007BCF7BCF000000001BF9A9
:102330000BD803B7037703770B7803570B37449C0D
:10234000551D44FC349B13B803360336035703571B
:1023500003581C1A241A1B98345A34193C5A33F95E
:102360005D3E551E3C7B1BD90B57033703160317E5
:102370000317031703160317031703170B370B3540
:102380005D5E861F75BF54DB449A1B971BB80B37E5
:102390000316033703770316031602F602F602F656
:1023A00002F503163C9B551D5D3D757D7D9D7D7D34
:1023B0007DBE6D7E54FC2BF90B5703360B78247BC6
:1023C0001C3A13B903360316031703160B990B7740
:1023D0002BF94CBC5D1D653D54DB54FC44BB347B88
:1023E0001BD91BF90BB9039803780337033703177D
:1023F00003170B370316033713B9241A2C5B243B3E
:10240000245B243B03770357035713B834BC34BB16
:102410001BD823D93C7B3C3A4C9B5CDB64FB64FCC3
:1024200064FC5CDB4CBA449A3C59343A2C1A23F9CC
:10243000241A247A247A1C3A141A1C1A141A13F92E
:10244000143A247B2CBC247C0BF90BF903F903D937
:1024500003D903B903B90398039803980398039821
:10246000143A1C7B143A0BF903B803B803B803B849
:1024700003B803B803B803B803B803B903D9E7FF37
:102480007CF8857B00000000857C751B0000000047
:102490006CFA753C000000006CDB64FB000000007F
:1024A0006D3C6D7D653D00000000000000000000F7
:1024B000FF3CFF3C651C0000000000000000000025
:1024C0004C7A54BB44590000000000000000447BDB
:1024D0003C192BB8000000000000000000000000C4
:1024E0002C7A3CBC0000000000000000000000004E
:1024F000000013D90BB80000000000000000759D1B
:1025000085DE7D9E000000000000000000000BD86A
:102510000BD803B703770377037703570B57447B35
:102520005D1D4CFD4D1D2C3A03560B5703570337C9
:10253000035813DA13D90B5723D933F93C3A445AC9
:102540005D3E5D3E3C7B1BB80357035703370337A3
:102550000337033703370316031603370B57135696
:10256000657E75DF6D7E449A343A0B160B57031760
:102570000337033703780B780B5702F602F603177D
:1025800003370B573C9C551D653D757D759D757DCD
:10259000759E655E4CDC241A0B5703370BB91C7B08
:1025A000141A0BB803370337031703170B990B786B
:1025B0002C1A449C5D1D54FD449B4CBC44BC349C73
:1025C0001C1A141A03980378037803370337031788
:1025D0000316031703160B78241A2C7B2C9C245B00
:1025E000243B241B03370B780B780BD8247A247AEE
:1025F00013F91BB9343B3C3A54BC6D1C651C6D3D52
:10260000651C54FB4CBB447A3C7A345A2C1A23FA8E
:10261000243B245A1C5A1439141A141A141A0BF98C
:102620001C5A247B247B245B0BF90BF903F903D997
:1026300003D903B903B80398039803B903B80BB8D7
:102640001C7B247B141A0BD9039803B803D90BD92C
:1026500003D903B903B903B903B903B903D9E7FF30
:102660006C555C576CFA7D1B7D5C7D7D753C64B957
:102670006CDA751B7D5D7D7D6CDA64DA5CBA5C9A20
:102680005CBB64FC5D3D445934183C3934592C180A
:1026900023B77BCF7BCFFF3CFF3C7BCF000000000C
:1026A00054BB54BB54BA449A23B634384CFB4CBB8D
:1026B0003C3A3C5A2BF93C7B4D1D3C7A2C190B764D
:1026C0002C7B349B1BD91BD913B90B9813B9347CC1
:1026D000349C13B80BB803771BF83C3A651C85DEB5
:1026E0008DDE8DFF7D5D6CFC547A33F823F813D8B2
:1026F0000BB7039703760377039803780B77447B34
:10270000655E5D1D657F4D1D0B770316033703580E
:102710000358037803570B77343A54FD54DC6D7E2D
:10272000759F655F4CDC13B80B77033703170317EE
:1027300003370337033703160316033603561356BE
:102740006DDF75DF447B23971BB803360316033711
:10275000035803570B98243A1BFA0B7803370337B7
:10276000139813B92C3A551D5D3D759E6D7D6D7D99
:102770006D7E5D3E4CDC2C5B0B5703370B98141AB7
:1027800003B803770337031702F602F70B7813B980
:10279000345B447B5D1D54DC3C3A449B44DD3CBCD3
:1027A0001C3A1C1A03980377037703370337033760
:1027B00003160337035713D92CBC34BC2C7C34BD0F
:1027C0001BFA13B90338031703570B9803970BD859
:1027D0001C3A23FA3C5B54DC757E7D9E757D6D3D15
:1027E000651D5D1C54DB449A449B3C7B343B343B6D
:1027F0002C5B245B1C5A1C5A143A143A141A0BF919
:102800001C5B1C7B1C3A1C3B13FA0C1A0BF903D9FA
:1028100003D903B903B8039803990BB90BD913FA79
:102820002CBC249B141A0BD90BD913FA1C3A1C5B31
:10283000141A0BF903B903B903B903B903B9EFFFCC
:1028400064155C58753C7D5C64DA6D3C6D1C5C9A6B
:1028500054796CFB7D7C7D9C64FA64FB54794C5903
:102860005CDB5CDB54DB4459447A447A447A3418A8
:102870002BF73439000000007BCF7BCF0000000035
:1028800064FB54BA54DA3C792BD73C5954FC54DCE1
:102890003C193C5B23D82C393CBB4CFD3C7B13776B
:1028A0002C5A2C5A13B813D90B980BB90B982C7CB3
:1028B0003CFD13D90B9803781BB8447B7D9F8DDEBC
:1028C000961F8DFF859E755D547A3BD92BF924198F
:1028D0000B970377037603770BB8039813B83C7B09
:1028E0005D3D54FD54FD555E0B56033703370337EA
:1028F000035803580B780B573C9B6D9F6D5D85BF4C
:102900007D9E6D7E4CDC13970357035703170337E7
:102910000337035703370337031603360B571B9749
:102920006DDF5D9F345B1377137703360316033631
:10293000241A1398139834BC2C7B13980B58033823
:1029400013B91BB923F944FC4CDC657E655E655EFA
:10295000657E54FD3CBC2C5B0B780B78037803D967
:10296000039803570337033702F6033703371BD99E
:102970003C9B4CBB5CFC651D445A449C44DD34BC10
:10298000245B13FA037803570357035703370317DE
:1029900003370358035713F934DC345B345B3CBC16
:1029A000241A1399031703370317033603970B9859
:1029B0001BFA23FA447C651D757E859E7D9D757E80
:1029C0006D3D5D1C54FC4CBB449B3C7B345B345BD9
:1029D0002C5B243A1C3A143A143A141A0BF903D912
:1029E000143A141A0C1A143B141A0BF90C1A03D9C2
:1029F00003D903B903B803980378039913FA1C3B6E
:102A000034DD247B143A13F91BF9243A2C3B2C9C1B
:102A1000141A03D903D903B903B903D903B9E7FFDA
:102A20005BF45438755D759D5C995CBA5CBA549AD8
:102A30004C596D1B757D7DBD757C651B549A547911
:102A40004C795CDB5CFB4C7A54DB5CFB4C9A3418B5
:102A500033F82BD8343900000000000000007D7DE1
:102A6000755C651B54DA449A2BF83C195D1D54DCE7
:102A70003C1A2BF91BB824182C5A4CFD3CBC1BF9F2
:102A800013D81BF913B81BF90B9803980B98243A29
:102A900034DD1C190398035713984C7B85DF95FF91
:102AA00095FE95FE8DDE7D7D5C7A443A445B345B19
:102AB0000B970B97039703770BD90BD91C3A3C9BC9
:102AC0005D5E54FD445B4CFD0B57033603770337C3
:102AD00003580357033713774CFC75BF85DF8DDF31
:102AE00085DF757E54DC1BD8037703370317031784
:102AF0000317033703370337031603370B571BB886
:102B00005D7F4D1E23FA0B370B360B3603151B77F3
:102B1000345B2BF92BD83CDC2C9B13B913780B5866
:102B2000139913982C1A347B2C394CFC5D5E5D3E56
:102B3000551D4CFC3CBC349B13B90B990BB903B924
:102B4000039803780317031702F602F60336137788
:102B500044BB4CDB653D651D4C7B4CDD44DD34BC2A
:102B60001C1A13D903780357033703370357033865
:102B700003370357035713D92C7B343B3C7B44BCAE
:102B8000241A1398031703370317033603570378E0
:102B900013B91BD9449C653D7DBE85BD7D7D7D7E81
:102BA0006D3D651C54FC4CBB449B3C7B3C5B345BE7
:102BB0002C5B1C3A141A0BF90C190BF903D903B846
:102BC0000BF90BF90BF90C1A0BFA0BF90BF903D9EA
:102BD00003B903980398039803980BD913FA243B7D
:102BE0002C9C1C5B1C391C192C5A347B347B2C7C90
:102BF0001C1A03D903D903B903B903B903B9E7FF11
:102C00005C554C37549A651B5CDA549A44594438E5
:102C1000443854BA5CFB653B759D7DBE7D9D755CFB
:102C20005479549954994C38651C759D6D5D4CBA16
:102C30004CBB2BF82BD833D844186CFB85BE961FA1
:102C40008DDE7D9D6D3B5CFC3C192BD854DC54DC47
:102C5000447A23D813B81C1813D83CBC4D5E349B5F
:102C60000B9713B813B81C3A13B90378037713D82A
:102C7000247B1C5A0BF90BF913B8445A64FC9E3F91
:102C800095FF961F963F85BE64BB547B4CBC3C9C15
:102C90000B7703770397037713D913FA245B3CBCB4
:102CA00054FD5D3E4CBC4CDC1397033603370337B1
:102CB0000337033703570B56449B757E963F95FFAA
:102CC000961F7D9F5D3D345A0B770337031703171B
:102CD00003170337033703370336035703771BB94B
:102CE000349C1BFA03370B360B3613561B764CDC21
:102CF00054FD4CBC4CBB44DB3CBB2C3A137813B9A1
:102D0000241A243A3CBC23F90B361BB7347B345AC3
:102D1000343944BC44BC3C9C1BB90B9813DA0BFA05
:102D200003B90B9803370317031713782C3A345A57
:102D300054FD54FC655E5D1D4C9C44BC3C9C2C7B4E
:102D40000BB8037803570337033703570378035847
:102D50000358035703570B981BF9343A4CBC4D1DCD
:102D6000345A13990337033703370337035603578E
:102D70000B981BD954FD759F85FF85DE859D7D9E33
:102D80006D5D653C5D1C4CDB449B449B3C7B347B14
:102D90002C3A1C1A0BF90BD903D903D903B80398A1
:102DA00003B903B903D90BD903D903D903D903D97B
:102DB00003B903B8039803980BD91C1B1C3B243B95
:102DC000243A141914191C3934BB44DC3CBC2C7B48
:102DD000141A03D903B903B8039803B903B9E7FF79
:102DE0005C55547854BA651B5CDA4C794C793C38A4
:102DF000445A4439443944585CFB85DE8E1F85BEF5
:102E00005CBA5479547954795CBA64FB651C54DB20
:102E10005D1C447A3C193C18443864DB8DDF9E1FEE
:102E200095FF8DDE755C651C3C182BB84C9B54FCE3
:102E3000449B2C3A2C9B1C390B972C3A3C9B2C9B8B
:102E400003970BB80BB8245A13D9039803770B9741
:102E500014191C7A0BF90BB80B77449B6D3D8DFF51
:102E60008DBE8DFF8E1F8DFF6D3D5CFD551D4D1E72
:102E70000B7703770398039713F913FA1C1A34BCE2
:102E800044BC5D3E54FD4CDC1397033603370337D7
:102E9000035703780B570B36449B759F85DF95FFCF
:102EA0008DDF7DBF655E3CBC0B57033703370337AF
:102EB000031703570357035703360377037813B9F0
:102EC000245B13B90B58135723D92BF84CDC657EC0
:102ED0005CFD5CBB54DC449A3C9B345B1B980B57F9
:102EE0001BFA243B3CDC24191377137723F91BB816
:102EF0002C1944DC4CDC44BC1BD90B780B9913FA1D
:102F000003980B980337031602F62C1A553E551DED
:102F100054FC5D1D653E5CFD4CDD3C9C349C243ABC
:102F200003770357035703370337035703780358CF
:102F300003580358033703571377343A54FD551D8C
:102F4000345A13980317031703160336033603572F
:102F50000B9823F95D5E7DBF8E1F8DFF85DE7DBEE4
:102F6000757D653C5D1C4CDB44BB449B3C7B347BEA
:102F7000243B141A0BF903D903B903B80398039837
:102F800003B8039803B803B803B803F903F903F9C6
:102F900003B903B90398039813FA247C245C245BD7
:102FA00013F90BF913F81C393CDC44FD44DD2C7B90
:102FB00013F903B803B9039803B803980398E7FF1C
:102FC000645554785CDA6D5C651B549954BA3C398D
:102FD0003C3933F83C1933F84C796D3C8DFF85FF53
:102FE000755C5CBA54795C795CBA64FA651B5CDB2D
:102FF000653C54DB443944194C595C9A8DDE9DFF85
:103000009E1F95FE7D9D6D3C3C183C19449B4CFCDD
:1030100034392C5A2C9B141913D7241923D81BF993
:1030200003770BB80B981C3A0BB8039803970B97D0
:103030000BD81C5A141903D80B774CBC6D7E85DF56
:1030400085BE8DFF85DE85BE755D651D54FD4D1EFB
:103050000B770377039803980BD90BB90BB81BF9BF
:10306000347B551E551E4CFD1B7703360357035703
:10307000033703370B9824194CFC7DBF859E961FA0
:103080007D5D757E5D3D3CBC0B56033703370337D2
:1030900003170357037803570316037803980BB9F4
:1030A000143A0BB903570B16449C4C9B6D7E6D5E16
:1030B0006D1D64DC64FC54FC449B343A23F913D941
:1030C000245B2C3A3CBC2C3A1BD803570B771BB81B
:1030D000347B449B449B3C9B23F90B980B9813D95E
:1030E00003570378031702F602F644DD657F5D3E61
:1030F00054DC653D653E5D1D4CDD349B2C5B1BFA4D
:10310000035703370337033703370378037803780C
:103110000337035703370B5713973C9C5D3E551DF0
:103120003C5A1BB9033703170317033703360357FA
:103130000B7723D9657F7DDF8DFF8DFF85DE85BE13
:10314000757D653C5CFB4CBB449B449B3C7B347B6A
:10315000243A143A141A0BF903B903980378039824
:10316000039803980398039803B803FA03F903D963
:1031700003B8039803980398141A247C247C245BD6
:1031800013D90BF91419245A3CDC44FD44DD347B7B
:1031900013F903B803B8039803B803980398E7FF3B
:1031A0006C9654585479653B759D651B5CDB4CBA35
:1031B0003C1834193C3A3C3944384C18753C7D9ED7
:1031C0007DBE6D3C64BA5CBA6D3C7D9D755C5CBA3D
:1031D000651C6D5D5CDB54BA549A4C386CDB95DE33
:1031E000A63F9E3F8DDE757D3C1834393C3A3C3914
:1031F0003419243913D80BD81BF82C1934391BF87F
:103200000BB70BB80B981C3A0BB803970BB813B855
:103210000B9713F81419141913D83C7B5CFC6D1C24
:10322000753C8DFF7DBE85BE7D9E6D7E5D1E3CBC6A
:103230000B77037703770377039803780378037793
:10324000243A4D1E555F551E23D90B77033703379C
:10325000035803782C9C559F5D5E7DBF85DF8DFFF5
:103260006CFB653D5D3D44DC139703370317031783
:10327000033703570398037803370378037803571A
:103280000378035703360B1575DF861F8E1F859E47
:10329000857E859E7D7E6D5D4CBB343A2419241A53
:1032A0002C7B347B44FD347B1BD903570B98243A89
:1032B00044FD4CBC447B447B3C7B2C5B2C7B1C1A2C
:1032C0000BB80B78033703161BB8657F659F6D7EBF
:1032D0005D1D5D1D5CFD553E44BC347B13D80BB8B1
:1032E000033703370317031703370378039803984B
:1032F0000337033703370B5724194CFD5D3E5D5EE2
:10330000449B2C1A0B7803370337033703360336F5
:10331000033623B8655E85DF8DFF8DFF8DDE85DE8C
:10332000757D653C5CDB4C9B449B3C7B347B2C5B20
:103330001C3A143A143A0BFA03B903980378037849
:103340000398039803B903B803B803D903B903D9A1
:103350000398039803980398141A247C247B1C3B3D
:1033600013F914191C392C9B3CFC44FD44DD34BC7E
:1033700013FA03D903B8039803B803980398EFFF2F
:1033800074B764995C9A651C757D753C6D1C5CDB3B
:103390003BF83C193C5A449A4C7A43F764DB755D20
:1033A0007DDF759E5CBA4C596D5D7DBE7D9D64FB75
:1033B0006D3C757D6D1C6D1C5CBA545964BA7D7D85
:1033C0009E5F9E3F961E759E33D82BD82BF92BD827
:1033D0003C7A2C5A13B81BF923F92BF83C5A347B4E
:1033E0001BF91BF90BB81C190BD8039713D81C1920
:1033F0001BF813B70B970BD80BB7345A653D64FC19
:1034000064FB85DF7DBE7DBE759E757E4CDC2C3AEF
:103410000B7803780378037803780398039803778D
:1034200013D93CDD4CFD3CDD23F913B903570317D9
:103430000B780B991C1A347B3C5A653D85FF85FF40
:10344000651C5D1C5D5E44FD1BD90B5703170317FC
:10345000033703570B980BB90378037803570357C7
:103460000356035713972BD87E1F965F963F8DBE4A
:10347000857D8DDF85BE759E4CDB3C5A23D913B804
:10348000243A34BC453E34BD13B803371C1A2C7B98
:1034900044DC4CBC4C7B447A449B3C9C3CBC2C5B49
:1034A0001BF90B7703370316347B6DBF6D7E6D7E82
:1034B000651D5CFC4CDD4D1E3C9C2C7B0B98037702
:1034C00003370337031603170337037803B803B929
:1034D000035703160B570B363C9C555F553E657FD3
:1034E00044BB2C5B139803370337031603160336CC
:1034F0000B362BD86D5E861F8E1F8DFF8DDF7DBE38
:10350000757D651C5CDB54BB4C9B3C7B345B243B76
:10351000141A0C1A0C1A03FA039903780378037827
:10352000039803B803B903B903B903B903B903B9DD
:10353000039803980398039813FA1C5B1C5B143AD6
:1035400013F914191C3934DC3CDC3CDC3CDD349CC4
:1035500013F903D903B8039803B903980398EFFF4D
:1035600084F86CBA5C9A6D1C7DBE7D7D753C6CFBED
:103570004C59445A447A4CBB4C9A43F7547964FBF7
:1035800075BF6D7E4C7A44396D5D759E7DBE753C10
:103590007D5C85BD7D9D7D9D64FB5C9A5CBA755CA0
:1035A000963F9E5F8E1E7DDE3BF82BD83C5A34182A
:1035B000345A2C5A1BF91BF923D844394C5A44BBB2
:1035C0002C3A2C5A13B80BB80BB803971C192C5A69
:1035D000347A1BD7137613B80B972BF8653D6D5DC6
:1035E0005CBA7DBE759D6D7D757E6D9E449B23D9B5
:1035F0000B770377037703980378039803780378AE
:1036000013D92C7B347B349C1BF90B78035703377D
:1036100003380B9913D913571B564C7B7DBF85FF7D
:103620006D7E54FC555E3CBC13B90357033703173A
:10363000033703570BB9141A0B9903980357035711
:10364000031603362C195D5D8E5F965F9E5F95DED7
:1036500095BE95FF859E85DF5D1C3C7A23F9137727
:103660001BF8349B451D34DD0B9803172C5B2C5B3A
:10367000343A4C9B4C7A54BB54FD4CDC44BC345B18
:10368000241A0B770B570B3644BC659E6D5D6D7E1F
:103690005CDC5CFD4CDD44FD2C7B1C1A0BB8037715
:1036A00003370357033703370357039803D903D965
:1036B000037803160B57031644FD5D5F551D5D5ED1
:1036C0003C9B2C5B0B9803370357031703370336D8
:1036D000135633F86D7E8E1F8DFF8DDF8DDF85BE17
:1036E000757D6D1C5CDC54BB4C9B3C7B2C5B1C3A9D
:1036F0000BF90BF90BFA03D90398037803780398B5
:1037000003B903B903D903D903990399039903981A
:1037100003780398039803980BF91C5B1C5B143A1D
:103720000C1A0BF9141934DC3CDC3CBC3CDC247B6B
:103730000BD903D903B903B803B903780398EFFF92
:103740008D396CBA547A5CBA755C8DFE7D5C7D7C7B
:103750005CBA5CDB5D1C5D3C5CFB5CBB4C594C7A31
:103760004C7A3C192BB7341954DC653D757D7D9D31
:103770007D5C859C8DBD8DFF6D1B549A5CBB64FB8D
:103780008E1F9E5F8E1E7DBE54BB3C3934193C5A41
:10379000341923F9241A24192BB8443964FC75BF51
:1037A000447B2BF913B813D803970BB72C7A4D1D14
:1037B000657E449B2BF813971BD83C7A6D9E759EB3
:1037C0005CDB651C54DA54DB5D1C655E4CFC1397B6
:1037D0000B9803980378037803770B980377039883
:1037E00003780B980B7834BD0B98035703370337D6
:1037F000035803580B580B571B984CBC6D9F75DF33
:10380000655D553D345A1BD90336033703370337FB
:10381000035803370B9913DA0BB9037803370337CF
:103820000316031623B8655D8E5F963F9E3F9E1F6D
:103830009DFEA65F95FF8DFF6D3C447B345A2C198D
:1038400023F934BB3CFD34DD0B980B7823FA44BCE0
:103850003C3A4C7A5CDB653D653D551D4CDD345B87
:10386000347B1397031513765D7E5D3D6D5E64FCBE
:103870005CDC54DD44BC3CBC13B80BB80397035765
:1038800003780B7803570337037803B803B803B8FA
:103890000357033703370B573CBC44FD3C7B44FCC8
:1038A0002C7A1BF90B9803570337033703370B1791
:1038B00013573C196D5D8E1F8DDE8DDE85DE7DBE5E
:1038C0006D5C6D1C5CDC54BC4C9B449C2C5B1C1ADA
:1038D0000BD903D903FA03B803780398039803D9E3
:1038E0000BF903D903B903B903B903B903980378F2
:1038F000037803980398039803D90C1A143A143ADE
:103900000BD903D91419245A3CDC349B2C7B141A90
:103910000BD903B903B90399039803980398EFFFF0
:103920008539753C5CDB549A64FB7D9D85BD755B78
:103930006D1B5CBA6D5D6D9D653C547A4C7A4C7A1A
:10394000341933F92BD82BD83439551C653C7D9D5F
:103950006D1A8DBD95FE963F755C5CDB4C59651C00
:103960007DBE8DFE8E1E755C549A4CBB3C3944BAAC
:1039700034591BB81BB823B834194C5A755E85FFEF
:103980004C9B2BF81BB713D80BB70BB82C7A551DD3
:103990006D9F5D3D449B345A1BB744BB7E1F85FF22
:1039A00054794C9A3C383C595D3D551D3C9B1377EE
:1039B0000B7703780378037803770378035803576A
:1039C0000378035713FA34BD0357035703570337DC
:1039D00003380B580B7813781B7744BC5D5E655E2B
:1039E0005D5E44FD1BD80B5703370358031703379D
:1039F000033703370B780BB90B99035803380317B8
:103A000003160B3613565D3D861F963F9E1E9E3F46
:103A100095FEA67FA67F8DFE757D5CFC449B345A87
:103A20002BF93CBB3CDD34DD13D91BD92C5B54FD99
:103A300054BC54DB6D5D759E655D5CFD449C2C3A09
:103A40002C5A13980B562C195D3D653D6D3D64FC59
:103A500054DC4CBC449C347B0B770377035703370F
:103A60000337035703570357037803B803B803B862
:103A700003780316033703363CDD3C9C345A3CBBC9
:103A800024390BB8037703370337031703170B17D2
:103A900023B94C9B6D5D8DFF859D8DDE859D7DBE23
:103AA0006D3C6D1C5CDC54BC449C3C9C2C5B1C3A07
:103AB000141A03D903D9039803570378141A0BFA7D
:103AC0000BF903D903D903B9039803780378037872
:103AD000037803980378039803D90C190C3A0C1A4D
:103AE00003D903B80BD813F9349C347B2C5B141A1C
:103AF00003D903D903D9039903B903990398E7FFBD
:103B00007CF85CB94C594C58651B753B7D7C6D3B12
:103B10006D3B5CBA651C759D655D5CBB549B447ACE
:103B200034192BF92BF82BD82BF9551C655D6D5CDE
:103B3000753B859C95FE961E757C651C54BB5CFC94
:103B40006D7D7D9D85DE753C4C5954BB3C394CFCEC
:103B50002C3923F81BB82BF8447A64FC7D7E7DBF9A
:103B60006D5E449B1BB713B713D80B97347A4CDCAC
:103B70005D1D5D1C551D3C9B13763C397E1F861FC9
:103B80004C593C182BF82BD84CDC4CDC44DC13B8DB
:103B90000377037703780398037703570357035892
:103BA00003990378247B2C9C03570378035703580D
:103BB0000338033803370B370B573C9B553E551DD5
:103BC000553D3CBC13B8035703370337033703375E
:103BD0000337033703580B99037803380318031787
:103BE00003170B370B364CDC75BE961F95FE9E3FB8
:103BF00095FDA65FA65F95FE859D6D3C5D1C3C7A9C
:103C000023F9349B3CFD34DD13B913993C7C54FDFE
:103C1000651D5CDB757D759E653D5CFD447B347B7D
:103C20002C3A1377137744BC5D3D655D653D651D9A
:103C300054DC44BC3C9C241A035703570357031617
:103C40000337035703580357037803B803D903987E
:103C5000035703370B7813D93CFD241A23F9349BFF
:103C600024190B9803780357033703170317031717
:103C7000345B4CDC7DDF85FF85BE85BE85BE7DBEA9
:103C80006D3C651C5CDC54DC449C3C9C2C5B1C3A0D
:103C90000C1A03B90398037803770BB81C3B0BF994
:103CA0000BF90BF90BF90BD90398039803990378D7
:103CB00003780398039803B803D90419041A03F985
:103CC00003D903D90BD813D92C7B2C5B243A143A93
:103CD00003D903D903D903B903B903990399E7FFBA
:103CE0007D3964D94C7944375CFA64FA6D1B755C94
:103CF0006D3B5C995499651B6D5D651C54BB4CBB59
:103D000033F92BB82BF934392BF8447A5D1C6D3C10
:103D10007D9D6CFA859C85DE757D651C4CBB4439A8
:103D200054DB6D3B7DBD755D549A54DB4CBB553CFB
:103D300034392C192C193C7A5D1C6D5D755D7D9EA6
:103D40007DDF655E44BB34BB1C390B97241975FFBE
:103D50005CFD445A4CBB449B2BF92BD775BE861F88
:103D6000549A4CBB4CFC347A347B3C9B347B1C19FE
:103D7000037703770398039903780357035703588E
:103D800003780B99141A1C1A037703370337033788
:103D900003170338033703370B3723F93CBC2C19BF
:103DA000343A1BD803570357031703170358033735
:103DB00003370337035803780358033803170317EF
:103DC000033703160B573439655D85DE95FE9E1E5D
:103DD0008DBD9E3E9E3FA65F95DE7DBE5D3D449BB4
:103DE0002C19347B2C7B245B035713784CDD653E08
:103DF0007DDF757D7DBE7DBE6D5D5D1D449C345B4C
:103E00002C3A1BB8345A551D5D3D653D653D5CFC43
:103E10004CBC449C349C1BD9033603160316031771
:103E20000337035703780357037803D90BF9039833
:103E300003370B7813D92CBC2C9C13B813B8347BE4
:103E40001BF90B770B7703570337031703370B580F
:103E50002C5B3C7B6D7E7DBE85DE7D9E7D9E757D73
:103E600064FC5CDC54BC54DD3C7B2C7B1C3A13FAB8
:103E700003B903980398035713D91C3A1C1A1C3A28
:103E8000143A143A0BFA0BD90398037803780378A1
:103E900003780398039803B803D903F9041903FAC4
:103EA00003B803D90BF91C3A2C5B2C5B241A143A87
:103EB00003D903D903D903B903B903990399E7FFD8
:103EC0008D9A753B5CFA443754785CDA6D3B75BD6E
:103ED0006D3C54794C794C796D5C5CFB651D54BB31
:103EE000341933D833D734183C593C3944395CDB66
:103EF000757D64B9755C7DBD757D5CFB4459341975
:103F00003C3954FB6D7D6D3C5CBA5CBB54DB4D1C95
:103F10003C7A23D83C7A4CBB75BF757D757D7D9E00
:103F200085FF75BF551D34BB1BF81C191BD975FFC8
:103F30005D1D3C393C5A345A2C193C397DDF967F43
:103F40005CDB4D1C451D349B2C5A2C5A24191C1A21
:103F500003770377039803980377035803570358AD
:103F600003780B9803770377035703160357033738
:103F700003370338033703370B571377349B2BF979
:103F80002C1A1BD90357035703370337033703375B
:103F9000033703370337035803580337031703174F
:103FA000033703170B7823B85D1C7D9E8DDE95FECD
:103FB000857C9E1EA65FA65F9E1F85FF54FB3C7AF4
:103FC000345A2C7B1BF913D90357137844DD655EF3
:103FD0007DFF7DBE85DE7DBE6D5D54FD3C9C2C5B12
:103FE0001BF923F944DC553D653D651D5D1D54DD20
:103FF0004CBC3CBC2C7B139803160316031603160B
:10400000033703570357035703780BD9141A0BB917
:104010000357035713D92CDD141A0B771397345B0E
:1040200023F913B81BF913B80357033703580B7957
:10403000243B44DD5D5D7DDF7DBE7D7D7D7E6D5DF0
:104040005CDC54BB54DC4CFD345B243A141A0BB9D1
:104050000398037703980357243A2C7B245B2C9B0B
:10406000245B1C3A141A0BD903980378039803981D
:1040700003980399039803B803B903D903F903FA22
:10408000039803D913F92C5B2C3A2C3A243A141ACE
:1040900003D903D903D903B903B903B903B8EFFFAF
:1040A00095BA7D7B757C64D95C985CB95CDA653CBB
:1040B000655C5CFC4C794C795CDB549A653D54BB87
:1040C00033F83BF833D73BF74C9A44793C184C799A
:1040D000547A5C9A6D1B755D759E5D1C3C5A2BF97C
:1040E0002BF8449A5D1B757D6D1C5CBA54DB4CFB50
:1040F0002C391BB73C7B5D1C7DFF7DBE7D9E757D95
:1041000085FF75DF4CFC349B1C19243A1BD85D5E7F
:104110005D5E3C7A3C7A2C192C394C9B75BF8E5FC6
:104120005CDB4D1C349B247B243B1BF913D91C3ACC
:1041300013D9039803980398035703780357035838
:1041400003780B9803570B7703560B370337033766
:1041500003370337033703370B5713773CBC2C1A4D
:1041600023D913B8033703370337035803570337EB
:10417000031703370337033703570337033703376F
:10418000033703370B571377551C7D9E85BE8DDE95
:1041900085BD95FE9E3FA63F9E3F7DDE54DB3CBB2A
:1041A000347B243A13B913B903580B58345B5D5E62
:1041B0007DDF85DE85DE7DDE6D7E4CFD3C7B2C5B10
:1041C00013B82C1944DC5D3D655D653D5CFD54FD17
:1041D0004CDD3C9C243A0B780316031602F602F6DB
:1041E000033703570377035703780BB90BD90398A9
:1041F000035803370B981C5B0BB80B771BD83C9C00
:10420000345A2C3A2C5B24190B77033703170358C5
:104210001BFA3CBC4CFC6D9E759E7D7E757E653D9B
:1042200054BB4CBB4CBC44DD2C3A1BFA13F903982D
:10423000039803570B770B772C5A349B3CFD349C27
:104240002C7B245B13F903B80398039803B80399F4
:1042500003990399039903B803B803D803D903F961
:1042600003B9141A1C3A349C2C3A2C3A243A141AE6
:1042700003D903D903D903B903B803B803B9F7FFC6
:10428000A5FB9DFD9E3F859C6CFA5C994C584CBAF1
:1042900054FC653D4CBA4C794C7954795CDB651D16
:1042A000447A549A5CFB64FB5CFB5CFB653D549A6E
:1042B0003BF8441854795CDB75BE655E3C7A1BB8EC
:1042C0001BB734594CBA759E85DF6D3C6D7D4CFB38
:1042D00023B723B83C5A653D7DDF8DDF85BE7D9ECB
:1042E0006D5D449A2BF82C3A241913D81BD823D887
:1042F0003C7B3459347A1BD823D854DC85FF85FFA6
:1043000054BA3C9A0B970398039803780B78245A75
:10431000247B13F90BB913D9037803770357035799
:10432000037803770B7713B8241A241A13980357CA
:1043300003570337035803570B7723F944FD44DD34
:104340002C1A241A0B98033702F6031703170337A6
:10435000031603370337033703570358033703178D
:10436000033703570B571397551D757E8DDF8DFF50
:10437000961F8DFF8DDE9E3F9E3F75BE4CFC44FD1B
:10438000243A13980B780B7803370B782C3A4CBBF4
:1043900075BE85DF85BE759E5D3D44BC241A1BD964
:1043A0001BF93CBB5D5D657E655D655E5D1D4CFD1D
:1043B0003C9C2C5B13B8035702F602F602F6031678
:1043C000033703570377037703780398037803577A
:1043D0000337033703780BD903B80BB8347B5D5F21
:1043E0005D3E4CFD451D34BB1C1913D90BB9039917
:1043F00003990B982C194CDB6D7E757E6D5D5CFC12
:104400004C9B4C9B44BC3CBC1BD90BB80BB90378F0
:10441000039813B913981B98345B3CDC451D3CDDB5
:1044200034BC2C9C13F9039803B8039803B803D940
:1044300003D903B903B903B903B803B903D903D93D
:104440000C1A1C7B2C9B2C7B2C5A2C5B243A1C5A60
:104450000BF903F903D903B903B903B903B8F7FF9B
:10446000AE1CA63EA63F8DBD7D7B6D1B549A447A43
:104470003C594C9B5CFC4C9A44784C584C5954BB6E
:104480005CFB6D5C6D3C757C6D1B651B6D5C5CDB6A
:1044900044183BB744184439655D5D5D3C7A241986
:1044A0001BB72C383C795D1C759E755D651C54FCF2
:1044B00023D71B973419651C7DBE7D5D85BE6D3C81
:1044C000549A33F81B761BD8245A13D913B82C5A94
:1044D0002C3A347A24191BF91BB74CDC75BF6D7D5F
:1044E0004C9A345A0B970BB90398037803781C3A0B
:1044F00034FD1C3A0BD91C1A039803570378039810
:1045000003770B7813B82C3A555F555F347C1398BA
:10451000037803370357033713773C9C5D9F551E81
:10452000343A347B13D90B58031703370317033777
:1045300003160B5703570337037703570337033625
:1045400003370336035713B7553D6D5E8E1F961F15
:104550008DFF8DFF859D963F8E3F75DF3CBB349B65
:1045600013B803570337033703581BDA241A23B74A
:10457000653D85DF7DBE757E551C44DC13B8139800
:10458000241A3CBB555D5D3D5D3D653D551D4CFDB3
:104590003C9C241A0B98035702F602F6031602F607
:1045A000031603370337035703980378033703577A
:1045B00003170358037803B803B81C194D1E655E32
:1045C000655E551D4D1D3CBC2C5A245B143B0BDA1B
:1045D00003990B98241A4CFC653D757E6D5E54DC86
:1045E000449B44BC44DC3CBC13D9039803B80398F7
:1045F0000378241A1BD923B83C7B4D1D44DC44DDD1
:10460000349C2C7B1C1A0BD803B803B80C1A0BFA79
:1046100003FA03D903B903B903B803B903B903B95A
:104620001C5B24BC2C9C241A2C5A347B2C7B247BB2
:10463000143A0C1903F903B903B903B903B8F7FF26
:10464000ADFCA61EA65F9DFD8D9C7D5B5C994438EC
:104650004479449A54DB54FB4CBA5CDB443854BA7A
:104660005CDB6D5C7D9D7D7D7D7C755C755C64FB3C
:104670004C5843F74C594C595D1C54FB3C9A23F859
:104680001BB724393C9B54FC6D3E6D3D5CFC4CFBE0
:1046900023F823F8343A54BB759F757E7D9E6D5D7B
:1046A0004C9A33F813761BB8243A1BFA0B982C7BE0
:1046B00023F9347B34BB2C5A1BB73C9B4CFC54DC99
:1046C0003C7A23F90B97039803B80378039813FAFD
:1046D0002C9C247C0BB913FA0B9803360357033731
:1046E00003780B78139923D95D7F5D9F4D1D2C3B7B
:1046F000035703580357033623F94CDC65BF551D98
:104700003C7A44FC3CBC1BD9031603570337031700
:104710000B78139813B8033703780337035703371D
:1047200003160337035713B84D3D653D7DBF961FF4
:10473000961F85DF755D7DDF7E3F5D9F243913F910
:104740000B77031602F60337033713B91B98239828
:10475000653E757E7D9F6D7E54FC347A0B770B57DA
:10476000241A3CBC4D1D54FC5D1C5D1C553D4D1D6B
:104770002C7B1BF90B780B5702F602D6031702F6B7
:1047800003170317033703370B7803370337035730
:10479000035703370378039813D8347A5D5E6D9E10
:1047A000653D5D3D551D3CBB2C5A247C1C5B0BDAE2
:1047B000037813DA2C5A4CFD5D5D6D7E653D54FD2A
:1047C000449C347B3CDD349C13D9039803B80357D5
:1047D0000BB82C7B23F93419449B4CFC4CDC44DC97
:1047E000349B2C9B1C190BD90BD90BD9143A0C3ABE
:1047F00003F903D903D903D903B8039803B90BD933
:10480000141A245B245B245A2C7B2C7B2C7B2C7B62
:104810001C3A14190BF903D903D903B903B8F7FFEC
:1048200095399DBD9DFEA63EAE7F95DD85BD549913
:104830004459445954FC5D3C54DA4C7944593C1871
:10484000653C755C961F95FE8DBD85BD85DD7D9DA6
:10485000651B6D3C6D5D6D7D447A4CFB4CFC2419F1
:1048600013D724192C393C5A54BC651D54FC3C9A6E
:10487000243823F82C192BD86D7E757E7D7E759E8D
:10488000759E449A1B9613B72419243A0B770B98FC
:104890002C5B241A349B1BF8347A44FD3C9B3C9BD4
:1048A000345A0B770BB803B803B8039803780B9905
:1048B00013DA1C3B0BD90BD91C1A1BF913D903981B
:1048C00003570B780B5723B95D5E5D9F553E3C9CAB
:1048D0000B780358035703371BD83C9B659F655ED5
:1048E0004CDC3439451D4D3E0337033703580B5814
:1048F000241A1BF92C7B0B780B98035803580317C9
:1049000003370316035613D824194CDC5CFC8E1FA6
:104910008DDF757D651C44595D7E34BB0B77035775
:1049200003360316031603372C5C2C5C1B983C5B88
:10493000653E755E6D3D653D4CBB24190B770B984C
:104940002C7B3CDD3CBC447A4CBB54FC551D451DC6
:1049500024190BB80B770B57031602F6031602F651
:1049600003160317033803370337031703360316F9
:104970000317033703780B98349C555E6DBF759E03
:104980006D7D655D551D44BC349B2CBD1C3B0BB936
:104990000BB92C7C3CDD4D1E553E5D3D4CDC3C7B1B
:1049A000345B345B347B2C5B039803980398037867
:1049B000245B3CDC3CBB449B4CDB551D4CDC4CDCA1
:1049C0003CDC2CBC1C3A13F9141A141A1C5B145B43
:1049D000041A041903F903D903B8039803B903B9F6
:1049E0000BD91C3B245B243A245A2C9B2C7B347B14
:1049F000245B1C3A0C1903D903D903D903B9EFFF7F
:104A00008D188D7BA63FAE7FA65F95FE8DDE64FB85
:104A1000445944594CBA54FB4CBA44794C9A3BF72C
:104A20005CFB6D3C8DFE963F961F8DDD8DFE8DFEF1
:104A30006D1B64FB6D5D7DFF3C18449A44FB2C5953
:104A40001BF81BD723F83C5A447A447A449A2C38F2
:104A5000243824182C592BD8657E653C6D5D6D5D1E
:104A6000759E4CBB2C18241924191BF913980B980C
:104A70001C1913D8245A2C7B2C5A4D3E44FC347BF1
:104A8000241A033603B803B8039803B803780398CD
:104A90000BD90BD903980BB81C3A1C1A1BF90B98AD
:104AA00003370B570B5723D95D7F5D9F555E3CDD68
:104AB00013980378035803571BD83C7A5D3E655E14
:104AC000657E449B347B453E13D90B780B58241BE1
:104AD00034BD241A3CDD13B90B980B990337031727
:104AE00002F6031703771BF913973C9B5CFD863F87
:104AF0006D3D54DC551C23973CBB1BF90356033614
:104B000002F602F502F60316451E44FD2BD954FDAC
:104B1000653D755E6D1D655D4CBC23F90B9813D921
:104B20002C7C44FD347B3C394C9B5CFC5D3E4D1D34
:104B30001C190B980B780B580317031602F602F694
:104B40000316033703370337031703160316033718
:104B5000031603370B98139844FD659F75BF757E48
:104B6000755E653D54DC449B3C9C349C1C1A0BB91F
:104B70000BB92C9C3CDD3CDD4D1D551D3C9B23D9C8
:104B80002C3A2C7B2C7B247B0398039803780B987E
:104B900034BC44DC4CDC44BB54FC551D4CDC3CDCDC
:104BA00034BC2C9B1C5A1C3A1C3B13FA143B145B60
:104BB000143A0C3A03D903B903B9039903B903B9F9
:104BC0000BD91C5B249C245A245A349B349B349B61
:104BD0002C9B1C7B0C1A03F903D903D903D9EFFFD3
:104BE0007CF775198DBDA65FAEBF9E3F85BD6D3C40
:104BF0004C584C394459447944BA551C447A445968
:104C0000443864FB7D9D8DDE961E95FE8DDD8DFE08
:104C1000755C6D1B757D75DF3C392BF8347A2C7A09
:104C2000241813B71BD734593C5A34393459243912
:104C300013B71BD72C592C385D3D54FB5D1C6D5DA3
:104C400075BF4CBB34393C9A347A2C191BD8139756
:104C50000BB703561C19243A243A34BC3CDC2C9B79
:104C60000BD80377039703B8039803980398037846
:104C700003B8039803981C3A1BF91BF9139813B94E
:104C80000B7803370B581BB8557F557E4D3D347B51
:104C90000B77037803770B771BF944DC551D655FB1
:104CA0005D3E3C9C241A34BC1C1A0B780B58241B08
:104CB0003CDD34BD453E1C1A0B5813B903370317AE
:104CC000031703160B7813B90B57345B4CFD659F24
:104CD0003C5A34393C9A135624191BD9033602F630
:104CE00002F502D503160315347B449C2BD8655D71
:104CF0006D5D755D6D3D653D44BB241A1BFA243B1B
:104D00002C9C3CDD347B341954DC5D1D551D4D1D40
:104D1000243A13B90B990B580317031603160316FD
:104D20000316033703170337033703370316031735
:104D3000031603370B7823D9551E6D9F7DBF7D7EEB
:104D4000757E653D54BC449C3CBC349C1BFA0BB83E
:104D50000BB9245B2C9C349C3CDC3CDC2C3A13B817
:104D6000245B2C9C247B1C3A0BD9037803981BFAF8
:104D70003CDC44BC44BB4CDB551C4CFC44FC3CFCC4
:104D80002C7B1C5A1C5A1C5B1C5B1C3B1C5B1C5B5D
:104D90001C7B143A03D903B903B903B903D903D966
:104DA0000BFA1C5B247B1C3A245A349B349B349BA7
:104DB0002C9C247B143A03F903F903D903D9E7FFA8
:104DC0006C7574F964B97D5BAEBF95FE8DDE6CFBCE
:104DD0006D1C5CBB443844793C79447A449A3C3934
:104DE0004479549964FB8DDE8DFE8DDD8DBD8DFD86
:104DF0007D9C755C755D6D9E5D1C2BD82C191BD739
:104E00001BF824181BD723D73C9A44FC2C392C5967
:104E100013B713961BD723D744BA54FB54BB5CDBA0
:104E20007DBF5D3C4CDB4CFB4CDB44BB3CBB2C3ABC
:104E300013B80B9713F90B9713B80B7713D81C3AC9
:104E4000039703B8039803B8039803780B98037883
:104E500003570B9813D834DC2C5A2C3A1B98243A5D
:104E60001C3B0B780337137744DD555E451D347BBF
:104E70000B780B9903980B971BF9555E553E5D5EB9
:104E8000551E2C1A23FA243B0B980B780B98241AE6
:104E9000347C3CDD3CFE243B0B781399033703370D
:104EA00003170B78033703370B981BF93CBC44FD01
:104EB00013760B561BF80B7603360357033703168E
:104EC00002F603160315031523D8447A443975BE38
:104ED0007DDE7D7D755D651D449B2C3B243B245B05
:104EE000245B349B3C9B343954FD5D1E551E44FDB0
:104EF0002C7C13B90B780B78033703160336031693
:104F00000316033703170337033703370317031752
:104F1000033703370B583C5B657F75BF7DBF7D9FB3
:104F2000757E653D54DC44DC3CBC2C9B1C3A0BD9A3
:104F300003980BB803980BB81BFA1C1A1C1A13D948
:104F40001C3A245B14190BF90BF903980BD92C5B51
:104F500044DD44BC4CDC551C551C44DC3CBB2C9B48
:104F600013F90BD8141A1C3A1C3B1C5B1C3B1C7B12
:104F7000249C1C5B0BD903B903B903B903D903D92A
:104F8000143A1C5B141A1C1A2C7B34BB34BC349BA3
:104F90002C9B247B145B0C3A03F903D903D9E7FF5C
:104FA0008558753A6CFA74FA8DDD961F859D7D5C87
:104FB000753C755D5CDB3C173C38341844BB449A47
:104FC0003C1844385CDA7D7C9E7F961E7D3A85BC19
:104FD00085BD8DFE6D5C651C54DB239723D8243979
:104FE00013D723F83459345923F82C392459241968
:104FF00024191BD723F83C7944BA449A4C9A549B01
:10500000651D5D1C44BA54FB6DBE54FB551C3CBB76
:105010000B560BD803970BB8039803770BD803D91B
:1050200003B803B803B80398039803780BB80BB818
:1050300013B813B7139744FC3CBB343A2C3A2C7B7F
:10504000247C13DA03370B782C3A4D3D44FD349C15
:1050500003570357035703770BB74D3E4D1E4CFDC7
:10506000551E241A13B90BB803370B570B77243A84
:10507000241A243A245B1BFA0B980B990337031765
:105080000337031703570B7803371BFA2C5B243ABB
:105090000B9703970397035603160337031703373A
:1050A00002F60B3602D40B3534395CFC5CFC861FEF
:1050B0008E1F7D9D7D7D653D449B343B241A2C7C59
:1050C000243A2C5A3CBC3C7B54FD54FD4CFD44FD21
:1050D00034BC0BB9035803580357031603160316C1
:1050E000031603170337033702F703160337033793
:1050F0000337031713984CDD655F6D5E757E759EF3
:105100006D5E5D3D4CFC44DC349B2C7B1C1A03B86B
:10511000039803B803B80BD913FA141A1C3A0BF905
:105120000BF9143A03B80BD90BF90BF91C1A2C7BA9
:1051300044FD4CBC54FD5D5D4CDB44DB2C9A1C5A99
:105140000BD80BB813F91C1A245B247C1C3B1C5B8A
:10515000249C1C5B0BD903B903B803B903D903F929
:10516000145B1C5A13F91C3A2C9B34DC34BC2C7B8A
:105170002C7B1C7B145A0C3A03F903D903D9E7FFA3
:105180007D187D5B6CFA6CDA85BD857C753B7D5C3A
:105190007D5C7D5C6D1B54BA44793418449B4CDBB8
:1051A000447944595499755CA69F9E7F859C857B64
:1051B0007D5B85DD757C6D7D54DB2BD823D823F892
:1051C00024192418345944BB34592C392C5A1BF84F
:1051D000243A2C593CBB555D4CDB4CBA4C9A445993
:1051E0005CFC551B44784C99759D653C655D553D4F
:1051F00013B70BB80377037703D903B803D803B801
:1052000003D903D903B80398039803780B980B9735
:105210003CBC2C1934194CFC4CBC3C5B3C7B2C7CBE
:105220001C3B13DA03570B9813D8349B349B349CE4
:1052300003570357037703770BB834BC44FD3C9CFA
:105240002C3B1BD90B980B98037703570B7724192A
:105250001BD91C191C1A0BD90378035703370337C2
:10526000031603170337035803370B7813D913D9E1
:105270000397037703B80357033703170B990B57AB
:105280000316033602F50B35345A6D9E757D8E1F5D
:10529000961F859D7D9D653D449B343A23F91C1ADC
:1052A00013F91BF9347B44FD4D1E4CFD44FD34BC09
:1052B000247C0BB9037803580357031602F6031630
:1052C000031603170337033703370337033703374F
:1052D000031603172C1A551E653D6D5D757E759E70
:1052E0006D7E5D3D4CFC3CDC2C7A1C3A0BF903B81E
:1052F00003780398039803980BD9141A1C3B03B93D
:1053000003B90BF903B803D903D9141A1C3A2C7C3E
:1053100044FD44DC54FD553D44DB3CDB2C7A141940
:105320000BD803980BD91C1A1C3B1C3B145B143A7A
:105330001C7B143A0BD903B903B803B903D903D9B9
:105340000C3A143A1C19243A349B349B2C7B243A93
:105350002C7B1C5B143A0C1A03F903D903D9E7FF21
:1053600074D76CFA64DA64DA7D9C7D5C6CFB74FB48
:105370008DDE8DFF755C6D3C3C383C1844594C9A71
:105380005D1C4C9A54796D1B7D9DA69FA67F857BE5
:105390007D5B85BD7D7C6D7D3C182BD82BF82C5A10
:1053A0002439347A553D5D5D345A23D81BF91C19D4
:1053B0001BF9347A44DB551C4CDB655E4C7A3C1996
:1053C00054DC4479551B653B6D3C7DDE7DDF65BF5C
:1053D0001BD80B9703B8039803B803D803B803B8D6
:1053E00003D90C1A039803B9039903780B780B5669
:1053F0005D9F553D6DDF6D9E653D5D1D44BC349CDC
:10540000141A0399035703770B771BD81BF83CBC7E
:105410000B78037803570356037713981BD923F9A6
:105420000B780B980398035703561BD82419347A2A
:1054300023F91BF913B80BB90378037803770357E3
:1054400003570337031703370378037803780B7880
:105450000357037703570316037803581BFA1BFA05
:1054600013D90B770B7702F52BF87DDF85FF965F5D
:10547000963F8DFE7D9D655D449B3C5B2C3A243AB6
:105480001C191BF92C5A4D3E3CDC2C5A241A1C1AB0
:1054900013FA0378037803570357033703160316E9
:1054A0000337031703170B5713B91399033803373F
:1054B000033713783CBC551D5D1D757D757D757D6D
:1054C000655D5D3D4CDC349B1C190BD9037703985B
:1054D000037803780378035703980BB9039803996B
:1054E00003B903B803D803B803B80C1A1C3A2C7CD0
:1054F0003CBC44DC4CDC4D1D44FC2C9A1C390BD9C3
:105500000BD913D9245B34BD1C5B0BF90BF90BF9D8
:10551000145A0BF903B803B9039803B903D903D894
:105520000BF91C3A245A2C7B349B347B243A243AC2
:105530002C7B1C7B143A0C1A03F903D903D9EFFF17
:1055400085196CD964FB64DA7DBD7D7C6D1B6CFABA
:105550008DDE963F7D7C757C54B944593C19445985
:1055600054DB54BB44395CBA64DA9E7F9E3E9E1E77
:105570007D3A85BC7DBD64FB3C18341834392C7AE7
:1055800024393C7A551C65BF343923F91BD913D80B
:1055900013D82C5A3C9B553D4C9A5D1D54BB443945
:1055A0005D1C54FB5D3B6D7C757D7DDE863F6DFF34
:1055B0001BD80BB803B8039803D903F903B80397B2
:1055C00003D80C1A037803990399039903780B56AF
:1055D0004D1D7E1F861F7DBF6D5D651D4CBC2C5B08
:1055E000141A037803B90398037713B813B834BCBB
:1055F00013B903780357039803570B78033713B88D
:105600000B970377037703561BD8345A4CFD5D3E46
:105610003C7A2C5A13B80BB80398039803770357B6
:105620000357033703370337035703580357033729
:1056300003370358037803370337033713FA1C1A69
:105640001C1A0BB80357031513367DDF8DFF963FE9
:10565000963F8DFF7D9E655D449B3C7B347B2C7B20
:10566000245A243A3CDC451D2C7B1C1A13B80BB978
:105670000BF90398039803580378033703160317AD
:105680000357033703370337243B1BFA033703570A
:1056900003571BD944DC54DC653D759E757D755DF3
:1056A000653D5D1D44BB347B241A0B980378039839
:1056B0000378035703570357035803570337035817
:1056C0000BD90398039803D803D90BF90BF9247C61
:1056D0002C7B2C5A3C9B3CBC3CDC2C7B1C3A1BF9A5
:1056E0001C3A1C1A2C9C2C9C141A03D903F903D8BD
:1056F000145A0BF903D903B90398039903D903D8B2
:105700000BF9243A347B347B347B349B2C3A2C7B4E
:10571000245B1C5B143A03F903D903D903D9EFFFC7
:105720008D39751B6D1B5CB96D5C6D3C6D1B753BDC
:1057300085BD8DDE8DDE7DBD64FA4C7944394459DA
:105740004C9A54BB44394C595CBA85DE961EA65F10
:10575000857B8DFD7D9C64FB44583C5944BB349A49
:1057600024183459551D6DBF449B2C191BD813D8D0
:105770000BB71BF844FC5D7E3C394C7A54BB4C7A29
:1057800054DB54FB54FB6D7D75BE75BE865F761F82
:105790001BD80BD8039803B8039803B803B803B712
:1057A00003B703B80398039903B9039903781377F0
:1057B0004CFC863F8E3F85FF6D5D651D4CBC2C5BB0
:1057C0000BB803B803B90398035713B813973CBC3D
:1057D00023FA0B98037803770377035703570B7863
:1057E0000B98037703770336347B5D5E6DBF75DFFF
:1057F000551D44BC243A0BB803770357035703578E
:105800000357033703170337035703580337033787
:10581000031703580B990317033703570BD913F9D1
:1058200013D90BB803360356135675BF8E1F8DFF61
:10583000961F8DFF7DDE657D449B449B3C9B2C5BCE
:10584000243B2C7B451D451D245B13F903B803B88D
:105850000BD903B9039803770357031703170337CB
:105860000358035703570B782C7C1BFA0358035734
:1058700003572C5A4CFC5CFC6D7D6D5D757D755D30
:10588000651C5D1C4CDC345B1BD90B7803780378FA
:105890000357035803370317033703370357039995
:1058A00003780378039803B803B803D90C1A1C3A99
:1058B0001C1A243A347B2C5A245A243A1C1A13D921
:1058C0002C5B2C5B2C7C2C7C143A0BF904190419EE
:1058D0000C5A0BF903D903D903B903B903B80398D8
:1058E00013D82C5A3CBC3C9B347B347B2C7B2C7BCC
:1058F0002C5B1C5B141A03F903D903D903D9EFFFFE
:10590000851974FA755C6D1B6D3B6D3B6D3B6D3B92
:10591000753B8DDE8DFE963E755B64FA5CBA54BBBA
:105920003C194C9B4CBB4C59549A6D1B8DFE961EDA
:105930009E5F859C8E1E6D5C54BA443944BB2C39E5
:1059400023F82C183C9A551C449B345A1BD813D866
:1059500013F80B97243944BB3C39447A4C9B651DA2
:105960007DDF655D653C54DA3BF74CBA5D5D557E85
:1059700013B70BF8039703D903B803980BF90BF887
:1059800003B703B803B8039803D90399039813978F
:10599000449A8E5F8E3F8DFE753C651D4CDC347BDA
:1059A0000B770B9803B903980BB8243A241944FDDC
:1059B0002C5B13B9037803570377033703370B784E
:1059C00003780357035703165D9F75DF85FF8E3FEE
:1059D0007DDF657F3CBC13D90398035703770357DA
:1059E00003570336033603370357035703170317C9
:1059F00003170B581BDA0316033703980BF90BD95F
:105A00000337035703370B573C9C5CFD6D1D7D5DD1
:105A10008DDF85DE7DBE655D44BB44BB3C9B2C5B5E
:105A200013D92C3A241A1C191C190BB8039803B863
:105A300003D90BFA03B80378035703170337035846
:105A40000357035703770B98349C13D903570377F5
:105A50000BB83CBC4D1D655D7DBF759E7DBE757EE2
:105A6000651D5CFC4CDC345B13990B780B99037857
:105A700003570378035703570357033703770BB9CB
:105A8000035703780B980398141A1C5B141A245BB1
:105A9000243A2C7B2C9B241913D913D90BB81C1A2C
:105AA000349C349C2C5B2C9C1C5B0C1A0C5A145B95
:105AB0000C3A03F903B803B8039803B903980397A2
:105AC0001C393CBC4CFD4CDD449B3C9B349B2C7BEB
:105AD0002C7B1C5B141A03D903D903D903D9F7FF14
